:020000040800F2
:1000000050750020C10100085747000899370008C3
:1000100055470008690A000825AE000800000000E6
:100020000000000000000000000000006D610008FA
:10003000810E000800000000254B0008CF68000872
:10004000DB010008DB010008DB010008F5530008B4
:10005000DB010008DB010008DB010008DB01000810
:10006000DB0100082D320008DB010008DB0100087D
:10007000DB010008DB010008DB010008DB010008F0
:10008000DB010008DB010008DB010008DB010008E0
:10009000DB010008DB010008DB010008DB010008D0
:1000A000DB010008DB010008DB010008DB010008C0
:1000B000096A0008DB010008DB010008DB01000819
:1000C000DB010008DB010008DB010008DB010008A0
:1000D000DB010008DB010008DB010008F97E0008F5
:1000E000DB010008DB010008DB010008DB01000880
:1000F000DB010008DB010008DB010008DB01000870
:10010000DB010008DB010008DB010008DB0100085F
:10011000DB010008DB0100081D6A0008DB010008A4
:10012000DB010008DB010008DB010008DB0100083F
:10013000DB010008DB010008DB010008DB0100082F
:10014000DB010008DB010008DB010008DB0100081F
:10015000DB010008DB010008DB010008DB0100080F
:10016000DB010008DB010008DB010008DB010008FF
:10017000DB0100084D480008DB010008DB01000836
:10018000DB010008DB010008DB010008DB010008DF
:10019000DB010008DB010008DB010008DB010008CF
:1001A000DB010008DB010008DB010008DFF80CD0F0
:1001B00000F004FB004800476DE700085075002080
:1001C0000648804706480047FEE7FEE7FEE7FEE7F1
:1001D000FEE7FEE7FEE7FEE7FEE7FEE7AD690008A3
:1001E000AD01000840EA01039B0703D009E008C9FC
:1001F000121F08C0042AFAD203E011F8013B00F8EC
:10020000013B521EF9D27047D2B201E000F8012B37
:10021000491EFBD270470022F6E710B513460A4686
:1002200004461946FFF7F0FF204610BD421E12F8A3
:10023000013F002BFBD111F8013B02F8013B002BE1
:10024000F9D1704710B5002200E0521C835C8C5C31
:10025000A34201D1002BF8D1D8B2E1B2401A10BDAF
:100260002DE9FE4F81EA030404F0004421F000412F
:1002700000944FF0000B23F0004350EA01045ED0DD
:1002800052EA03045BD0C3F30A54C1F30A552C4469
:10029000A4F2F3340194A0FB0254C1F3130141F41E
:1002A0008011C3F3130343F4801301FB024400FBEA
:1002B000034E840A970A44EA815447EA8357A4FB11
:1002C000076802958D0A05FB07854FEA932C04FB0E
:1002D0000C542705029D4FEA065847EA1637B5EB3E
:1002E00008056EEB070C870E920E47EA811742EA6B
:1002F0008312A7FB0201B6EB0B0164EB00042B0D8C
:1003000043EA0C335E1844EB1C50DA465146E7FBD7
:100310000201C5F313044FEA0B3343EA14534FEAC7
:100320000432019C43EA0603A4F10C040294009CED
:10033000CDE900B400F00DF903B0BDE8F08F002066
:100340000146F9E72DE9F04D81EA030404F0004B82
:1003500021F0004514464FF0000A23F0004150EA16
:10036000050220D054EA01021DD0C5F30A57024607
:10037000C5F31303C1F31300C1F30A5640F480150B
:1003800043F48013A7EB0608101BD64608F2FD388D
:1003900073EB050002D308F1010801E092185B41FC
:1003A000B8F1000F03DA00200146BDE8F08D00200F
:1003B0004FF48011064684460EE0171B73EB0507C9
:1003C00005D3121B63EB050306434CEA010C4908F5
:1003D0004FEA300092185B4150EA0107EDD152EA32
:1003E000030012D082EA040083EA0501084305D025
:1003F000101BAB4106D20122002306E000224FF081
:10040000004302E06FF0010253101AEB06004CEBC0
:10041000085110EB0A0041EB0B01BDE8F04D00F074
:1004200089B80EB540F2334102910021CDE90011A7
:100430000A460B4600F08DF803B000BD00F0004204
:1004400030F000400AD0C10D01F56071C0F3160014
:1004500042EA0151C208400711437047002001469B
:10046000704701F0004330B421F0004150EA01022E
:1004700006D00A0DA2F56072C1F31301002A02DC56
:1004800030BC00207047440F44EAC104C100E018AA
:1004900030BC00EBC25000F016B830B50B46014638
:1004A00000202022012409E021FA02F59D4205D313
:1004B00003FA02F5491B04FA02F52844151EA2F1BD
:1004C0000102F1DC30BD0029A8BF7047401C490083
:1004D00008BF20F00100704710B4B0FA80FC00FAA9
:1004E0000CF050EA010404BF10BC704749B1CCF1D4
:1004F000200421FA04F411FA0CF118BF0121214360
:100500000843A3EB0C01CB1D4FEA00614FEA10201A
:1005100042BF002010BC704700EBC35010440029BC
:10052000A4BF10BC7047401C490008BF20F0010068
:1005300010BC704710B5141E73F1000408DA401C9B
:1005400041F1000192185B411A4301D120F00100F2
:1005500010BD2DE9F04D92469B4611B1B1FA81F2E2
:1005600002E0B0FA80F22032904600F039F90446F9
:100570000F4640EA0A0041EA0B0153465A46084337
:1005800013D0114653EA010019D0C8F14002504679
:1005900000F035F905460E4650465946424600F0F1
:1005A0001FF9084305D0012004E020463946BDE884
:1005B000F08D0020054346EAE0762C4337430A9845
:1005C0006305E40AA0EB08000022FD0A44EA475450
:1005D0000A3002D500200146E9E7010510196941FA
:1005E000DDE9084500196941BDE8F04DA2E72DE9B4
:1005F000FE4F804681EA0300C00F0C46009021F0B8
:10060000004123F00045B8EB0200A94105D2404665
:10061000214690461C460B46024623F000401043FC
:1006200047D0270DC7F30A00C3F30A510290401ABE
:10063000019040286BDAC3F3130040F4801B00984C
:10064000924620B10023D2EB030A63EB0B0B019817
:100650005946C0F14002504600F0C2F806460D4629
:1006600050465946019A00F0DAF810EB0800614153
:10067000002487EA115284EAE7731A4340D0009AB3
:1006800062B3019A012A4FEA075215DC001B61EBA5
:1006900002014FF0004202EA0752CDE90042001C7D
:1006A00041F5801132462B46FFF753FF03B0BDE8FA
:1006B000F08F40462146F9E7001B61EB0201001C68
:1006C00041F5801300185B412018A2F5001747EB95
:1006D000030140EAD570B6196D4111E06D084FEA8B
:1006E000360645EAC0754FEA0752001B61EB02016E
:1006F000001C41F5801149084FEA300000195141B2
:1007000032462B4603B0BDE8F04FFFF713BF009809
:10071000012240000023D0EB020263EBE07300985B
:1007200021464FEAE074B8EB000061EB0401E9E711
:1007300083F000435BE781F0004158E770B521F09A
:10074000004303430CD0C1F30A550024D5EB040544
:1007500064EB0403D617AD1AB34102DB0020014657
:1007600070BD201841EB025170BD0EB5C10F80EA7B
:10077000E0700844CA07002140F233438DE80E00C0
:100780000A460B46FFF7E5FE03B000BD30B5041E78
:1007900071F1000404DB4FF00044404264EB0101BE
:1007A000141E73F1000405DB1C464FF00043524257
:1007B00063EB0403994208BF904230BD064C074DDD
:1007C00006E0E06840F0010394E807009847103421
:1007D000AC42F6D3FFF7EEFC10FD090830FD090826
:1007E000202A04DB203A00FA02F1002070479140F1
:1007F000C2F1200320FA03F3194390407047202AE6
:1008000004DB203A21FA02F00021704721FA02F3BA
:10081000D040C2F120029140084319467047202A77
:1008200006DBCB17203A41FA02F043EAE07306E018
:1008300041FA02F3D040C2F1200291400843194628
:1008400070472DE9F04D00231A461B1A8A4103DB3D
:1008500000200146BDE8F08DC1F30A52C1F3130137
:1008600041F480154FF0000BD10702D100186D4103
:10087000521E0027044640F2FF11384601EB620A7F
:100880003E468046024600204FF48011FFF7B7FF36
:10089000C2197141BB1846EB0100B4EB030C75EBB8
:1008A000000C04D3E41A65EB000517460E46241924
:1008B00008F101006D4180463428E3DDF91946EB6B
:1008C0000600091BA84103D24FF0FF32134601E096
:1008D000002213461BEB070046EB0A51BDE8F04D22
:1008E000FFF728BE70B58C1810F8015B15F00703F0
:1008F00001D110F8013B2A1106D110F8012B03E0B9
:1009000010F8016B01F8016B5B1EF9D12B0705D4C0
:100910000023521E0DD401F8013BFAE710F8013B09
:10092000CB1A921C03E013F8015B01F8015B521E25
:10093000F9D5A142D8D3002070BD000010B5042124
:100940000D4802F094FE01210C4802F090FE4FF495
:1009500080610B4802F08BFE4FF40051094802F011
:1009600086FE8021084802F082FE03F0E3FEBDE827
:10097000104007F091BA0000001002400000024051
:10098000001C024000080240000C024010B5074C59
:100990002060084600F00CF820680028FCD1BDE873
:1009A000104000214FF0804006F09DB82801002043
:1009B0003EB504464FF080450021284606F093F8E6
:1009C00000220121284606F0A6F8022C02D0012CB4
:1009D00003D005E00B20019002E042F6DF600190B9
:1009E0000520ADF800000020ADF80800ADF80200C9
:1009F0006946284606F0BAF80121284606F070F844
:100A00000121284606F05DF801221146284606F02D
:100A100082F80121284606F066F83EBD20210148F3
:100A200002F025BE001C02402021014802F021BE38
:100A3000001C02400B4991F84220002A06D038B130
:100A400091F8420002280BD0FFF7E8BFFFF7E6BF9E
:100A500091F84200012801D0FFF7E0BFFFF7E4BFA3
:100A6000FFF7E2BF64060020FEE700007CB501212D
:100A7000084604F073F9A020009002208DF80500CC
:100A800001248DF8044000258DF806508DF80740AC
:100A9000084E6946304602F095FD8DF804508DF8F9
:100AA00006508DF80740402100916946304602F01B
:100AB00089FD7CBD000002402DE9F05F2DED028B29
:100AC0000024DFF8FCA09AF840900021084604F0CA
:100AD00071FE2146002001F0E3FA9FED3A8A3A4D7B
:100AE0003A4E66E0012005F059FB0DF053FF95EDFD
:100AF000000A374FBCEEC00A87ED000A04F0B2FDD1
:100B0000DFF8D08009E004F0ADFD0DF043FF95ED76
:100B1000000ABCEEC00A87ED000A98F80000002821
:100B2000F1D105F03BFB0EF0C5F82B4F2B4997EDAB
:100B3000000ABCEEC00A10EE100A086004F092FD34
:100B400097ED000A4FF0964110EE100A884205DD3D
:100B500038EE400AB1EE400A87ED000A95ED000A32
:100B600010EE100A884205DD38EE400AB1EE400A68
:100B700085ED000A95ED000A0AEB840080ED460A37
:100B8000022C04D297ED000A80ED4D0AA346594687
:100B9000204604F00FFE2146002001F081FA062CC9
:100BA00005D3062030708AF8409005F05FFE641C83
:100BB000E4B23078112895D0BDEC028BBDE8F09FEF
:100BC00064060020FFFF7F4B400000202A00002029
:100BD00048000020390000203C0000204C0000208C
:100BE00010B54FF48061094802F041FD4FF4005107
:100BF000074802F03CFD0421064802F038FDBDE83C
:100C000010400121044802F032BD0000001C0240E7
:100C100000080240001002400000024030B587B0DA
:100C2000054628784C4C04F8280C687804F8270C02
:100C3000A87804F8260CE91C684605F02BFE9DF800
:100C4000000004F8240C019844F8200C029844F8A1
:100C50001C0C039844F8180C049844F8140C0598DC
:100C600044F8100C069844F80C0C687A04F8080C48
:100C7000687A04F8080C05F10A01684605F00AFED6
:100C80009DF8000004F8040C019820600298606050
:100C90000398A0600498E060059820610698606160
:100CA000287C2076687CA07605F11201684605F064
:100CB000F1FD9DF8000020770198206202986062A3
:100CC0000398A0620498E062059820630698606328
:100CD00005F11801684605F0DDFD9DF8000084F877
:100CE00038000198E06302982064039860640498D7
:100CF000A0640598E0640698206505F11E01684629
:100D000005F0C8FD9DF8000084F854000198A06526
:100D10000298E06503982066049860660598A066CE
:100D20000698E06605F12401684605F0B3FD9DF8DC
:100D3000000084F87000019860670298A06703982B
:100D4000E0670498C4F880000598C4F88400069809
:100D5000C4F8880007B030BD8C06002010B5012112
:100D6000CC05204604F008F82046BDE810400021DC
:100D700004F002B801460020024A52680A4200D03C
:100D80000120704700B0024030B500242A4B19689A
:100D90002A4A114019601968026811431960596B99
:100DA00021F007015963596B426811435963416847
:100DB000002928D001292DD0022930D0032933D091
:100DC000C1680A0101690902446924038568214355
:100DD00015430D43996B0D439D638169D963196C6C
:100DE0006FF30D011964196CC26911431964818C88
:100DF00009045A6C02F040425A645A6C006A024379
:100E00000A435A6430BDC1680A02018A0904047D9C
:100E10002406DBE7C1680A02018A0904D6E7C16833
:100E20004A010169C902D1E7C1684A010169890221
:100E30004469E403CAE7000000B00240FCE0FCFFA4
:100E40000248016841F001010160704700B00240B2
:100E50000CB5094B1B788DF8063000910749895C69
:100E60008DF8041005490B31895C8DF80510DDE91A
:100E7000001206C00CBD000027000020C5FA0008C3
:100E8000704710B590B0044602F040F901222146A7
:100E900001A800F047FE9DF804008DF82400029898
:100EA0000A9003980B9004980C9005980D90069862
:100EB0000E9007980F9009A800F07AF8089008980B
:100EC00010B010BD10B590B0044602F037F9002202
:100ED000214601A800F026FE9DF804008DF82400AC
:100EE00002980A9003980B9004980C9005980D9026
:100EF00006980E9007980F9009A800F059F80890EE
:100F0000089810B010BD000070B586B00121022015
:100F100003F024FF0121880403F04AFF224E072238
:100F20000B21304602F08CFB07220A21304602F0EA
:100F300087FB00248DF8164001208DF8170002254C
:100F40008DF81450810204918DF8155004A9304693
:100F500002F038FB8DF81450A802049004A9304622
:100F600002F030FB4FF4E1300090ADF80440ADF8F2
:100F70000640ADF80840ADF80C400C20ADF80A0072
:100F80000A4C6946204607F02FF803F0E5FB0122E2
:100F900040F22551204607F00CF80121204606F0CA
:100FA000F5FF06B070BD000000040240004800409C
:100FB000416842F21072914204D941680A22B1FBA1
:100FC000F2F141604068704738B5002000901D493B
:100FD0001D4842F210734EF660242EE09DF800206A
:100FE00000EBC202D2F8B4209DF8005001EBC50519
:100FF0006D68AA420CD89DF8002000EBC202D2F81E
:10100000B4209DF8005001EBC5056D68AA4210D2CE
:101010009DF80020072A06D29DF8002000EBC202AE
:10102000C2F8B43005E09DF8002000EBC202C2F81F
:10103000B4409DF80020521C00929DF80020092A1F
:10104000CCD338BD7C000020640600202DE9FC5F75
:101050000546012D0AD000200090FE4C00984FF06C
:10106000501A4FF47F0618B1666003E00120F3E7E1
:10107000C4F804A0DFF8E09399F8000108B1F74F35
:1010800001E0F64F0E3F122368221A21582002F089
:1010900041FE99F800000023C0EBC000C2191A21DC
:1010A00058200AF0B1FB022D05D0002000900098D6
:1010B00018B1666003E00120F8E7C4F804A099F8CD
:1010C000000110B1E54F2A3701E0E44F0E3712233B
:1010D00068222E21582002F01DFE99F801000023FD
:1010E000C0EBC000C219302158200AF08DFB032D3F
:1010F00006D000200090DA4F009818B1666002E038
:101100000120F7E7676099F8000120B1DFF84C8310
:1011100008F1540803E0DFF8448308F1460812237D
:1011200068225C21582002F0F5FD99F802000023A6
:10113000C0EBC00000EB08025C2158200AF064FB01
:10114000042D05D000200090009818B1666002E0E0
:101150000120F8E76760D9F80C00C1B2D9F808009F
:101160000023052202F01AFB12237A227021582054
:1011700002F0D0FD0023BB4A722158200AF044FB44
:10118000D9F81000DFF8E0B200230BEB80027221E7
:1011900094200AF039FB052D05D00020009000981E
:1011A00018B1666002E00120F8E7676099F8000175
:1011B00020B1DFF8A88208F1540803E0DFF89C8230
:1011C00008F14608122368229E21582002F0A2FD51
:1011D00099F820000023C0EBC00000EB0802A0211A
:1011E00058200AF011FB062D05D000200090009831
:1011F00018B1666002E00120F8E76760D9F82C00BA
:10120000C1B2D9F828000023062202F0C7FA12233F
:101210007A22B221582002F07DFD0023914AB421A8
:1012200058200AF0F1FA002390A2B421A0200AF07D
:10123000EBFA072D05D000200090009818B16660E9
:1012400003E00120F8E7C4F804A099F8000120B1F8
:10125000DFF81482A8F1580803E0DFF8008208F1F3
:101260008C081223682218214FF4A97002F052FD55
:1012700099F84100B0B199F840000023401C00EB00
:10128000400101EBC00000EB08021A214FF4A970E5
:101290000AF0BAFA082D0DD000200090009858B13D
:1012A00066600BE0002342461A214FF4A9700AF051
:1012B000ABFAEFE70120F0E7C4F804A099F80001C9
:1012C00020B1DFF8988108F1770803E0DFF88C811E
:1012D00008F162084FF4A97A122368222E215046A1
:1012E00002F018FD99F842000023C0EBC00000EBAB
:1012F0000802302150460AF087FA092D05D0002057
:101300000090009818B1666002E00120F8E767607D
:10131000D9F84C00C1B2D9F848000023052202F0E8
:101320003DFA12237A225C21504602F0F3FC00239E
:101330004C4A5C2150460AF067FAD9F850004FF445
:10134000C7780BEB800200235E2140460AF05CFA6E
:101350000A2D05D000200090009818B1666002E0C8
:101360000120F8E76760D9F86800C1B2D9F86400D5
:101370000023052202F012FA12237A22702150462D
:1013800002F0C8FC0023374A722150460AF03CFAAA
:10139000D9F86C0000230BEB8002722140460AF062
:1013A00033FA0B2D05D000200090009818B166602C
:1013B00002E00120F8E76760D9F88400C1B2D9F8EB
:1013C00080000023062202F0E9F912237A229C21F0
:1013D000504602F09FFC0023224A9E2150460AF00C
:1013E00013FA4FF4CD78002320A29E2140460AF044
:1013F0000BFA0C2D05D000200090009818B1666003
:1014000002E00120F8E76760D9F8A000C1B2D9F87E
:101410009C000023062202F0C1F912237A22B22195
:10142000504602F077FC00230E4AB42150460AF0E1
:10143000EBF900230DA2B42140460AF0E5F900F0D3
:101440001DFB00200A4A54266FF07F410D2D3ED22D
:1014500010E000000C01002064060020E2F6000805
:1014600065343400630000201EF800082056000098
:1014700038003100DFE805F0070C2D4E6F8FB0D03B
:10148000F6F4F3F2F100BDE8FC5F002000F096B93D
:101490002160626099F8001109B1C34C01E0C24CAF
:1014A0000E3C019010E001980023C0EBC00002192F
:1014B0000198F12100EB800006EB001080B20AF0E9
:1014C000A3F90198401C019001980228EBD3BDE8D4
:1014D000FC9F2160626099F8001111B1B24C2A346E
:1014E00001E0B14C0E34019010E001980023C0EBF4
:1014F000C00002190198F12100EB800006EB0010FA
:1015000080B20AF081F90198401C019001980428EA
:10151000EBD3DCE72160626099F8001111B1A24CB5
:10152000543401E0A04C4634019010E001980023AF
:10153000C0EBC00002190198F12100EB800006EB1E
:10154000001080B20AF060F90198401C01900198E7
:101550000228EBD3BBE72160626099F8001109B162
:10156000924C01E0914CE41F019010E0019800239F
:10157000C0EBC00002190198F12100EB800006EBDE
:10158000001080B20AF040F90198401C01900198C7
:101590000028EBD09BE72160626099F8001111B13F
:1015A000814C543401E0804C4634019010E00198A5
:1015B0000023C0EBC00002190198F12100EB80006C
:1015C00006EB001080B20AF01FF90198401C019050
:1015D00001980228EBD37AE72160626099F8001144
:1015E00009B1724C01E0714CE41F019010E00198C8
:1015F0000023C0EBC00002190198F12100EB80002C
:1016000006EB001080B20AF0FFF80198401C019030
:1016100001980028EBD05AE72160626099F8001128
:1016200009B1634C00E0624C019012E00198002384
:1016300000EB400101EBC00002190198F12100EB21
:10164000800006EB001080B20AF0DEF80198401C22
:10165000019001980528E9D339E784E063E042E08E
:1016600021E0FFE72160626099F8001111B14E4C52
:10167000773401E04C4C6234019010E00198002373
:10168000C0EBC00002190198F12100EB800006EBCD
:10169000001080B20AF0B8F80198401C019001983F
:1016A0000328EBD313E72160626099F8001109B1B8
:1016B0003E4C01E03D4CE41F019010E001980023F6
:1016C000C0EBC00002190198F12100EB800006EB8D
:1016D000001080B20AF098F80198401C019001981F
:1016E0000028EBD0F3E62160626099F8001109B19F
:1016F0002E4C01E02D4CE41F019010E001980023D6
:10170000C0EBC00002190198F12100EB800006EB4C
:10171000001080B20AF078F80198401C01900198FE
:101720000028EBD0D3E62160626099F8001109B17E
:101730001E4C01E01D4CE41F019010E001980023B5
:10174000C0EBC00002190198F12100EB800006EB0C
:10175000001080B20AF058F80198401C01900198DE
:101760000028EBD0B3E62160626099F8001109B15E
:101770000E4C01E00D4CE41F019010E00198002395
:10178000C0EBC00002190198F12100EB800006EBCC
:10179000001080B20AF038F80198401C01900198BE
:1017A0000028EBD093E60000E2F600086DF2000896
:1017B0002AF80008002000F001B8000010B5044627
:1017C00000F05CF9504851496FF07F425CB3012C46
:1017D0007ED10260416000234DA2E72154200AF02F
:1017E00013F800234CA2FB2154200AF00DF800232B
:1017F0004BA2E721A4200AF007F800234AA2FB210C
:10180000A4200AF001F84FF4CA74002348A2E7218B
:10181000204609F0F9FF20460023BDE8104046A20B
:10182000FB2109F0F1BF02604160454890F80011CA
:101830004FF4A274002931D0002342A2E7215420A2
:1018400009F0E2FF002341A2FB21542009F0DCFF54
:1018500000233CA2E721A42009F0D6FF00233DA2EB
:10186000FB21A42009F0D0FF00233CA2E721F420B3
:1018700009F0CAFF002337A2FB21F42009F0C4FFBE
:10188000002338A2E721204609F0BEFF20460023AE
:10189000BDE8104034A2FB2109F0B6BF002334A2FA
:1018A000E721542009F0B0FF002333A2FB2154208C
:1018B00009F0AAFF00232EA2E721A42009F0A4FF2B
:1018C00000232FA2FB21A42009F09EFF002300E0AB
:1018D00018E02DA2E721F42009F096FF002328A2AA
:1018E000FB21F42009F090FF002327A2E7212046E6
:1018F00009F08AFF20460023BDE8104024A2FB2106
:1019000009F082BF10BD00000C010020380031003A
:10191000CEC4BCFE00000000B9DCC0ED0000000039
:10192000B1A3B4E600000000CAFDBEDD0000000067
:10193000B8FCB6E00000000020322F3200000000AA
:10194000640600204D4541530000000044495350B7
:1019500000000000534554555000000020535953D7
:101960000000000053595300494E464F000000004C
:10197000B2E2C1BF00000000CFD4CABE0000000028
:10198000C9E8D6C300000000CFB5CDB30000000009
:10199000D0C5CFA2000000000FB410B59DF808001C
:1019A000002812D09DF80800072807D99DF81010CC
:1019B00000230622039801F0F1FE06E09DF81810BE
:1019C00000230722059801F0E9FE9DF808001A217E
:1019D00010BC00EB800001EB80010123034A4FF4AF
:1019E000A0705DF814EB09F00FBF00006300002049
:1019F00071B581B0002000901D4C4FF0501532E0C1
:101A00009DF804100098401C814203D14FF47F01DF
:101A1000616000E0656000EB80001A2606EB800044
:101A200081B214235A22A02002F074F911480099BF
:101A3000415C1148009A00EBC200D0F8B4000023CA
:101A4000062201F0ABFE00980A4A401C00EB800021
:101A500006EB800081B20123813AA02009F0D4FE78
:101A60000098401C009000980928C9D365607CBD8F
:101A70000C010020E4000020640600202DE9F05F46
:101A80000024DFF878801E4EDFF878A000274FF0A2
:101A90004C094FF0010BC6F8048004EB4401A00090
:101AA00001EB041100EB810080B22B234C22E421D6
:101AB00002F030F9C6F804A004EB84050BEB051026
:101AC00080B201234C22E32102F024F909EB051036
:101AD00080B22C230122E32102F01CF977604D2013
:101AE00000EB051080B22C230322E32102F012F94F
:101AF000641C062CCFD3BDE8F09F000038003100F5
:101B00000C010020684369000549044848606E23C1
:101B10005C2140F2DF12002002F0FCB86534340092
:101B20000C0100202DE9F04F93B080460E460120B5
:101B300012900C9000270B970A9709970897039724
:101B40000297049702970D974FF0200A0FAD07E018
:101B50009DF8340005F800A09DF83400401C0D905D
:101B60009DF834000728F3D38DF843700AB1072499
:101B700000E00624DFF8E0B34FF02E0975E1022003
:101B800001F0BCFF0E909DF83800002846D00121DE
:101B90000C919DF838001228F8D00CDC12283DD2A8
:101BA000DFE800F03C3C3C7EEEE1D43C3C5A3C7823
:101BB000C7BAAD3C3C3D1A28E8D009DCA0F11300BF
:101BC0000728ECD2DFE800F02A8E81722A2A0E0064
:101BD0001E2878D022DC1B28D8D01C2874D01D28C1
:101BE0001CD1E7E0049712979DF82000A04214D280
:101BF0009DF82C0088B99DF8200050B19DF8200078
:101C000005F800909DF820000A909DF82000401CE7
:101C100008909DF82C00401C0B9005910CE104915C
:101C200012979DF82000A04214D29DF82C0088B98C
:101C30009DF8200050B19DF8200005F800909DF817
:101C400020000A909DF82000401C08909DF82C0070
:101C5000401C0B900591EFE00220049012979DF834
:101C60002000A04214D29DF82C0088B99DF82000D5
:101C700050B19DF8200005F800909DF820000A90D2
:101C80009DF82000401C08909DF82C00401C0B90F3
:101C90000591D1E006208BF8000012970597CBE064
:101CA0001297059712208BF80000C5E09DF82000E0
:101CB000A04207D29DF82010312068549DF82000E2
:101CC000401C0890B8E068E091E09DF82000A04238
:101CD00007D29DF82010322068549DF82000401C47
:101CE0000890A9E09DF82000A04207D29DF820109E
:101CF000332068549DF82000401C08909CE09DF81B
:101D00002000A04207D29DF82010342068549DF88E
:101D10002000401C08908FE09DF82000A04207D2D0
:101D20009DF82010352068549DF82000401C089034
:101D300082E09DF82000A0427ED29DF8201036203F
:101D400068549DF82000401C089075E09DF8200024
:101D5000A04271D29DF82010372068549DF82000D1
:101D6000401C089068E09DF82000A04264D29DF8D5
:101D70002010382068549DF82000401C08905BE03B
:101D80009DF82000A04257D29DF8201039206854B9
:101D90009DF82000401C08904EE09DF82000A042D5
:101DA0004AD29DF82010302068549DF82000401C35
:101DB000089041E09DF82000A0423DD29DF820000F
:101DC00040B39DF82C0028BB9DF8200050B19DF831
:101DD000200005F800909DF820000A909DF8200052
:101DE000401C08909DF82C00401C0B9024E09DF8AE
:101DF000200080B19DF82000401E08909DF8200032
:101E000005F800A09DF828009DF82010884213D105
:101E10000B970A9710E09DF82000285C78B39DF896
:101E20002000285C2D2830D09DF820102D206854EB
:101E30009DF82000401C08909DF83000A8B10C9738
:101E400046486FF07F4101604FF47F014160B088E8
:101E50007188103082B23088102301F05BFF7188E6
:101E6000308800230FAA09F0CFFC9DF84800002815
:101E70007FF485AE9DF820000D90302011E0FFE743
:101E80009DF820102D206854D2E79DF820102B20BB
:101E90006854CDE79DF8341068549DF83410491CFF
:101EA0000D919DF83410A142F4D30D9734E09DF8C4
:101EB0003C0030282CD39DF83C00392828D89DF8C8
:101EC0003400285C302823D39DF83400285C39285E
:101ED0001ED89DF828009DF8341088420CD902982D
:101EE00000EB80004000029002989DF83410695C7D
:101EF0000844303802900BE0029800EB800040006C
:101F0000029002989DF83410695C084430380290C1
:101F10009DF83400401C0D909DF83400A042C6D3BB
:101F20009DF8280003909DF8040088F800000298AE
:101F3000C8F804000398C8F808000498C8F80C0012
:101F40000598C8F810000698C8F814000798C8F853
:101F5000180013B0BDE8F08F2A0000200C0100200B
:101F6000F8B5254E756825487060254C60780328C3
:101F70001BD0607860B1012322A26C21302009F0CF
:101F800093FC01231FA2A321302009F08DFC18E04F
:101F900000231CA25C21202009F086FC002319A24A
:101FA0009321202009F080FC0BE0002315A27C2166
:101FB000402009F029FC002312A2B321402009F09F
:101FC00023FCFEF70DFE16233C22B4214FF4C8700B
:101FD00001F0A0FE0E480090372328225C214FF428
:101FE000967002F037FA756094F841000949097853
:101FF000BDE8F84000F054B80C010020653434000E
:10200000640600202D2D2D2D2D2D2D2D00000000DE
:102010005C2E07082C00002008B5114841794FF4C8
:10202000967000290BD0012911D0022906D10D4943
:102030000091372328225C2102F00CFA08BD0A49DE
:102040000091372328225C2102F004FA08BD0749D9
:102050000091372328225C2102F0FCF908BD000022
:102060006C0000205C2E070895310708F43607083D
:1020700018B509484FF4AA740090372328225C2130
:10208000204602F0E7F905490091372328229321E1
:10209000204602F0DFF918BDCE340708533C07088C
:1020A000012800D90120062900D906210A4B4FF04A
:1020B00050125A60C0EBC000084A00EB400002EB2F
:1020C000800001EB410100EB81020023D2214FF49B
:1020D000BE7009F099BB00000C01002011FA000845
:1020E00030B595B004460D4601F010F8012229469E
:1020F0006846FFF717FD9DF800008DF8380001983D
:102100000F900298109003981190049812900598DF
:102110001390069814900EA9684601F0A5FB9DF84F
:1021200000008DF81C00019808900298099003980F
:102130000A9004980B9005980C9006980D900B98B7
:1021400018B90020099008900A909DF81C00207092
:10215000089860600998A0600A98E0600B98206178
:102160000C9860610D98A06115B030BD30B595B088
:1021700004460D4600F0E2FF002229466846FFF7BC
:10218000D1FC9DF800008DF8380001980F9002985E
:102190001090039811900498129005981390069847
:1021A00014900EA9684605F06FFD9DF800008DF8AB
:1021B0001C00019808900298099003980A900498CE
:1021C0000B9005980C9006980D900B9818B900206C
:1021D000099008900A909DF81C0020700898606093
:1021E0000998A0600A98E0600B9820610C986061E3
:1021F0000D98A06115B030BD70B500F0A3F81F4C6C
:102200006FF07F4525601E4860601E4E96F8000105
:1022100008B11D4A01E01C4AF23A0023DC320421D5
:10222000184609F0F1FA25604FF05010606096F8FA
:10223000000108B1154D01E0144D543D00241A264B
:10224000C4EBC40000EB4000421904EB440000EB77
:10225000C40006EB400081B20023184609F0D4FA0E
:10226000641C042CECD30023094A5C21522009F0A1
:10227000CBFABDE87040FFF79DBA00000C010020CA
:102280000352F300640600207AF40008BDF9000848
:10229000A007002070B500241825601C00EB400149
:1022A00001EBC00005EB400081B2012364225A20FB
:1022B00001F030FD641C072CEFD370BD2DE9F04117
:1022C00000F040F81A4E6FF07F4737601948706091
:1022D000194C94F8000108B1184A01E0174AF23A83
:1022E0000023B0320421184609F08EFA37604FF00F
:1022F0005010706094F8000108B1114D01E0104DCC
:10230000583D00244FF01A0804EB440000EBC400D1
:10231000421908EB400081B20023184609F074FA14
:10232000641C082CF0D37760BDE8F041FFF7B2BF22
:102330000C0100200352F300640600207AF4000828
:10234000B9F8000810B500F061FEBDE81040FFF7D5
:1023500095BB00002DE9FF5F044600278DF807704C
:10236000012C0AD000200290FA4D02984FF47F060B
:102370004FF0501B18B16E6003E00120F3E7C5F881
:1023800004B0DFF8D48398F8000110B1DFF8CC93E3
:1023900003E0DFF8C893A9F10E09122366221A217F
:1023A0005A2001F0B7FC98F8FC000023C0EBC000F5
:1023B00000EB09021C215A2009F026FA022C05D054
:1023C00000200290029818B16E6003E00120F8E747
:1023D000C5F804B01223662230215A2001F09AFC7D
:1023E00098F8FD00DFF87893C0EBC00000EB09021D
:1023F000002332215A2009F007FA032C05D00020CF
:102400000290029818B16E6003E00120F8E7C5F869
:1024100004B098F8000110B1DFF840A303E0DFF842
:102420003CA3AAF10E0A1223662246215A2001F08B
:1024300071FC98F8FE000023C0EBC00000EB0A021C
:1024400048215A2009F0E0F9042C05D00020029020
:10245000029818B16E6003E00120F8E7C5F804B0F7
:1024600098F8000110B1DFF8F4A203E0DFF8ECA265
:10247000AAF10E0A122366225C215A2001F04AFCBE
:1024800098F8FF000023C0EBC00000EB0A025E21B9
:102490005A2009F0B9F9052C05D0002002900298C5
:1024A00018B16E6003E00120F8E7C5F804B012230C
:1024B000662272215A2001F02DFC98F80001DFF805
:1024C000A0A200230AF1380A0AEBC00274215A20A4
:1024D00009F09AF901A9002002F000FE69460020E7
:1024E00002F0CAFD062C05D000200290029818B117
:1024F0006E6003E00120F8E7C5F804B012231A4625
:1025000088215A2001F006FC9DF8032095A19648E9
:1025100009F01CFA0023944A8A215A2009F074F920
:10252000C5F804B0002391A28A216E2009F06CF94D
:10253000072C05D000200290029818B16E6003E0CD
:102540000120F8E7C5F804B012231A468821782044
:1025500001F0E0FB9DF8012082A1834809F0F6F923
:102560000023814A8A21782009F04EF9C5F804B089
:1025700000237EA28A218C2009F046F9082C05D080
:1025800000200290029818B16E6003E00120F8E785
:10259000C5F804B012231A468821982001F0BAFB2E
:1025A0009DF802206FA1704809F0D0F900236E4A0F
:1025B0008A21982009F028F9092C05D000200290E2
:1025C000029818B16E6003E00120F8E7C5F804B086
:1025D00012231A469E215A2001F09CFB9DF80420EC
:1025E00060A1614809F0B2F900235F4AA0215A2096
:1025F00009F00AF9C5F804B000235DA2A0216E20FD
:1026000009F002F90A2C05D000200290029818B1B6
:102610006E6003E00120F8E7C5F804B012231A4603
:102620009E21782001F076FB9DF805204DA14E48B3
:1026300009F08CF900234C4AA021782009F0E4F835
:10264000C5F804B000234AA2A0218C2009F0DCF8D0
:102650000B2C05D000200290029818B16E6003E0A8
:102660000120F8E7C5F804B012231A469E219820ED
:1026700001F050FB9DF806203AA13B4809F066F9AD
:102680000023394AA021982009F0BEF80C2C05D06F
:1026900000200290029818B16E6003E00120F8E774
:1026A000C5F804B012236622B4215A2001F032FB8F
:1026B0000023304AB6215A2009F0A6F8FFF7DEF9C8
:1026C0006FF07F4028602C48686054250C2C09D29C
:1026D000DFE804F0060A28547290A5A5A5A5A5A5D3
:1026E000FFF768F8BDE8FF9F98F8000108B11B4CA0
:1026F00001E01A4C0E3C039710E003980023C0EB56
:10270000C00002190398F12100EB800005EB0010D6
:1027100080B209F079F80398401C039003980228CE
:10272000EBD3DFE7039711E003980023C0EBC00071
:1027300000EB09020398F12100EB800005EB00108B
:1027400080B209F061F80398401C039003980528B3
:10275000EAD3C7E70C0100206406002036F7000822
:1027600011F9000825326400630000202D000000EC
:102770003A000000650700203800310098F8000199
:1027800008B1324C01E0314C0E3C039710E0039845
:102790000023C0EBC00002190398F12100EB800078
:1027A00005EB001080B209F02FF80398401C03904D
:1027B00003980228EBD395E798F8000108B1234C61
:1027C00001E0224C0E3C039710E003980023C0EB7D
:1027D000C00002190398F12100EB800005EB001006
:1027E00080B209F011F80398401C03900398022866
:1027F000EBD377E703970EE0039800230AEBC002C0
:1028000000EB800005EB001080B2F12108F0FCFF26
:102810000398401C039003980228EDD362E70397C6
:102820000B4C0EE00398002304EBC00200EB800089
:1028300005EB001080B2F12108F0E6FF0398401C80
:10284000039003980228EDD34CE7000036F7000808
:1028500059F9000810B500F0D9FBFFF70FF9BDE8F2
:102860001040FFF751B910B500F0D0FBFFF706F9A3
:10287000BDE81040AFF30080FFF746B970B5FFF731
:10288000E9FF254C6FF07F45256024486060244EA9
:1028900096F8000108B1234A01E0224AF23A0023E7
:1028A0000421184608F0B0FF25604FF0501060601A
:1028B00096F8000108B11C4D01E01B4D3C3D002481
:1028C0001A26032C0FD204EB840005EB400204EB24
:1028D000440000EBC40006EB400081B20023184620
:1028E00008F092FF0FE004EB840005EB4002E01ECD
:1028F00000EB400101EBC00006EB400081B2002379
:10290000FA2008F081FF641C062CDAD3BDE8704081
:102910000020FEF753BF00000C0100200352F3001B
:10292000640600207AF400084CF300082DE9F04713
:10293000FFF799FF2E4E6FF07F4434602D48706092
:102940002D4D95F8000108B12C4A01E02B4AF23ACE
:10295000002358320421184608F056FF34604FF027
:102960005017776095F8000108B1254D01E0244D1E
:10297000B43D0024DFF88C804FF01A09092C16D2E0
:10298000E01E052802D2C6F8048000E0776004EB60
:10299000840005EB400204EB440000EBC40009EBAB
:1029A000400081B20023184608F02EFF18E0A4F181
:1029B0000C00052802D2C6F8048000E0776004EB22
:1029C000840005EB4002A4F1090000EB400101EB9B
:1029D000C00009EB400081B20023FA2008F014FF88
:1029E000641C122CCAD3BDE8F0470020FEF7E6BEF7
:1029F0000C0100200352F300640600207AF4000862
:102A000020F60008653434002DE9FC5F0546DFF848
:102A1000C08398F80001002802D0DFF8B8A303E0D3
:102A2000DFF8B0A3AAF10E0A012D0AD00020009011
:102A3000E94C00984FF47F064FF0501918B16660CA
:102A400003E00120F3E7C4F8049014235C2218216A
:102A5000582001F05FF96FF07F47276098F8000079
:102A60000023C0EBC00000EB0A021A21582008F036
:102A7000CBFE022D05D000200090009818B16660B2
:102A800003E00120F8E7C4F80490D8F86800C1B268
:102A9000D8F864000023052200F080FE14235C2295
:102AA0003021582001F036F90023CC4A302158203B
:102AB00008F0AAFED8F86C00DFF824A300230AEB84
:102AC00080023021942008F09FFE032D05D00020C5
:102AD0000090009818B1666003E00120F8E7C4F8A0
:102AE0000490D8F80C00C1B2D8F8080000230522E1
:102AF00000F054FE14235C224621582001F00AF90C
:102B00000023B64A4621582008F07EFED8F810006F
:102B100000230AEB80024621942008F075FE042D64
:102B200005D000200090009818B1666003E00120F5
:102B3000F8E7C4F8049098F8000120B1DFF8A0A2EB
:102B4000AAF1580A03E0DFF88CA20AF18C0A4FF4CC
:102B5000A97B142368221821584601F0DBF898F865
:102B60004100A8B198F840000023401C00EB400150
:102B700001EBC00000EB0A021A21584608F044FE9F
:102B8000052D0CD000200090009850B166600AE03E
:102B9000002352461A21584608F036FEF0E701207D
:102BA000F1E7C4F80490D8F8A000C1B2D8F89C00AE
:102BB0000023062200F0F2FDDA46142368222E21BB
:102BC000504601F0A7F80023844A3021504608F00F
:102BD0001BFE4FF4CD7B002382A23021584608F023
:102BE00013FE062D05D000200090009818B16660F5
:102BF00003E00120F8E7C4F80490D8F82C00C1B233
:102C0000D8F828000023062200F0C8FD142368220B
:102C10004421504601F07EF80023704A4621504678
:102C200008F0F2FD00236FA24621584608F0ECFDA3
:102C3000FEF724FF00206C495426072D29D2DFE837
:102C400005F004092A4A6A87A700BDE8FC5F002056
:102C5000FEF7B4BD2760616098F8001109B15D4CC2
:102C600001E05C4C0E3C019010E001980023C0EBA9
:102C7000C00002190198F12100EB800006EB001062
:102C800080B208F0C1FD0198401C01900198022813
:102C9000EBD3BDE8FC9F2760616098F8001109B193
:102CA000524C01E0514CE41F019010E001980023C8
:102CB000C0EBC00002190198F12100EB800006EB87
:102CC000001080B208F0A0FD0198401C019001980E
:102CD0000028EBD0DDE72760616098F8001109B1AA
:102CE000424C01E0414CE41F019010E001980023A8
:102CF000C0EBC00002190198F12100EB800006EB47
:102D0000001080B208F080FD0198401C01900198ED
:102D10000028EBD0BDE7276061600190304C0C3497
:102D200012E00198002300EB400101EBC000021902
:102D30000198F12100EB800006EB001080B208F052
:102D400063FD0198401C019001980428E9D3A0E795
:102D50002760616098F8001109B1244C01E0234C10
:102D6000E41F019010E001980023C0EBC00002199D
:102D70000198F12100EB800006EB001080B208F012
:102D800043FD0198401C019001980028EBD080E79A
:102D90002760616098F8001109B1144C01E0134CF0
:102DA000E41F019010E001980023C0EBC00002195D
:102DB0000198F12100EB800006EB001080B208F0D2
:102DC00023FD0198401C019001980028EBD060E79A
:102DD00064060020E2F600080C01002063000020D9
:102DE0001EF8000820560000380031006DF200087F
:102DF0002DE9FF5F009800217C4C00226254491CA1
:102E0000C9B20929FAD348F6B8012D27884206D954
:102E100000202754401CC0B20628FAD305E09DF8D4
:102E200004100023052200F0B9FCDFF8C081704EC9
:102E3000A8F10708D8F80700C6F80300B8F80B1087
:102E4000A6F807106B4D6861298308F1100A6A49DA
:102E50009AF8050001EB8000018869838078287763
:102E60004FF0090B85F81DB04FF0200984F806904B
:102E7000624C61789DF8060003292BD0617839B146
:102E8000D8B101235EA26C21302008F00DFD1AE0BC
:102E900030B100235AA25C21202008F005FD05E096
:102EA000002358A25C21202008F0FEFC00234F4A9A
:102EB0005C21402008F0F8FC20E0012351A26C21A5
:102EC000302008F0F1FC0123484A6C21402008F032
:102ED000EBFC13E030B1002349A27C21402008F034
:102EE00093FC05E0002347A27C21402008F08CFCE5
:102EF00000233E4A7C214A2008F086FC9DF80C10F5
:102F000000230622029800F049FCD8F80710C6F802
:102F10000B10B8F80B00A6F80F0098F80D2072748B
:102F200045F81F1FA880AA715620E87185F808B0DF
:102F300035A00088E8811F3D60789DF80E80032849
:102F40002FD0607848B1B8F1000F1DD001232CA21A
:102F5000A321302008F0A8FC1CE0B8F1000F06D037
:102F6000002327A29321202008F09EFC05E00023E7
:102F700024A29321202008F097FC00231B4A9321D0
:102F8000402008F091FC22E001231EA2A321302062
:102F900008F08AFC0123154AA321402008F084FC94
:102FA00015E0B8F1000F06D0002315A2B321402090
:102FB00008F02AFC05E0002312A2B321402008F00B
:102FC00023FC0023094AB3214A2008F01DFCB8F174
:102FD000000F04D086F80A9085F81E9001E0B772C1
:102FE000AF779AF805007072BDE8FF9F630000207C
:102FF000D4050020E90500201EF800086406002022
:10300000200000002D0000000D0A000005490448C2
:1030100048601623AA220021084600F07BBE00006B
:103020000352F3000C01002038B50E4C25680E4900
:10303000616001280FD04FF47F0102280FD021607A
:103040000A48009018233022F1214FF4CA7001F091
:1030500001FA256038BD4FF47F402060F0E7216021
:10306000EEE700000C01002038003100EA4E0708AE
:1030700070B500F043F81D4C6FF07F4525601C488B
:10308000606000231B4A0421184608F0BDFB256040
:103090004FF0501060600024174D4FF6FF7604EBA0
:1030A000840000EBC400421904EB840006EA4010DF
:1030B00000231A2108F0A8FB641C032CEFD3002482
:1030C0000D4E1A25273604EB840000EBC40082194C
:1030D000601C00EB800005EB800081B200231846E5
:1030E00008F092FB641C092CEDD370BD0C0100208C
:1030F0000352F300F6F3000874F2000810B5FFF76E
:1031000085FFBDE81040FEF7B9BC000010B5FEF722
:10311000B5FC0848064941606FF07F41016000231B
:10312000F121BDE8104004A2542008F06DBB00005E
:10313000380031000C0100202056200010B5FEF7A9
:103140009DFC0E480C4941606FF07F4101600023F7
:103150000BA2F121542008F057FB00230AA2F12111
:10316000A42008F051FB0023F121BDE8104008A283
:10317000F42008F049BB0000380031000C010020A9
:10318000206DA6B82020000020A6B8200000000076
:103190006BA6B8200000000000B58FB00EA900207B
:1031A00001F09CFF0DA9002001F066FF9DF836306C
:1031B0009DF83A009DF839109DF83820CDE90210AD
:1031C000CDE900329DF835309DF837200BA105A8D8
:1031D00008F0BCFB13494FF050104860002305AACB
:1031E0000421FA2008F010FB132205A90E48FCF771
:1031F000F9FF0D490920C8740FB000BD32302530E9
:103200002E32642D25302E32642D25302E3264204E
:1032100025302E32643A25302E32643A25302E3253
:10322000640000000C010020E905002010B5082012
:1032300000F036F800281FD0104809F078FE082169
:103240000F4800F00DFA90B90E48002101700E48A9
:103250000E4A012304781CB101700F20107002E0A7
:103260000370022010700A494FF400700860BDE836
:103270001040082000F00EB810BD0000A08601002C
:103280000010024056000020330000202A000020D9
:1032900080E100E00149086070470000143C0140F3
:1032A00001460020024A12680A4200D001207047FD
:1032B000143C014030B51B4A83790168002B2AD0A9
:1032C00013688B431360111D0B680468A3430B60E4
:1032D000017911440B68046823430B60114C0834D6
:1032E0002168036899432160231D19680568A94373
:1032F00019604179102905D011440A680068024319
:103300000A6030BD216802681143216019680068B5
:103310000143196030BD0079104402688A4302609D
:1033200030BD0000003C01402DE9FF41012110208B
:1033300001F014FD0121880301F048FD01F020FA9D
:103340000826029600248DF80C4001258DF80F50B8
:1033500002A9144800F036F90321042002F008FF06
:1033600000968DF804400C268DF805608DF8065007
:103370006846FFF79FFF6F03029702A90A4800F013
:1033800021F90D21022002F0F3FE00978DF8044090
:103390008DF805608DF806506846FFF78BFFBDE895
:1033A000FF810000001002400008024000224FF0A0
:1033B000204310280AD0B0F5807F09D0B0F5805F97
:1033C00009D0D3F85801814309D107E0586EFAE7D4
:1033D000D3F88400F7E7D3F8A400F4E701221046FD
:1033E00070470000D0E9001211438268C068521E85
:1033F000520142EA40200143014801607047000049
:10340000500100A070B50468A100A1F1C041D1F83D
:103410004011CE0BF603D0E901121143D0E903238A
:103420001A4311434269C36911438269056A114312
:103430001943426A2943114331434FF02046002C7F
:103440003CD0D6F840416FF30E042B432243134384
:10345000C6F8403102689200A2F1C042C2F84011A1
:10346000016871B38900A1F1C041D1F8481101F0A0
:103470007043816A0A684C68521E641E42EA041452
:103480008A68521E44EA02240A8A521E44EA024210
:103490001A43D6F8483103F07043CC68898A641E19
:1034A0002403491E44EA01511943C6F84811006833
:1034B0008000A0F1C040C0F8482170BDC6F840119E
:1034C000CEE7FFE7D6F8481101F07041806A026844
:1034D0004368521E5B1E42EA03138268521E43EA8F
:1034E0000223C268521E43EA0233028A521E43EA92
:1034F0000243828A007E521E43EA0252401E42EA82
:1035000000600843C6F8480170BD000002490A681F
:1035100042EA400008607047540100A07CB50121D8
:1035200040F2A71001F01AFC2E20009002208DF826
:10353000050001208DF8040000248DF806408DF868
:1035400007001C4D6946284600F03CF80E2128462D
:1035500000F08FF820250095174E6946304600F0A0
:1035600031F82021304600F082F840200090134EC0
:103570006946304600F026F800956946304600F06E
:1035800021F82021304600F072F88DF804408DF8C3
:103590000740280200906946094800F013F801F03E
:1035A00079F8FDF763FA08F003F901F055F901F035
:1035B0006DF97CBD00080240001C02400020024062
:1035C000000402402DE9F041002201274FF0030CD6
:1035D00007FA02F50B682B40AB422CD1066853006A
:1035E0000CFA03F4A64306600E79D0F800809E40E2
:1035F00046EA080606600E79012E01D0022E12D18D
:103600008668A64386604E79D0F808809E4046EAD8
:10361000080686604668AE43466045688E799640E7
:10362000B6B235434560C568A543C560CC799C40BA
:10363000C3681C43C460521C102AC9D3BDE8F08182
:1036400010B54B07DB0E9A40C90800EB8100016AF8
:103650000F249C40A1430162016A1143016210BD25
:103660000246002012690A4200D0012070474183BF
:103670007047018370470000034A203902EB0111B3
:103680001022FCF7AFBD0000FA4807080349085CA8
:10369000002801D00020704701207047370000202B
:1036A0004069806880B27047D0F8CC000068C0F3F1
:1036B00041407047084490F89B03704700EB81003D
:1036C000D0F85003704710B5044600220023C4F818
:1036D000103304EB8200C0F81433C0F85033A01844
:1036E00080F88C33521CD2B20F2AF2D30820A4F8EF
:1036F000B203204606F0D6FB204606F065F92046C8
:1037000006F086F80121204606F02EFC204606F041
:10371000D3F8204606F092F9002010BDD0F810032F
:10372000704710B506F0A7FB002010BD002243181B
:1037300083F89B2300EB4113C3F8C02306F0D4BAEF
:103740002DE9F0410546134F4FF480763146384657
:10375000FFF78DFF00244FF48058280604D541461A
:103760003846FFF786FF03E041463846FFF77FFF04
:1037700031463846FFF77DFF08F0D2F8314638462B
:10378000FFF775FF6806050E641CE4B2082CE4D34D
:10379000BDE8F08100080240FEE700002DE9F0419D
:1037A000082A00D9082202B90122072900D90721D5
:1037B000914200D911460024224E20273755641C1F
:1037C000E4B2082CFAD314460A250DE0B0FBF5FC50
:1037D00005FB1C0C06EB04080CF1300C08F801CCBE
:1037E000B0FBF5F0641EE4B2002CEFD169B11046D5
:1037F0000C4605E0351815F8015C3554401EC0B282
:10380000641EE4B2F6D22E24345473B90020531E41
:1038100009E0345C302C08D1341864782E2C04D0A4
:103820003754401CC0B29842F3DB09B1521CD2B2EB
:10383000002002E0B054521CD2B2082AFAD3BDE8EC
:10384000F08100006300002005494820002201E0CB
:1038500001F8012B401EC0B2FAD202480270704734
:10386000640600202900002070B505462DED048B6C
:103870000C466068DFED340A00EE100AB8EE400A2C
:1038800020EE209AA068C0F10700FCF7CAFD41ECC9
:10389000110B9FED2E0B08F087F8B0EE408AF0EE8A
:1038A000608A19EE100AFCF7C9FD53EC182BFCF7DF
:1038B00049FDFCF7D6FD00EE100A264910EE100A6D
:1038C000884201DD9FED240A244910EE100A884247
:1038D0000BDB0320A060DFED220A80EE201AFCEE55
:1038E000C10A10EE900A606017E010EE100A1D4940
:1038F00088420BDB0420A060F2EE040A80EE201A5E
:10390000FCEEC10A10EE900A606006E00520A0609F
:10391000FCEEC00A10EE900A6060BCEEC00A10EE29
:10392000100AA0612078287060686860A068A860AC
:10393000E068E8602069286160696861A069A86141
:10394000BDEC048B70BD0000002474490000000031
:1039500000002440001B374B001B374B8096184B50
:103960000000C842002474490FB40299032902D10F
:10397000039901B900200299022902D1039901B9E2
:1039800001200299042903D10399012900D10220C1
:103990000299032903D10399012900D10320029937
:1039A000022903D10399012900D104200299042995
:1039B00003D10399022900D105200299032903D1DB
:1039C0000399022900D1062004B070470FB4029871
:1039D000032806D101980449884202D9012004B085
:1039E00070470020FBE70000C0D401002DE9F05F24
:1039F000FF250020FFF7A4FEDFF8D0A04FF40069F8
:103A000049465046FFF72CFEDFF8C4804FF4806B28
:103A100000B359464046FFF723FEE8B14946404609
:103A2000FFF71EFED0B104212A48FFF719FEB8B1F6
:103A30000426042E40D20024274F385DFFF780FE75
:103A400007F06EFF76B1012E13D0022E18D0032E90
:103A500023D11CE00026ECE70126EAE70226E8E78E
:103A60000326E6E749465046FFF7FAFDA8B9254682
:103A700013E059464046FFF7F3FD70B925460CE0C8
:103A800049464046FFF7ECFD38B9254605E00421DC
:103A90001048FFF7E5FD00B92546FF2D03D1641C52
:103AA000E4B2082CC9D3FF2D04D005EBC600C0B288
:103AB000BDE8F09F0020FBE74FF400510548FFF7F9
:103AC000CFFD08B10020F3E71F20F1E700200240FE
:103AD00000080240000C0240DBF4060810B5064C5A
:103AE0006078002805D00020607000F055F820783C
:103AF00010BD002010BD0000F300002010B50146ED
:103B0000002002F0C3FB064C0020FFF7BFFD10B9F8
:103B100060780028F8D0BDE81040FFF7DFBF000054
:103B2000F300002070B5FFF761FF1A4C0023012558
:103B3000E21CD0B12178814228D16178652901D277
:103B4000491C6170617864291BD00DD91070957083
:103B5000A07800F10100C0B2A0700E2804D9A370B3
:103B60005078002800D1557070BD207828B1617858
:103B7000091F602901D21070557023706370937013
:103B800070BDA37010705570957070BD207063701B
:103B900070BD0000F000002010B5FCF745FF4FF4A9
:103BA0007A7009F0C4F9BDE81040FCF737BF000097
:103BB0007CB501214FF4867001F0D0F84FF4985095
:103BC000009002208DF8050001208DF804000024EB
:103BD0008DF806408DF80700134D69462846FFF71B
:103BE000F1FC69152846FFF744FD4FF44061009150
:103BF0008DF8044069462846FFF7E4FCE81400907D
:103C000069460A48FFF7DEFC042000906946084830
:103C1000FFF7D8FC0748047044708470C01E04701D
:103C2000447084707CBD0000000802400020024007
:103C3000000C0240F300002010B500231C4C246847
:103C4000002C06D0012C0DD0022C17D0032C1ED036
:103C500023E000EB4003C1EB011000EB400003EB5D
:103C600040131AE0A1F20F11C0F5F070A1EB0111A1
:103C700000EB4110401E00EB40030EE0A0F20F10DD
:103C8000A0EB001001EB401000EB400305E000EB5F
:103C90000010C1EB001303F20F130648834205D254
:103CA00005488068C2521844110C817010BD000094
:103CB0005000002000FA0500F800002070B58AB01E
:103CC000C0F30744C0F30725C6B2FDF747F84FF429
:103CD00040300090012001900494039502960F203B
:103CE00005900B4880680690002007904FF488707C
:103CF00008904FF4F07009906846FDF745F8FDF71D
:103D00009FF80220FDF736F80028FAD00AB070BDFF
:103D1000F80000202DE9F04F8BB03B4C6468C4F3F1
:103D2000074704F0FF09C4F30728384CDFF8D8A090
:103D3000C2F5F076AAF1140A2568DAF80840002DD9
:103D400037D0C3F5887C012D3ED0022D4CD000EB3E
:103D50000010C3EB0010401A00F5887000EB400023
:103D600005191FFA8CF614469B46FCF7F7FF4FF433
:103D70004030019001200290CDF81080CDF80C90D9
:103D80000597FF200690079508960994CDF828B06E
:103D900001A8FCF7F9FFFDF753F80220FCF7EAFF52
:103DA0000028FAD0DAF8000000F0C6FA0BB0BDE83F
:103DB000F08FC1EB011100EB411000EB4000051941
:103DC000B6B21C469346D0E7ACEB0101C1EB011142
:103DD000C0EB4110801A00F5F07000EB40000519AF
:103DE000B6B21C469346C0E7C0F58870801AC0EB97
:103DF000001001EB401000EB40000519C3F5F07016
:103E000086B214469B46B0E70C010020500000200B
:103E10002DE9F0438BB09046994600242E4A156850
:103E2000002D0CD0C1EB011200EB42162B4A012DE4
:103E300097680DD0022D11D0032D18D01AE000EB99
:103E40004002C1EB011000EB400002EB401411E016
:103E5000A6EB86002249384444180BE0A0F20F106C
:103E6000A0EB001001EB401000EB400402E006EB79
:103E70004600C419194814300068C0F30745C6B29B
:103E8000C0F30727FCF76AFF4FF440300190012090
:103E900002900497039605950F2106910794B9F1B6
:103EA000000F12D040F2DF110891CDF824800A9063
:103EB00001A8FCF769FFFCF7C3FF0220FCF75AFFDB
:103EC0000028FAD00BB0BDE8F083002108910990DA
:103ED000CDF82880ECE7000050000020F80000201A
:103EE00000FA05002DE9FC5F012140F2FF1000F00F
:103EF00035FF4FF00408CDF8008003208DF8050051
:103F000002208DF8040000208DF806008DF80700CF
:103F10006946AB48FFF756FB0E220221A848FFF77F
:103F20008FFB4FF00809CDF800906946A448FFF7D1
:103F300049FB0E220321A248FFF782FB4FF4807A4F
:103F4000CDF800A069469E48FFF73CFB0E220821F1
:103F50009B48FFF775FB0124009469469948FFF7D9
:103F600031FB092200219748FFF76AFB4FF4006BF1
:103F7000CDF800B069469448FFF724FB0E220B21D0
:103F80009148FFF75DFB2003009069468E48FFF7DC
:103F900019FB0E220C218C48FFF752FB02200090E7
:103FA00069468848FFF70EFB092201218548FFF783
:103FB00047FB4025009569468448FFF703FB0E2226
:103FC00006218248FFF73CFB20200090694680488C
:103FD000FFF7F8FA0E2205217D48FFF731FB009527
:103FE00069467B48FFF7EEFA0E2206217848FFF774
:103FF00027FB6003009069467148FFF7E3FA0E2241
:104000000D216F48FFF71CFBA602009669466F481A
:10401000FFF7D8FA09220A216C48FFF711FBE003E9
:10402000009069466648FFF7CDFA0E220F216448DA
:10403000FFF706FB009469466648FFF7C3FA0E22B5
:1040400000216448FFF7FCFA802700976946624820
:10405000FFF7B8FA0E2207215F48FFF7F1FACDF813
:10406000008069465B48FFF7ADFA0E2202215948ED
:10407000FFF7E6FA4FF01008CDF800806946544883
:10408000FFF7A0FA0E2204215148FFF7D9FA2003C6
:10409000009069464D48FFF795FA0E220C214B48D7
:1040A000FFF7CEFA00954D4D69462846FFF78AFA8C
:1040B0000E2206212846FFF7C3FACDF800B0694664
:1040C0004248FFF77FFA0E220B214048FFF7B8FA6B
:1040D000CDF8008069463F48FFF774FA0E220421AC
:1040E0003C48FFF7ADFACDF8009069463648FFF737
:1040F00069FA0E2203213448FFF7A2FACDF800A096
:1041000069463048FFF75EFA0E2208212D48FFF776
:1041100097FA4FF40079CDF8009069462948FFF7E7
:1041200051FA0E2209212748FFF78AFA00976946BB
:104130002648FFF747FA0E2207212448FFF780FAA6
:10414000009669462348FFF73DFA0E220A212148CE
:10415000FFF776FACDF8009069461E48FFF732FA6D
:104160000E2209211B48FFF76BFA00961C4E694688
:104170003046FFF727FA0E220A213046FFF760FA91
:10418000CDF8008002208DF805008DF80440002055
:104190008DF806008DF8074069462846FFF712FAA9
:1041A000009769462846FFF70DFA10212846FFF7C9
:1041B00060FA80212846FFF75CFABDE8FC9F00000A
:1041C000001C0240000402400000024000180240AF
:1041D000001002400020024000080240000C024093
:1041E0000014024000B58FB00121880600F0EEFDFA
:1041F0000121C80500F0B2FDFFF774FE01F002FDD9
:10420000062207214FF4D27000F07CFE4FF44030BC
:1042100000F068FE012000F06FFE3D2000F036FE49
:104220000028FAD0002000900190029003900C909A
:104230000D900E9028200490092005902A200690C9
:104240000B20079040F20A20089040F21B100990C2
:104250004FF403700A9040F21D100B90684600F076
:1042600047F9012000F034F90FB000BD30B591B02E
:104270002B20019040F20A2002900C20039040F283
:104280001B10049001200590FF20069007900890D5
:1042900009900A904FF480600B9007240C9440F230
:1042A000A3500E90C01E0F904FF4887010904FF0E6
:1042B00050400D90114D01A9284600F07BF910499E
:1042C0000D914FF4C0610B910C940C4C01A98034FA
:1042D000204600F06FF9012000F0B8F901212846CE
:1042E00000F05CF90121204600F058F9012000F0AF
:1042F000ADF9044800F008F811B030BD8468014001
:1043000000FA05D01401002001490861704700003F
:10431000F80000200649002804D0064888600120E3
:10432000C86070474FF0504088600020C8607047F8
:10433000F800002000FA05D001490860704700002D
:10434000F800002010B50949C968002908D00146C5
:10435000074800F021F9BDE81040012000F076B9CF
:1043600001460348803800F017F9F4E7F800002010
:10437000046901402DE9F04F04468846254633493B
:1043800002EB0210DFF8C8A001EB4009002B0FD0B0
:10439000002709EB070090F802B000265FEA0B60E7
:1043A00035D541462046DAF80020FFF745FC34E0D9
:1043B0004FF0000B09EB0B0087780026380606D576
:1043C00041462046DAF80020FFF736FC05E041467A
:1043D0002046DAF80420FFF72FFC7806070E641C4D
:1043E000A4B2601B10280CD0761CF6B2082EE5D3C0
:1043F0000BF1010B0BF0FF0BBBF1200FDAD3BDE883
:10440000F08F2C4608F101081FFA88F8F0E74146C2
:104410002046DAF80420FFF70FFC4FEA4B604FEA22
:10442000106B641CA4B2601B102808D0761CF6B276
:10443000082EB3D37F1CFFB2202FAAD3DFE72C4670
:1044400008F101081FFA88F8F4E70000E3F4060811
:104450000C0100202DE9F84F04468B469246A046F9
:1044600000270AFB03F0C11700EB5170DFF85C90E6
:10447000009025E00A98C65D0025300606D559460D
:104480002046D9F80020FFF7D7FB05E05946204623
:10449000D9F80420FFF7D0FB7006060E641CA4B206
:1044A000A4EB0800504505D144460BF1010B1FFA5F
:1044B0008BFB03E06D1CEDB2082DDED37F1CBFB279
:1044C0000098B7EBE00FD5DBBDE8F88F0C010020BA
:1044D0000649002804D0086840F0010008607047D1
:1044E000086820F00100086070470000186801406B
:1044F00030B5264A136826490B401360038A1B0413
:10450000146845692C431C431460121D13680B404A
:104510001360038B1B041468C5692C431C4314608F
:10452000121D13680B401360038C1B041468456A4A
:104530002C431C431460121D13680B401360018D43
:1045400009041368C46A23430B431360111D0A68EE
:10455000104B1A400A60D0E900231A43D0E9023414
:1045600023431A430B681A430A60416B0A02018E07
:104570000B04064924310C6804F07F440C600C687D
:10458000806B134304431C430C6030BD086801403A
:1045900000F800F08F88FE0F41617047002904D0B9
:1045A000016841F0010101607047016821F00101DB
:1045B0000160704770B58A881204436803F4704341
:1045C00043600B68134343608A891204836803F4D1
:1045D000704383608B6813438360026922F0070293
:1045E00002610A690261CA6913020A8C120491F815
:1045F000244024068569002585618E6922431E4377
:1046000016438661426922F0FF0242614A694261B3
:10461000C26940F207739A43C261D1E90A231A437F
:10462000C261826A85620A6B82620A8F1204C36A5F
:1046300003F0E023C3624B6B1343C362026B6FF35F
:104640000A020263C96B016370BD00000149086082
:10465000704700002468014010B54FF4806109489C
:10466000FFF707F84FF400510748FFF702F804215D
:104670000648FEF7FCFFBDE8104001210448FEF7A4
:10468000F6BF0000001C024000080240001002407B
:10469000000002407CB50121BF2000F05FFB042038
:1046A000009000248DF8054001258DF804508DF808
:1046B00006408DF8075069460C48FEF783FF4FF41B
:1046C000B840009069460A48FEF77CFF8DF8054027
:1046D0008DF804508DF806408DF8075008200090A2
:1046E00069460448FEF76EFF7CBD000000100240E2
:1046F000001C0240000C024010B504210948FEF7DE
:10470000B8FF01210848FEF7B4FF4FF48061074865
:10471000FEF7ADFFBDE810404FF400510448FEF72E
:10472000A6BF00000010024000000240001C024032
:10473000000802404FF400610148FEF798BF0000F6
:10474000001C02404FF400610148FEF792BF0000D8
:10475000001C0240FEE7704708B54FF4A06000F06F
:1047600061F827208DF8000002208DF8010001205B
:104770008DF802008DF80300684600F01FF808BDB0
:1047800008B54FF4C06000F04DF809208DF8000026
:1047900001208DF801008DF802008DF803006846B5
:1047A00000F00CF808BD00F01F0201219140400903
:1047B000800000F1E020C0F80011704730B50F23F1
:1047C000C27801250178002A1FD0154A126802F428
:1047D000E062C2F5E062C2F30722C2F10404D340F2
:1047E0004278A24084781C401443220101F1E02168
:1047F00081F80024007800F01F018D4040098000FE
:1048000000F1E020C0F8005130BD01F01F008540EC
:104810004809800000F1E020C0F8805130BD000060
:104820000CED00E0024908430249086070470000AF
:104830000000FA050CED00E0024A11400143024875
:104840000160704780FFFF1F08ED00E0014804F0A1
:10485000D9BC0000C42800201CB50121084600F086
:104860007DFA4020009002208DF8050000208DF890
:1048700004008DF8060001208DF807006946024803
:10488000FEF7A0FE1CBD0000000002407CB5012127
:10489000CD2000F063FA1020009000248DF8054030
:1048A00001258DF804508DF806408DF807506946B3
:1048B0000D48FEF787FE009569460C48FEF782FE1C
:1048C0006D03009569460A48FEF77CFE8DF80440AA
:1048D000009569460748FEF775FE28110090694665
:1048E0000548FEF76FFE7CBD001C02400000024040
:1048F00000080240000C0240001802400149086212
:104900007047000000000E42F0B57D4B1878002182
:10491000022800D919705878032800D9597098785E
:10492000012800D99970DA6A0320052A00D9D862D3
:104930009D6A744C744AA54200D99A621D6B052D7C
:1049400000D9196393F840500A2D01D983F840101B
:1049500093F841500A2D01D983F8411093F8425041
:10496000032D01D983F8421093F82050012D01D96D
:1049700083F82010DD6C052D00D9D8649E6C42F6BA
:10498000E065A64200D99D641E6D052E00D919650B
:104990009E6E052E00D998665E6E964200D95D66C1
:1049A000DE6E052E00D9D966DE68052E00D9D860E6
:1049B0009E68964200D99D601D69052D00D9196138
:1049C000D3F88450052D01D9C3F88400D3F8805062
:1049D000A54201D9C3F88020D3F88850052D01D90C
:1049E000C3F88810D3F8A050052D01D9C3F8A00052
:1049F000D3F89C00A04201D9C3F89C20D3F8A400AE
:104A0000052801D9C3F8A41093F8FD000A2801D99C
:104A100083F8FD1093F80001012801D983F80011F3
:104A200093F8FF00012801D983F8FF1093F8FC00E8
:104A3000012801D983F8FC1093F8FE00012801D960
:104A400083F8FE1000201A1892F80141802C01D939
:104A500082F80111401CC0B21428F4D30020302485
:104A60001A1892F83C51802D06D9082802D282F8F3
:104A70003C4101E082F83C11401CC0B20A28EFD34F
:104A80000020224C224D234A9FED230A03EBC00154
:104A9000D1F8B8602644AE4203D3F7EE000AC1ED68
:104AA0002E0AD1F8B46052F83070BE4206D8D1F860
:104AB000B46002EBC0077F68BE4205D2154E48368F
:104AC00056F82060C1F8B460062809D203EB8001D3
:104AD000124FD1F81861BE420CDD81ED460A09E0A3
:104AE000811F03EB81010E4FD1F83461BE4201DD1D
:104AF00081ED4D0A401CC0B20828C7D3F0BD0000AC
:104B000064060020804F1200C0D40100CDCCCCC080
:104B1000343373007C000020000000000050C347C5
:104B200000401C46704710B503F0D6F9BDE81040B0
:104B300000F0E2B810B503F0BFF9BDE8104000F096
:104B4000D5B80000FEB55E480024047003F0C4F937
:104B5000FCF7DAF900F014FA0021042000F0ECFB75
:104B6000FEF7DCFC002000F029FBA0F54851F239EB
:104B700002D000F018FC08E00121080700F018F945
:104B80000120FFF7BBFE00F04BFC01F0A3FE4FF449
:104B90007A7008F0CCF9FFF70BF801F037FFFFF758
:104BA00021FBFFF763FB0120FFF792FC0020FFF7DA
:104BB000B1FB4FF47F00FFF781F80120FFF7AAFB5C
:104BC000FF20FFF7BFFB4FF050173846FFF776F88E
:104BD00001F048F9FEF738FE00F048FE394809F0C8
:104BE000A1FDFFF791FE01F011FF3748047000248A
:104BF00036480125057036480626067000210078E3
:104C000000F0D8FD3348057033480090334B344AE8
:104C10000021344803F0D8FD3149324804F056FCF5
:104C2000314D49E0641CA4B2142C00D92E7002202E
:104C3000FEF764FF12282BD00CDC12283CD2DFE8F0
:104C400000F03B1E3B243B3B3B3B3B1B36213B3BAD
:104C50003B3B3B181B282FDAA0F1130008282BD26E
:104C6000DFE800F02A2A2A2A2A2A042803F01CF95D
:104C700022E003F011F91FE0FFF764FD1CE0FFF7ED
:104C800059FD19E003F028F916E003F015F913E0D7
:104C90003846FFF713F8B420ADF804007820ADF8DB
:104CA0000600ADF8080001A809F0DCFB04E0FFF7FE
:104CB00023FD01E0FFF7D0FC28780228B2D0FEBD2A
:104CC00056000020DBFA00082B00002054000020D2
:104CD0002C000020550000202C010020A8010020FD
:104CE000702E0020C42800202A0000202021014826
:104CF000FEF7BDBC0008024020210148FEF7B9BC08
:104D0000000802402DE9FF5F8946074611469B4691
:104D10006846FEF7B1FC0025EA461AF80580002433
:104D200009EB0506C4F1070028FA00F0C00706D019
:104D30003819B1B280B25A46FEF77EFF05E0381945
:104D4000B1B280B20E9AFEF777FF641C082CE9D34B
:104D50006D1C102DE1D3BDE8FF9F0000054A00291E
:104D600003D01168014311607047116881431160DD
:104D70007047000030380240054A002903D011680E
:104D80000143116070471168814311607047000052
:104D900010380240054A002903D011680143116010
:104DA0007047116881431160704700003838024035
:104DB000054A002903D0116801431160704711684A
:104DC000814311607047000040380240054A0029C5
:104DD00003D011680143116070471168814311606D
:104DE000704700004438024070B5244B196801F048
:104DF0000C01234C00291ED0224E04291DD0082965
:104E00001DD00460196801F0F00109091E4A545CC4
:104E10000168E14041601C6804F4E054A40A145D98
:104E200021FA04F484601B6803F460435B0BD25CDA
:104E3000D140C16070BD0460E4E70660E2E70F4A5C
:104E4000121F1168C1F38055116801F03F0135B19F
:104E5000B6FBF1F11468C4F38814614305E0B4FBB8
:104E6000F1F11468C4F3881461431268C2F301427B
:104E7000521C5200B1FBF2F10160C3E70838024056
:104E80000024F40040787D01140000200246002038
:104E9000510901290BD002290DD00949096802F0F6
:104EA0001F02012393400B4200D0012070470449A8
:104EB00074390968F3E70249091F0968EFE7000040
:104EC00074380240064900220A700A70012804D092
:104ED000042801D105200870704701200870704730
:104EE00070380240034A116821F4403101431160D7
:104EF000704700008C380240014908677047000085
:104F000000004742800140EA0160024940EA027025
:104F10000860704788380240014908607047000007
:104F20003C0E4742C0F30121032907D1074B196802
:104F300021F4F8120649014011431960034A68320E
:104F40001168C0F30B00014311607047083802403C
:104F5000FFFCFF0F010901EB8101490000F00F0088
:104F60000844C0B27047002103E0491CC9B20A38A6
:104F7000C0B20A28F9D2090740EA11607047000060
:104F80000EB501210807FFF713FF0120FFF7B6FC5C
:104F90000120FFF797FF4120FFF778FF0028FAD0A4
:104FA0004FF48070FFF7BEFF0120FFF7B5FF00F060
:104FB00037FA7F200190FF20029000200090684681
:104FC00000F0D4F8002802D101A006F0AFFC0EBD1D
:104FD0000A0D2052544320CAB1D6D3B3F5CABCBB84
:104FE000AFCAA7B0DC200D0A0000000080B240F07C
:104FF0008000C1430348026802F08002114301604F
:10500000704700000C280040000980B240F080008A
:10501000C1430348026802F08002114301607047F7
:105020000C28004008B5002000900E490868400692
:1050300015D44FF0FF3008608B13086800F0400073
:10504000009A521C0092009A9A4201D00028F4D093
:105050000868400601D5012008BD002008BD0120D8
:1050600008BD00000C2800400248016821F08001C2
:10507000016070470C28004010B502460C460E48EF
:1050800001680E480140080CE070C1F3042363700E
:1050900001F03F03A370C1F342312170002A0AD10D
:1050A000FFF758FFE0706078FFF754FF6070A0785A
:1050B000FFF750FFA07010BD042800403FFFFF0025
:1050C0000246002003490968034B1940114200D0F1
:1050D000012070470C2800407F3F010010B50246B8
:1050E0000C460F4801680F480140C1F3054020708D
:1050F000C1F30623637001F07F03A37001F4800104
:10510000090CE170002A0AD1FFF724FF20706078B3
:10511000FFF720FF6070A078FFF71CFFA07010BDA4
:10512000002800407F7F7F0030B50F4DCA222A60E3
:1051300053222A600C4C0C4B1C3C20F004021C3304
:1051400000F00400002906D021681143216019688D
:105150000143196005E0216891432160196881438A
:105160001960FF20286030BD2428004070B5044637
:105170000025114ECA20306053203060FFF752FFE7
:10518000A8B10D481C38016821F040010160016898
:105190002268114301600848A16814380160016861
:1051A000A28841EA02410160FFF75EFF0125FF206E
:1051B0003060284670BD00002428004008B503492F
:1051C00001EB800000900098006808BD5028004066
:1051D00070B505460C460026002D06D16078C10644
:1051E00003D520F010000A3060702DB16078FFF711
:1051F000B1FEA078FFF7AEFE55B1A078E17840EAA5
:10520000014560782178000240EA413005430FE013
:10521000E078FFF7A8FE05046078FFF7A4FE45EAF2
:105220000025A078FFF79FFE0543207845EA40352A
:105230000E4CCA20206053202060FFF7F3FE88B197
:105240000B480540094820380560FFF70DFF074867
:105250001C380068800604D400F0E2F810B1012682
:1052600000E00126FF202060304670BD2428004069
:105270003FFFFF002DE9F04105460C4600260020C7
:10528000244F002D06D03968490608D52078FFF74D
:1052900061FE05E03968490602D4E07000E0E07084
:1052A00055B1A078217840EA01456078E1780002A4
:1052B00040EA014005430FE02078FFF754FE050463
:1052C0006078FFF750FE45EA0025A078FFF74BFE17
:1052D0000543E07845EA00450E4CCA201C342060A6
:1052E00053202060FFF79EFE78B10B480540094827
:1052F00008380560FFF7B8FE3868800604D400F06F
:105300008FF810B1012600E00126FF202060304612
:10531000BDE8F081082800407F7F7F000549CA2250
:105320000A6053220A60034A103A1060FF200860A6
:1053300070470000242800403EB505460C4600207A
:1053400000F0A8F8284600F091F82046FFF7E6FFA5
:105350004FF480452846FFF757FE2C022046FDF704
:1053600099FF01212846FFF7DFFE012000F092F8A7
:10537000019400208DF8080008208DF80900012410
:105380008DF80A4001A8FDF795FF03208DF8000075
:1053900002208DF801008DF802008DF80340684668
:1053A000FFF70CFA3EBD7CB500208DF80700012404
:1053B0008DF804408DF805408DF8064001A9FFF7EF
:1053C00059FF43F2F2252946002000F093F88DF8AA
:1053D00000408DF802408DF8014012208DF8030046
:1053E00069460020FFF7F4FE2946002000F082F80D
:1053F0007CBD000010B54FF480642046FFF760FECE
:10540000012805D12046FFF7F1FD0449012008706D
:10541000BDE810404FF48000FDF73CBF360000208F
:1054200018B500200090104BCA2018605320186057
:105430000D491839086820F0A00008604FF40034C6
:10544000086800F02000009A521C0092009AA242C4
:1054500001D00028F4D00868800601D5012000E0C2
:105460000020FF21196018BD24280040084ACA21E5
:1054700011605321116006491C390B6823F00703A2
:105480000B600B6803430B60FF2010607047000047
:105490002428004018B500210091154BCA2119603D
:1054A0005321196012491C39002805D0086840F4BE
:1054B00080600860012017E0086820F480600860C0
:1054C0000B4A183A9413106800F004000099491C24
:1054D00000910099A14201D00028F4D01068400743
:1054E00001D4002000E00120FF21196018BD000058
:1054F0002428004008B5034A02EB80000090009881
:10550000016008BD5028004010B52DED088B514CAE
:105510002079FAF786FF41EC110B9FED4FABB0EE0F
:105520004A0AF0EE6A0A06F03FFA6079B0EE408A65
:10553000F0EE608A00EB4000FAF773FF41EC110BCC
:10554000B0EE4A0AF0EE6A0A06F02EFAB0EE409A81
:10555000F0EE609A2068FAF764FF53EC192BFAF723
:105560007FFE53EC182BFAF7EDFEFAF77AFF0BEEFD
:10557000100A3B4CA06EFAF754FF41EC110BB0EE51
:105580004A0AF0EE6A0A06F00FFAE06EB0EE408AC0
:10559000F0EE608A00EB4000FAF743FF41EC110B9C
:1055A000B0EE4A0AF0EE6A0A06F0FEF9B0EE409A52
:1055B000F0EE609A606EFAF734FF53EC192BFAF7AD
:1055C0004FFE53EC182BFAF7BDFEFAF74AFF0BEE2D
:1055D000900AE068FAF725FF41EC110BB0EE4A0A99
:1055E000F0EE6A0A06F0E0F92069B0EE408AF0EECB
:1055F000608A00EB4000FAF714FF41EC110BB0EEAB
:105600004A0AF0EE6A0A06F0CFF9B0EE409AF0EEE0
:10561000609AA068FAF705FF53EC192BFAF720FE01
:1056200053EC182BFAF78EFEFAF71BFF00EE100A68
:10563000B4EEEBBAF1EE10FA03DD0120BDEC088BFD
:1056400010BDB4EEC0BAF1EE10FA01D20220F5E7B7
:105650000020F3E76C000020000000000000244060
:10566000640600202DE9F0034FF00008C146C4464F
:1056700042484349434C0068434F9FED440A444A23
:10568000002388420DD94FF00108002002EB800171
:1056900081ED000A401CC0B20C28F7D323703B8078
:1056A00004E03C49884201D24FF0010900213A4808
:1056B00090F84100394D3A4E90BB2878062802D226
:1056C000B8F1010F05D0287810B3B9F1010F10D04F
:1056D0001EE02878401C28700121002002EB800C7D
:1056E0008CED000A401CC0B20C28F7D323703B801D
:1056F0000EE02878401E28700121002002EB800C6B
:105700008CED000A401CC0B20C28F7D323703B80FC
:1057100024480268244CA24203D90120002209E057
:105720001AE00068214A904202D20122002001E0E2
:10573000002000224FF0000C34780CB9012804D06E
:10574000307848B1012A04D006E03078401C30702F
:1057500002E03078401E30701548012906D0BCF1B7
:10576000010F03D00370BDE8F00370470121017001
:1057700031782878BDE8F00300F01CB8480000201C
:10578000007355002E0000203000002000000000B3
:10579000FC070020808B0800640600202C000020FD
:1057A0002D0000204C000020C0655200988D07009D
:1057B0003900002010B5154B01221A70144BAA2293
:1057C0001A70062800D90620124A125C124C24785E
:1057D000012C0BD0062809D002F0FE02052801D2C8
:1057E00042F0400229B142F0200004E042F0010200
:1057F000F4E702F0DF0058700221054800F0ECFCED
:10580000BDE8104042F2107007F091BB5500002037
:10581000570000205C0000205400002008B5C1782B
:105820008DF8001081788DF8011041788DF8021004
:1058300000788DF80300009808BD10B5142007F01B
:1058400065FB012000F0B0FF0402012000F0ACFF76
:1058500020430402012000F0A7FF204310BD0000F8
:1058600040210148FDF7FCBE000002400248002133
:105870004FF4A47200F066BA640600202DE9FC5FC4
:105880000121FC20FFF76AFA02208DF804000320B2
:105890008DF8050000208DF806008DF80700012026
:1058A00000906946D148FDF78DFE0C220021CF48BB
:1058B000FDF7C6FE022000906946CC48FDF782FE47
:1058C0000C220121C948FDF7BBFE04200090694667
:1058D000C648FDF777FE0C220221C448FDF7B0FE52
:1058E000082000906946C148FDF76CFE0C22032198
:1058F000BE48FDF7A5FE102700976946BB48FDF797
:1059000061FE0C220421B948FDF79AFE4FF02008F1
:10591000CDF800806946B548FDF754FE0C220521FC
:10592000B248FDF78DFE4FF48059CDF800906946DE
:10593000AE48FDF747FE0C221146AC48FDF780FE4D
:105940004FF4005ACDF800A06946A848FDF73AFE8A
:105950000C220D21A548FDF773FEBD020095694696
:10596000A248FDF72FFE0C220E21A048FDF768FE8D
:105970006C00009469469D48FDF724FE0C220F211F
:105980009A48FDF75DFE0120009069469848FDF7B2
:1059900019FE0C2200219648FDF752FE02200090CD
:1059A00069469348FDF70EFE0C2201219048FDF751
:1059B00047FE009569468F48FDF704FE0C220E2134
:1059C0008C48FDF73DFE009469468A48FDF7FAFDD4
:1059D0000C220F218748FDF733FE01200090694615
:1059E0008448FDF7EFFD0C2200218248FDF728FED8
:1059F0000220009069467F48FDF7E4FD0C2201215A
:105A00007C48FDF71DFE4FF0800BCDF800B06946D5
:105A10007948FDF7D7FD0C2207217748FDF710FEE6
:105A2000E611009669467448FDF7CCFD0C2208216A
:105A30007148FDF705FEA011009069466E48FDF71C
:105A4000C1FD0C2209216C48FDF7FAFD60110090A0
:105A500069466948FDF7B6FD0C220A216648FDF744
:105A6000EFFD2011009069466348FDF7ABFD0C2265
:105A70000B216148FDF7E4FDCDF8009069465E48D2
:105A8000FDF7A0FD0C2211465B48FDF7D9FDCDF8CE
:105A900000A069465848FDF795FD0C220D21564897
:105AA000FDF7CEFD009569465348FDF78BFD0C22AE
:105AB0000E215148FDF7C4FD009469464E48FDF79C
:105AC00081FD0C220F214C48FDF7BAFD0096694676
:105AD0004848FDF777FD0C2208214648FDF7B0FD48
