:020000040800F2
:10000000F87F0020C101000829630008F5450008B9
:1000100025630008C50B000855D800080000000043
:10002000000000000000000000000000C182000885
:10003000351C00080000000039670008199000080E
:10004000DB010008DB010008DB010008B5700008D7
:10005000DB010008DB010008DB010008DB01000810
:10006000DB0100081D410008DB010008DB0100087E
:10007000DB010008DB010008DB010008DB010008F0
:10008000DB010008DB010008DB010008DB010008E0
:10009000DB010008DB010008DB010008DB010008D0
:1000A000DB010008DB010008DB010008DB010008C0
:1000B000DB010008DB010008DB010008DB010008B0
:1000C000DB010008DB010008DB010008DB010008A0
:1000D000DB010008DB010008DB010008FDB60008B9
:1000E000DB010008DB010008DB010008DB01000880
:1000F000DB010008DB010008DB010008DB01000870
:10010000DB0100088D770008DB010008DB01000837
:10011000DB010008DB01000895920008DB01000804
:10012000DB010008DB010008DB010008551B0008AB
:10013000DB010008DB010008DB010008DB0100082F
:10014000DB010008DB010008DB010008B9630008DF
:10015000DB010008DB010008DB010008DB0100080F
:10016000DB010008DB010008D9630008C96300084F
:10017000DB010008E9630008DB010008DB0100087F
:10018000DB010008DB010008DB010008DB010008DF
:10019000DB010008DB010008DB010008DB010008CF
:1001A000DB010008DB010008DB010008DFF80CD0F0
:1001B00000F088FB0048004799FF0008F87F002006
:1001C0000648804706480047FEE7FEE7FEE7FEE7F1
:1001D000FEE7FEE7FEE7FEE7FEE7FEE71592000812
:1001E000AD01000840EA01039B0703D009E008C9FC
:1001F000121F08C0042AFAD203E011F8013B00F8EC
:10020000013B521EF9D2704710B5002200E0521C8B
:10021000835C8C5CA34201D1002BF8D1D8B2E1B24F
:10022000401A10BD2DE9FE4F81EA030404F000449A
:1002300021F0004100944FF0000B23F0004350EAFE
:1002400001045ED052EA03045BD0C3F30A54C1F345
:100250000A552C44A4F2F3340194A0FB0254C1F3D8
:10026000130141F48011C3F3130343F4801301FB22
:10027000024400FB034E840A970A44EA815447EA89
:100280008357A4FB076802958D0A05FB07854FEA93
:10029000932C04FB0C542705029D4FEA065847EAAD
:1002A0001637B5EB08056EEB070C870E920E47EA82
:1002B000811742EA8312A7FB0201B6EB0B0164EB44
:1002C00000042B0D43EA0C335E1844EB1C50DA4655
:1002D0005146E7FB0201C5F313044FEA0B3343EA2F
:1002E00014534FEA0432019C43EA0603A4F10C04C0
:1002F0000294009CCDE900B400F087F903B0BDE89A
:10030000F08F00200146F9E72DE9F04D81EA030462
:1003100004F0004B21F0004514464FF0000A23F092
:10032000004150EA050220D054EA01021DD0C5F375
:100330000A570246C5F31303C1F31300C1F30A566B
:1003400040F4801543F48013A7EB0608101BD64633
:1003500008F2FD3873EB050002D308F1010801E053
:1003600092185B41B8F1000F03DA00200146BDE8A6
:10037000F08D00204FF48011064684460EE0171BD6
:1003800073EB050705D3121B63EB050306434CEA29
:10039000010C49084FEA300092185B4150EA01070E
:1003A000EDD152EA030012D082EA040083EA05018B
:1003B000084305D0101BAB4106D20122002306E002
:1003C00000224FF0004302E06FF0010253101AEBDD
:1003D00006004CEB085110EB0A0041EB0B01BDE8A5
:1003E000F04D00F003B90EB5C10F80EAE07008448B
:1003F000CA07002140F233438DE80E000A460B463F
:1004000000F003F903B000BD0EB540F23341029194
:100410000021CDE900110A460B4600F0F6F803B0C2
:1004200000BDC1F30A5210B5C1F3130140F2FF330E
:1004300041F480119A4201DA002010BD40F23343AA
:100440009A42A2F2334203DC524200F088F810BD17
:10045000904010BD00F0004230F000400AD0C10DC5
:1004600001F56071C0F3160042EA0151C20840076D
:1004700011437047002001467047000030B5041E4C
:1004800071F1000404DB4FF00044404264EB0101D1
:10049000141E73F1000405DB1C464FF0004352426A
:1004A00063EB04038B4208BF824230BD30B5041EAB
:1004B00071F1000404DB4FF00044404264EB0101A1
:1004C000141E73F1000405DB1C464FF0004352423A
:1004D00063EB0403994208BF904230BD01F0004332
:1004E00030B421F0004150EA010206D00A0DA2F515
:1004F0006072C1F31301002A02DC30BC0020704797
:10050000440F44EAC104C100E01830BC00EBC25003
:1005100000F035B830B50B460146002020220124FA
:1005200009E021FA02F59D4205D303FA02F5491BC1
:1005300004FA02F52844151EA2F10102F1DC30BDD7
:10054000202A04DB203A00FA02F100207047914093
:10055000C2F1200320FA03F3194390407047202A88
:1005600004DB203A21FA02F00021704721FA02F35D
:10057000D040C2F12002914008431946704700293B
:10058000A8BF7047401C490008BF20F00100704719
:1005900010B4B0FA80FC00FA0CF050EA010404BF79
:1005A00010BC704749B1CCF1200421FA04F411FACF
:1005B0000CF118BF012121430843A3EB0C01CB1D13
:1005C0004FEA00614FEA102042BF002010BC704784
:1005D00000EBC35010440029A4BF10BC7047401C5E
:1005E000490008BF20F0010010BC704710B5141E70
:1005F00073F1000408DA401C41F1000192185B41DC
:100600001A4301D120F0010010BD2DE9F04D9246B2
:100610009B4611B1B1FA81F202E0B0FA80F22032C9
:100620009046FFF78DFF04460F4640EA0A0041EA74
:100630000B0153465A46084313D0114653EA0100B2
:1006400019D0C8F140025046FFF789FF05460E4613
:10065000504659464246FFF773FF084305D0012034
:1006600004E020463946BDE8F08D0020054346EA07
:10067000E0762C4337430A986305E40AA0EB0800B0
:100680000022FD0A44EA47540A3002D50020014600
:10069000E9E7010510196941DDE9084500196941DB
:1006A000BDE8F04DA2E72DE9FE4F804681EA030048
:1006B000C00F0C46009021F0004123F00045B8EB3C
:1006C0000200A94105D24046214690461C460B46F1
:1006D000024623F00040104347D0270DC7F30A001D
:1006E000C3F30A510290401A019040286BDAC3F319
:1006F000130040F4801B0098924620B10023D2EBF7
:10070000030A63EB0B0B01985946C0F140025046B7
:10071000FFF716FF06460D4650465946019A00F06F
:10072000E3F810EB08006141002487EA115284EAE3
:10073000E7731A4340D0009A62B3019A012A4FEA44
:10074000075215DC001B61EB02014FF0004202EA88
:100750000752CDE90042001C41F5801132462B467C
:10076000FFF753FF03B0BDE8F08F40462146F9E79D
:10077000001B61EB0201001C41F5801300185B4176
:100780002018A2F5001747EB030140EAD570B6190F
:100790006D4111E06D084FEA360645EAC0754FEA33
:1007A0000752001B61EB0201001C41F58011490852
:1007B0004FEA30000019514132462B4603B0BDE8E4
:1007C000F04FFFF713BF0098012240000023D0EB49
:1007D000020263EBE073009821464FEAE074B8EB45
:1007E000000061EB0401E9E783F000435BE781F07F
:1007F000004158E770B521F0004303430CD0C1F32A
:100800000A550024D5EB040564EB0403D617AD1A92
:10081000B34102DB0020014670BD201841EB0251BC
:1008200070BD2DE9F04D00231A461B1A8A4103DBE7
:1008300000200146BDE8F08DC1F30A52C1F3130157
:1008400041F480154FF0000BD10702D100186D4123
:10085000521E0027044640F2FF11384601EB620A9F
:100860003E468046024600204FF48011FFF777FE97
:10087000C2197141BB1846EB0100B4EB030C75EBD8
:10088000000C04D3E41A65EB000517460E46241944
:1008900008F101006D4180463428E3DDF91946EB8B
:1008A0000600091BA84103D24FF0FF32134601E0B6
:1008B000002213461BEB070046EB0A51BDE8F04D42
:1008C000FFF794BE064C074D06E0E06840F00103D8
:1008D00094E8070098471034AC42F6D3FFF76AFC5F
:1008E00078C8090898C80908202A06DBCB17203ADF
:1008F00041FA02F043EAE07306E041FA02F3D04025
:10090000C2F12002914008431946704770B58C1817
:1009100010F8015B15F0070301D110F8013B2A1113
:1009200006D110F8012B03E010F8016B01F8016B00
:100930005B1EF9D12B0705D40023521E0DD401F8FC
:10094000013BFAE710F8013BCB1A921C03E013F8C5
:10095000015B01F8015B521EF9D5A142D8D30020FA
:1009600070BD21B1826842F00102826003E08268BA
:1009700022F00102826070470021084A1168084A8B
:100980001140D0E900231A4383681A43C3681A430D
:100990001143044AC2F804137047000004230140C5
:1009A000E030FCFF0020014021B1826842F48072F7
:1009B000826003E0826822F480728260704721B115
:1009C000826842F40072826003E0826822F400725E
:1009D0008260704730B50246002000235068104CFA
:1009E00020400D790C6844EA05242043506090684B
:1009F0000C4C2040D1E903542C438D682C434D7995
:100A000044EA450420439060D06A20F470000C7DD5
:100A1000641EE4B2234340EA0350D06230BD0000BC
:100A2000FFFEFFFCFDF7FFC0F0B504460D460020B9
:100A30000021092D11DDE068A5F10A0606EB460745
:100A4000072606FA07F18843A5F10A0606EB4606D3
:100A500003FA06F10843E0600CE0206905EB450766
:100A6000072606FA07F1884305EB450603FA06F167
:100A700008432061072A0FDA606B561E06EB8607D3
:100A80001F2606FA07F18843561E06EB860605FA6E
:100A900006F10843606322E00D2A0FDA206BD61FAF
:100AA00006EB86071F2606FA07F18843D61F06EBDA
:100AB000860605FA06F10843206310E0E06AA2F119
:100AC0000D0606EB86071F2606FA07F18843A2F1FA
:100AD0000D0606EB860605FA06F10843E062F0BD56
:100AE000816841F080418160704700001CB50121A0
:100AF000084605F065FF032000908DF804000020F3
:100B00008DF807006946024803F0FCFC1CBD00009C
:100B10000000024010B54021014803F067FD10BD00
:100B2000000402407047014648780A7840EA0220F3
:100B3000704700001CB54FF48070009001208DF8C4
:100B4000040000208DF8060001208DF80700002029
:100B50008DF805006946024803F0D4FC1CBD000076
:100B6000000002407047704710B50446134890F8E3
:100B7000420020B90021124808F056FC1DE074B96B
:100B80000E4890F84200012804D101210C4808F0D9
:100B90004BFC12E000210A4808F046FC0DE0074833
:100BA00090F84200022804D10121054808F03CFCDD
:100BB00003E00021024808F037FC10BD480E002079
:100BC0000004014000BFFEE710B50121054808F010
:100BD0002BFC05200EF0B4FE0021024808F024FC96
:100BE00010BD00000004014010B505F0DBFE08B1A7
:100BF00000F009F8302000F014F810BD10B53120D5
:100C000000F00FF810BD10B522200FF099FE322031
:100C10000EF091FE0FF08AFE04460FF081FE204692
:100C200010BD10B5044620460FF08AFE0FF078FE86
:100C30000DF0A2FC10BD000000B587B0012181209D
:100C400005F0BEFE0121080305F0FAFE052211465B
:100C5000334803F09FFC05220621314803F09AFC3B
:100C6000052207212E4803F095FC20200590022044
:100C70008DF819008DF8180000208DF81A008DF8F5
:100C80001B0005A9264803F03DFC4020059005A95E
:100C9000234803F037FC8020059005A9204803F085
:100CA00031FC1020059001208DF8180000208DF8EF
:100CB0001A0005A91A4803F025FC20200590002001
:100CC0008DF8180001208DF81B0005A9154803F0C8
:100CD00019FC0020ADF800004FF48270ADF802005E
:100CE0000020ADF804000220ADF806000120ADF8A8
:100CF00008004002ADF80A003820ADF80C000020D2
:100D0000ADF80E000720ADF810006946064807F060
:100D100059FA0121044807F033F807B000BD00007C
:100D200000000240001C0240003001401CB50121BF
:100D30004FF4A47005F044FE2020009002208DF8AE
:100D4000050001208DF8040000208DF80600012028
:100D50008DF8070069460C4803F0D4FB4FF480403F
:100D600000906946094803F0CDFB00208DF804008F
:100D70008DF8060001208DF80700042000906946D8
:100D8000034803F0BFFB1CBD000C024000180240EA
:100D90000020024070B502460C46FF25FF2309E003
:100DA00012F8010B80EA05010648405C80EA030561
:100DB0000548435C201EA4F10106B4B2F0D143EA19
:100DC000052070BD2E1E08082E1F08081CB5012125
:100DD000042005F0F5FD02208DF8050001208DF8B6
:100DE000040000208DF8060001208DF80700802007
:100DF00000906946014803F085FB1CBD00080240D5
:100E00002DE9F041002400272F4890F84060002091
:100E100006F08CFB4FF4FA500EF0C9FD214600207D
:100E200002F0D4F849E04FF4FA500EF0C0FD012072
:100E300007F048FA4FF4FA500EF0B9FD0FF018FA27
:100E40004FF4FA500EF0B3FD002007F03BFA1CB946
:100E500000200DF083FB02E001200DF07FFB4FF43A
:100E6000FA500EF0A4FD0FF0B9FB184890ED000AFF
:100E7000174800EB840080ED000A022C09DA1548BF
:100E800090ED000A1248103000EB840080ED000A5B
:100E90002546611CC8B206F049FB2146002002F03D
:100EA00095F8032C07DB06200B490870064880F8EC
:100EB000406008F081F8601CC4B20748007811282F
:100EC000B1D0BDE8F0810000480E0020580000209D
:100ED000480F00205C000020220000207047000026
:100EE00030B587B00446207855490870607848705E
:100EF000A0788870E11C684608F070F86D469DF88F
:100F000000004F49087101994D4881600299C16004
:100F1000039901610499416105998161A969C161E0
:100F2000607A474981F82000607A81F8200004F156
:100F30000A01684608F052F89DF80000404981F81F
:100F4000240001993E4881620299C16203990163BC
:100F50000499416305998163A969C163207C38497B
:100F600081F84000607C81F8420004F1120168467B
:100F700008F034F89DF80000314981F844000199E7
:100F80002F4881640299C164039901650499416500
:100F900005998165A969C16504F11801684608F0E1
:100FA0001DF89DF80000264981F860000199244849
:100FB0004166029981660399C166049901670599A2
:100FC0004167A969816704F11E01684608F006F8C7
:100FD0009DF800001A4981F87C0001991848C0F872
:100FE00080100299C0F884100399C0F88810049901
:100FF000C0F88C100599C0F89010A969C0F8941039
:1010000004F12401684607F0E9FF9DF800000C494F
:1010100081F8980001990A48C0F89C100299C0F81C
:10102000A0100399C0F8A4100499C0F8A81005995D
:10103000C0F8AC10A969C0F8B01007B030BD00000E
:10104000480E002070B506460C4604F0800080284B
:1010500008D104F07F0000EB800106F58E7000EBF4
:10106000C10507E004F07F0000EB800106F55D702C
:1010700000EBC10504F07F00287004F08000C00977
:101080006870294630460CF035F8002070BD70B508
:1010900006460C4604F08000802808D104F07F004A
:1010A00000EB800106F58E7000EBC10505E004EB56
:1010B000840106F55D7000EBC1050020A87004F006
:1010C0007F002870C4F3C0106870294630460BF0CA
:1010D000E9FF002070BD70B505460C4604F08000A5
:1010E000802805D104F07F0128460CF015FA02E0B3
:1010F00028460CF0EBF9002070BD2DE9F0410646C2
:101100000D4690461F4605F08000802808D105F066
:101110007F0000EB800106F58E7000EBC10407E054
:1011200005F07F0000EB800106F55D7000EBC10467
:1011300005F07F00207005F08000C0096070C4F8E1
:101140000880E770607808B12078E080022F01D134
:1011500000202071214630460BF04CFF0020BDE8F6
:10116000F0812DE9F04105460E461746984606F0F7
:101170007F0000EB800105F55D7000EBC104E760C6
:10118000C4F814800020A061607006F07F00207019
:10119000E878012800D12761207820B92146284627
:1011A0000BF04CFE03E0214628460CF010F800201E
:1011B000BDE8F08108B500220092009A61F30A129E
:1011C000009202691268009B1A4303691A6008BD05
:1011D00070B506460C4604F08000802808D104F063
:1011E0007F0000EB800106F58E7000EBC10505E085
:1011F00004EB840106F55D7000EBC1050120A870C9
:1012000004F07F002870C4F3C0106870294630468F
:101210000BF0ABFF002070BD2DE9F04107460D46F5
:101220001646984605F07F0000EB800107F58E70AA
:1012300000EBC1040120607005F07F002070E660C3
:1012400026610020A061C4F81480207820B92146CE
:1012500038460BF0F3FD03E0214638460BF0B7FFAC
:101260000020BDE8F0811CB5044620460BF0B1FD1E
:10127000E068C068009020460CF078F903280BD194
:101280000020A0704FF40070A080009820F47050EF
:1012900000F51050009009E00120A0704020A080CF
:1012A000009820F4705000F5A05000900098E1687C
:1012B000C86000200190019820F4005000F5005013
:1012C00001900198E168486101201CBDF8B5054610
:1012D00000240020009028460CF087F9064690E094
:1012E00006F0010000287DD0E1B2284600F01EFB88
:1012F0000090009800F0010030B3012000FA04F7DC
:101300002869406BB8432969486300200090009821
:1013100020F00100401C009005F1180050F8240056
:1013200000998160E1B239480068426828469047D8
:10133000E878012808D13CB940F21110405D04283A
:1013400002D128460BF025FE0098C0F3C00060B122
:1013500000200090009820F008000830009005F16F
:10136000180050F82400009981600098C0F3001024
:1013700060B100200090009820F010001030009024
:1013800005F1180050F82400009981600098C0F31E
:10139000801060B100200090009820F040004030A4
:1013A000009005F1180050F8240000998160009821
:1013B000C0F3400060B100200090009820F00200CF
:1013C000801C009005F1180050F8240000998160FD
:1013D0000098C0F3C01028B12146284600F0D0FA8A
:1013E000002000E00BE00090009820F080008030AA
:1013F000009005F1180050F8240000998160641CE9
:101400007608002E7FF46CAF0120F8BDFC010020AF
:101410007CB5044600250020019020460CF0EDF834
:1014200006466FE006F00100002869D0E9B22046C8
:101430000CF0EBF80190019800F00100C8B3002017
:101440000190019820F00100401C019004F154002B
:1014500050F8250001998160E078012817D104F146
:10146000540050F825000069009005EB850104F553
:101470005D7000EBC10080680099C1F31201411A50
:1014800005EB850204F55D7000EBC2008161E9B2F5
:101490001E480068026820469047E078012808D17D
:1014A0003DB940F21110005D052802D120460BF035
:1014B00070FD0198C0F3400060B1002001900198D8
:1014C00020F00200801C019004F1540050F8250027
:1014D000019981600198C0F3C00088B10B48006891
:1014E00081682046884700200190019820F008007C
:1014F0000830019004F1540050F8250001998160F2
:101500006D1C7608002E8DD101207CBDFC010020D1
:101510003EB50446A07A70B1D4F80C010090009852
:1015200020F002000090009820F001000090009947
:10153000D4F80C01016000200190019820F0010016
:10154000401C0190206940680199884321694860E6
:101550000848006881692046884700200290029868
:1015600020F0004000F1004002900298E1684861DC
:1015700001203EBDFC0100207CB504460020019006
:10158000019820F0100010300190E0688069019906
:101590008843E1688861E068006A0090009800F084
:1015A0000F0000EB800104F55D7000EBC1050098B1
:1015B000C0F3434007282DD2DFE800F02C04051DBE
:1015C0001E2C1F0027E00098C0F30A1090B100986D
:1015D000C0F30A122046E9680CF021F8E868009987
:1015E000C1F30A110844E860A8690099C1F30A111F
:1015F0000844A8610FE00EE00DE0082204F2CC518F
:1016000020460CF00CF8A8690099C1F30A110844AF
:10161000A86100E000BF00BFE0688069019908434D
:10162000E168886101207CBD38B50446084800683F
:10163000C1682046884700200090009820F00800EC
:10164000083000900098E1684861012038BD000032
:10165000FC0100201FB50446002000904FF4897063
:10166000005D009023480068416920468847206952
:101670008068019000200390039820F4006000F53A
:10168000006003900398E1684861A07A70B3019804
:1016900000F0010050B340F21510005D012825D183
:1016A0009DF80000032821D100200290029820F02C
:1016B0000100401C0290D4F80C0100680299084314
:1016C000D4F80C110860029820F00200801C0290EF
:1016D000D4F80C01006802990843D4F80C11086092
:1016E0000548006840F0060003490860012004B086
:1016F00010BD0000FC01002010ED00E030B587B007
:1017000004460020029006900590049003900190FA
:10171000029820F00100401C029020694068029964
:10172000884321694860002120460BF0F5FE002522
:101730000BE0FF2104F1180050F82500816004F14E
:10174000540050F8250081606D1C6078A842F0D8E4
:101750004FF0FF312069816106986FF30F00401C44
:101760000690069880B200F58030069006992069B0
:10177000C161059820F0080008300590059820F018
:101780000100401C0590059820F00200801C059087
:1017900005992069416105992069C0F88410049871
:1017A00020F00100401C0490049820F0080008304C
:1017B0000490049820F00200801C04900499206991
:1017C00001610499206941642069006803900398CD
:1017D00020F4FE60039003992069016020460BF01D
:1017E000D8FB00200190019820F4805000F5805033
:1017F00001900198E168486103480068016920464A
:101800008847012007B030BDFC0100202DE9F041E0
:1018100006460F46394630460BF016FF01214FF4BD
:10182000897081550021801C8155002511E005EB50
:10183000850106F58E7000EBC104012060702570F3
:10184000E5800020E0704020A0600020E060606142
:101850006D1C7078A842EAD8002510E005EB8501E0
:1018600006F55D7000EBC104002060702570E58016
:10187000E0704020A0600020E06060616D1C707826
:10188000A842EBD830460BF093FA30460BF0A0F8A4
:10189000002130460BF042FF30460BF026F930466F
:1018A0000BF002FEBDE8F08138B504460020009040
:1018B00007480068C16920468847009820F48010D6
:1018C00000F5801000900098E1684861012038BD63
:1018D000FC01002038B5044600200090074800684D
:1018E000016A20468847009820F4001000F5001097
:1018F00000900098E1684861012038BDFC0100209B
:1019000038B50446E068406800900098C0F3800055
:1019100020B105480068816A204688470098E16840
:101920004860012038BD0000FC01002030B50246AF
:1019300015692B6915696C6B24FA01F505F0010531
:1019400043EAC51302F1180555F82150AD6805EAC0
:10195000030030BD38B5044608480068416A204697
:10196000884700200090009820F0804000F18040DF
:1019700000900098E1684861012038BDFC0100201A
:101980002DE9F84306460F4600250020009007EB9E
:10199000870106F58E7000EBC104D4E90501451AF4
:1019A000A068A84200D2A568E81C4FEA900806F19A
:1019B000180050F827008069009029E0D4E905015B
:1019C000451AA068A84200D2A568E81C4FEA900812
:1019D000ABB2FAB23046E1680BF0C7FEE0682844CB
:1019E000E060A0692844A061D4E90510884209D3C9
:1019F0002278012101FA02F03169496B8143326991
:101A0000516310E006F1180050F82700806900903B
:101A1000009880B2404506D9D4E90510884202D228
:101A200060690028CAD100BF0120BDE8F88310B565
:101A30000121C80504F0D4FF00214FF4000004F098
:101A4000CFFF10BD01460020034A52680A400AB188
:101A5000012000E00020704700B0024070B5002176
:101A6000002200230024344D2D68344E3540324E80
:101A7000356035462D68066835432F4E356035464E
:101A80006D6B25F00705756335466D6B466835430C
:101A9000294E7563456835B9C5682902058A2A0447
:101AA000057D2B0621E04568012D05D1C568290279
:101AB000058A2A04002318E04568022D05D1C5686F
:101AC00069010569EA0200230FE04568032D06D18C
:101AD000C56869010569AA024569EB0305E0C568A7
:101AE000290105692A0245692B0341EA0205866836
:101AF00035431D43104EB66B35430F4EB5638569B4
:101B0000F56335462D6C6FF30D05356435462D6C48
:101B1000C6693543084E3564858C2C0435466D6C9A
:101B200005F04045756435466D6C066A26433543BD
:101B3000014E756470BD000000B00240FCE0FCFF87
:101B40000348006840F00100014908607047000048
:101B500000B0024010B506F0A9F810BD0246094BCE
:101B60009A4201D2084801E00648103801F00053BB
:101B70001BB1064B0B40C36002E0044B0B4083607B
:101B80007047000010640240006002407D0F7D0F2E
:101B900021B1026842F00102026003E0026822F013
:101BA000010202607047000010B500220268134B6A
:101BB0001A40CC680B6823434C6923438C69234348
:101BC000CC6923430C6A23434C6A23438C6A234326
:101BD0004C6B23438C6B23431A430260426922F00F
:101BE0000702D1E90B3423431A4342610B69436076
:101BF0004B6883608B68C36010BD00003F801CF0A1
:101C00001CB5094B1B788DF806300091074B9B5C87
:101C10008DF80430064B9B5C8DF80530DDE900340F
:101C2000C0E900341CBD00001E00002000160108A1
:101C30000B160108704730B58FB0054602F0FAF96F
:101C400001222946684600F031FF6C469DF80000ED
:101C50008DF820000198099002980A9003980B9043
:101C600004980C9005980D9006980E9008A800F026
:101C700033F8079007980FB030BD30B58FB00546E8
:101C800002F0EEF900222946684600F00FFF6C468C
:101C90009DF800008DF820000198099002980A90A4
:101CA00003980B9004980C9005980D9006980E9050
:101CB00008A800F004F8079007980FB030BD01465F
:101CC000486842F21072904204D948680A22B0FB78
:101CD000F2F0486048687047014648687047000065
:101CE00008B50020009031E01B489DF8001050F826
:101CF00031001A499DF8002001EBC2014968884271
:101D00000CD815489DF8001050F8310013499DF883
:101D1000002001EBC2014968884212D29DF8000000
:101D2000042807DA4FF47A710B489DF8002040F838
:101D3000321006E04EF6602107489DF8002040F87A
:101D400032109DF80000401CC0B200909DF80000C9
:101D50000628C9DB08BD0000FC0E00208C00002016
:101D600010B528216FF07F4003F06EFF1E234FF463
:101D7000C4720A21104603F0C5FC0A234FF4D8723E
:101D800019464FF4C47003F0BDFC1E234FF4D87203
:101D900019464FF4C47003F0B5FC0F234FF4D8720A
:101DA0000A21104603F0AEFC0F2340F2B51219468B
:101DB000501F03F0A7FC192340F2B5120F21104663
:101DC00003F0A0FC192340F2B5121946501F03F08E
:101DD00099FC1E234FF4D8721921104603F092FC8F
:101DE00004212C4802F0F9FB28B14FF47F402A4926
:101DF0000860486003E028202749086048601123F4
:101E000007220C2140F28B1003F046FB08212148E9
:101E100002F0E3FB28B14FF47F401F49086048609F
:101E200003E028201C4908604860112307220C2188
:101E30004FF4CA7003F030FB4021184802F0CDFB8C
:101E400028B14FF47F4014490860486003E028201F
:101E5000114908604860112307220C2140F29D10AF
:101E600003F01AFB40210B4802F0B7FB28B14FF4F6
:101E70007F4009490860486003E02820064908605F
:101E80004860112307220C214FF4D37003F004FBA8
:101E900010BD000000180240180100200008024098
:101EA0007CB50546F948FA490860012D01D10120A9
:101EB00000E000200090009820B14FF47F00F4492A
:101EC000486002E02820F2494860F24890F8E800B3
:101ED00008B1F14C00E0F14C2223A02228219020EF
:101EE00003F0DAFAEB480078C0EBC00002190023D7
:101EF0002821A0200CF052FB022D01D1012000E08E
:101F000000200090009820B14FF47F00E049486025
:101F100002E02820DE494860DE4890F8E80008B179
:101F2000DF4C00E0DF4C2223A0224A21902003F066
:101F3000B3FAD8484078C0EBC000021900234A2108
:101F4000A0200CF02BFB032D01D1012000E000208C
:101F50000090009820B14FF47F00CD49486002E026
:101F60002820CB494860CB4890F8E80008B1CE4C17
:101F700000E0CE4C2223A0228E21902003F08CFA88
:101F8000C4488078C0EBC000021900238E21A02035
:101F90000CF004FB042D01D1012000E00020009092
:101FA000009820B14FF47F00B949486002E0282032
:101FB000B7494860B74AD268D1B2B64A90680023A0
:101FC000052202F019FB2223A022AA21902003F06F
:101FD00063FAB74AAA21902003F06AF8AD48006975
:101FE000B44901EB80020023B2214FF480700CF061
:101FF000D5FA052D01D1012000E0002000900098C5
:1020000020B14FF47F00A249486002E02820A04997
:102010004860A04890F8E80008B1A34C00E0A34C49
:102020002223A022F421902003F036FA994890F858
:102030002000C0EBC00002190023F62190200CF014
:10204000ADFA062D01D1012000E00020009000989B
:1020500020B14FF47F008E49486002E028208C496F
:1020600048608C4AD26AD1B28A4A906A002306221A
:1020700002F0C2FA2223A022D900902003F00CFA29
:102080008B4A4FF48871902003F012F800238AA243
:102090004FF48C714FF488700CF080FA072D01D149
:1020A000012000E000200090009820B14FF47F0054
:1020B0007749486002E0282075494860754890F8E3
:1020C000E80008B17D4E00E07D4E2223A0222821A9
:1020D0004FF4F07003F0E0F96E4890F8410038B921
:1020E0000023324628214FF4F8700CF057FA0EE026
:1020F000684890F84000401C00EB400101EBC00034
:102100008219002328214FF4F8700CF047FA082DAB
:1021100001D1012000E000200090009820B14FF490
:102120007F005B49486002E02820594948605948CF
:1021300090F8E80008B1634C00E0634C2223A02231
:102140004A214FF4F07003F0A7F9524890F842008A
:10215000C0EBC000021900234A214FF4F8700CF0C4
:102160001DFA092D01D1012000E000200090009807
:1021700020B14FF47F004649486002E028204449DE
:102180004860444AD26CD1B2424A906C0023052286
:1021900002F032FA2223A02286214FF4F07003F0DD
:1021A0007BF9434A88214FF4F07002F081FF3948EF
:1021B000006D404901EB8002002390214FF4147020
:1021C0000CF0ECF90A2D01D1012000E00020009074
:1021D000009820B14FF47F002D49486002E028208C
:1021E0002B4948602B4A926ED1B22A4A506E002386
:1021F000052202F001FA2223A022AA214FF4F07056
:1022000003F04AF92A4AAA214FF4F07002F050FF75
:102210002048C06E274901EB80020023B2214FF411
:1022200014700CF0BBF90B2D01D1012000E000204F
:102230000090009820B14FF47F001549486002E0FB
:10224000282013494860134AD2F88420D1B2114A99
:10225000D2F880000023062202F0CEF92223A02229
:10226000EE214FF4F07003F017F9114AEE214FF40C
:10227000F07002F01DFF00230FA2F6214FF418703A
:102280000CF08CF90C2D21D1012020E000FFFF0083
:1022900018010020480E0020C7110108B9110108DB
:1022A000F1110108D51101081B1201080D120108D6
:1022B000840000201113010856000000B912010823
:1022C000611201083E120108291201080020009045
:1022D000009820B14FF47F00EF49486002E02820C9
:1022E000ED494860ED4AD2F8A020D1B2EB4AD2F8CD
:1022F0009C000023062202F07FF92223A022D900AD
:102300004FF4F07003F0C8F8E54A4FF488714FF4C9
:10231000F07002F0CDFE0023AFF264024FF48C7136
:102320004FF418700CF03AF900F088FBDD48DA49F8
:1023300008600D2D72D2DFE805F0070B2D4F729467
:10234000B6D8FDFCFBFAF900002000F0C9F9A1E1C4
:102350000020D1494860D14890F8E80008B1D24C3B
:1023600000E0D24C0020019010E00199C1EBC101C6
:102370000A192023019903EBC11188B200234FF4FD
:10238000D8710CF00BF90198401C019001980228BB
:10239000EBD37FE10020C0494860C04890F8E800D6
:1023A00008B1C34C00E0C34C0020019010E001993B
:1023B000C1EBC1010A192023019903EBC11188B2B5
:1023C00000234FF4D8710CF0E9F80198401C0190FB
:1023D00001980428EBD35DE10020AF494860AF4885
:1023E00090F8E80008B1B44C00E0B44C0020019033
:1023F00010E00199C1EBC1010A192023019903EBF7
:10240000C11188B200234FF4D8710CF0C7F80198BD
:10241000401C019001980228EBD33BE139E10020F8
:102420009D4948609D4890F8E80008B1A44C00E040
:10243000A44C0020019010E00199C1EBC1010A19E0
:102440002023019903EBC11188B200234FF4D87106
:102450000CF0A4F80198401C019001980028EBD0E2
:1024600018E100208C4948608C4890F8E80008B1D9
:10247000914C00E0914C0020019010E00199C1EBDB
:10248000C1010A192023019903EBC11188B200236D
:102490004FF4D8710CF082F80198401C019001981B
:1024A0000228EBD3F6E000207B4948607B4890F897
:1024B000E80008B1824C00E0824C0020019010E05E
:1024C0000199C1EBC1010A192023019903EBC11144
:1024D00088B200234FF4D8710CF060F80198401CCA
:1024E000019001980028EBD0D4E000206A494860B0
:1024F0006A4890F8E80008B1734E00E0724E002080
:10250000019012E0019901EB410303EBC1018A192B
:102510001023019903EBC11188B200234FF4D87145
:102520000CF03CF80198401C019004E08FE06CE056
:1025300049E026E003E001980528E3D3AAE0002063
:1025400055494860554890F8E80008B15F4C00E0F4
:102550005F4C0020019010E00199C1EBC1010A1904
:102560001023019903EBC11188B200234FF4D871F5
:102570000CF014F80198401C019001980328EBD34B
:1025800088E0002044494860444890F8E80008B1D9
:102590004B4C00E04B4C0020019010E00199C1EB46
:1025A000C1010A192023019903EBC11188B200234C
:1025B0004FF4D8710BF0F2FF0198401C0190019884
:1025C0000028EBD066E0002033494860334890F89B
:1025D000E80008B13A4C00E03A4C0020019010E0CD
:1025E0000199C1EBC1010A192023019903EBC11123
:1025F00088B200234FF4D8710BF0D0FF0198401C33
:10260000019001980028EBD044E000202249486066
:10261000224890F8E80008B1294C00E0294C00203D
:10262000019010E00199C1EBC1010A192023019921
:1026300003EBC11188B200234FF4D8710BF0AEFF49
:102640000198401C019001980028EBD022E0002066
:1026500011494860114890F8E80008B1184C00E0B2
:10266000184C0020019010E00199C1EBC1010A193A
:102670002023019903EBC11188B200234FF4D871D4
:102680000BF08CFF0198401C019001980028EBD0C2
:1026900000E000BF00BF7CBD18010020480E0020F4
:1026A000840000209FFF5400C7110108B9110108E0
:1026B000F1110108D51101081B1201080D120108C2
:1026C0005A120108531201081D1301083E12010895
:1026D0002912010810B5002000F002F810BD00001A
:1026E00010B5044600F0AAF9002C7CD16D486E4963
:1026F0000860002048606D4890F8E80000284FD03E
:1027000000236BA240F2A51120200BF047FF00230D
:1027100069A24FF4E07120200BF040FF002364A277
:1027200040F2A511A0200BF039FF002364A24FF462
:10273000E071A0200BF032FF002363A240F2A5114C
:102740004FF490700BF02AFF00235DA24FF4E0716C
:102750004FF490700BF022FF00235DA240F2A51110
:10276000481F0BF01BFF00235AA24FF4E0714FF4F7
:10277000D0700BF013FF5948007806280FD10023C2
:1027800057A240F2A5114FF408700BF007FF002389
:1027900055A24FF4E0714FF408700BF0FFFE80E09B
:1027A000002353A240F2A51118200BF0F7FE0023DE
:1027B00051A24FF4E07118200BF0F0FE00234CA260
:1027C00040F2A51198200BF0E9FE00234CA24FF433
:1027D000E07198200BF0E2FE00234BA240F2A5111D
:1027E0004FF48C7000E02EE00BF0D8FE002344A2E2
:1027F0004FF4E0714FF48C700BF0D0FE002342A236
:1028000040F2A5114FF4CC700BF0C8FE002340A29B
:102810004FF4E0714FF4CC700BF0C0FE2F480078FD
:1028200006283ED100233CA240F2A5114FF40670C9
:102830000BF0B4FE00233AA24FF4E0714FF406709F
:102840000BF0ACFE2DE0012C2BD16FF07F40164930
:10285000086000204860002333A2EC2154200BF0D4
:102860009DFE002332A2FB2154200BF097FE002393
:1028700031A2EC21A4200BF091FE002330A2FB2119
:10288000A4200BF08BFE00232FA2EC214FF4CA7082
:102890000BF084FE00232EA2FB214FF4CA700BF034
:1028A0007DFE10BD9FFF540018010020480E00203F
:1028B0004D454153000000004449535000000000C2
:1028C0005345545550000000205359530000000058
:1028D00053595300494E464F00000000220000208B
:1028E000434C45415200000056414C554500000004
:1028F000B2E220C1BF000000CFD420CABE00000059
:10290000C9E820D6C3000000CFB520CDB300000039
:10291000D0C520CFA2000000B6CC20C2B700000076
:10292000C7E520C1E3000000CEC4BCFE00000000EB
:10293000B9DCC0ED00000000B1A3B4E60000000067
:10294000CAFDBEDD00000000B8FCB6E000000000DB
:1029500020322F32000000000FB410B59DF808009F
:1029600090B19DF80800042807DD9DF810100023A1
:102970000622039801F040FE06E09DF8181000239F
:102980000722059801F038FE9DF80800C0EB001002
:10299000400000F128010123034A4FF4A0700BF01E
:1029A000FDFD10BC5DF814FB8400002001B582B071
:1029B0000020019032E09DF808100198401C8142EF
:1029C00004D14FF47F001949486002E028201749DC
:1029D00048600198401CC0EB00104000283081B2D4
:1029E0001E235A22A02002F057FD114A019BD15C00
:1029F000104A52F833000023062201F0FDFD019831
:102A0000401CC0EB00104000283081B201230A4A6C
:102A1000A0200BF0C3FD0198401C019001980628EE
:102A2000C9D32820014948600EBD000018010020CC
:102A3000FB000020FC0E00208400002010B50024C4
:102A40002CE0002017494860A100C4EB441201EBC0
:102A5000820188B242237C224FF4CF7102F01CFD28
:102A6000114810494860C4EB44118900042202FB5C
:102A7000041188B202237C224FF4CF7102F00CFDC6
:102A8000C4EB44118900042202FB041188B24223E2
:102A900002224FF4CF7102F0FFFC641C052CD0D34E
:102AA00010BD00001801002030303000F0B593B0A8
:102AB00005460E461746012012900C9000200B9000
:102AC0000A90099008900390029004900D9009E0FC
:102AD00020200FA99DF8342088549DF83400401C14
:102AE000C0B20D909DF834000728F1DB00208DF86E
:102AF00043000FB1062400E00524A1E10A2002F002
:102B0000DDF90E909DF83800FF286FD0FEF75CF8D5
:102B100001200C909DF838000A38362867D2DFE88B
:102B200000F0F93E7764F878626E7566631B67762D
:102B30006679666666666666666666666666666622
:102B40006666666666666666F77A8998A7B6C5D4CD
:102B5000E3FA6666F5F4F3F20020049012909DF813
:102B60002000A04218DA9DF82C00A8B99DF820009A
:102B700000280CDD2E200FA99DF8202088549DF8F8
:102B800020000A909DF82000401CC0B208909DF8DB
:102B90002C00401CC0B20B90012005903AE10120AE
:102BA0000490002012909DF82000A04218DA9DF8B1
:102BB0002C00A8B99DF8200000280CDD2E200FA9BC
:102BC0009DF8202088549DF820000A909DF8200050
:102BD000401CC0B208909DF82C00401CC0B20B9065
:102BE0000120059016E100BF00BF13E113E110E1E1
:102BF0000620C94908700020129005900AE10020C3
:102C0000129005901220C449087003E100BF00BF74
:102C100000BF00BFFEE09DF82000A04209DA31208D
:102C20000FA99DF8202088549DF82000401CC0B2B8
:102C30000890EFE09DF82000A04209DA32200FA9A9
:102C40009DF8202088549DF82000401CC0B20890B8
:102C5000E0E09DF82000A04209DA33200FA99DF89A
:102C6000202088549DF82000401CC0B20890D1E07C
:102C70009DF82000A04209DA34200FA99DF82020F9
:102C800088549DF82000401CC0B20890C2E09DF816
:102C90002000A04209DA35200FA99DF82020885491
:102CA0009DF82000401CC0B20890B3E09DF82000C1
:102CB000A04209DA36200FA99DF8202088549DF8FB
:102CC0002000401CC0B20890A4E09DF82000A04263
:102CD00009DA37200FA99DF8202088549DF820009C
:102CE000401CC0B2089095E09DF82000A04209DA8F
:102CF00038200FA99DF8202088549DF82000401C02
:102D0000C0B2089086E083E081E07FE07DE002E0F1
:102D100010E01EE03FE09DF82000A04209DA3920D3
:102D20000FA99DF8202088549DF82000401CC0B2B7
:102D300008906FE09DF82000A04209DA30200FA92A
:102D40009DF8202088549DF82000401CC0B20890B7
:102D500060E09DF82000A0421CDA9DF820000028C9
:102D600018DD9DF82C00A8B99DF8200000280CDD86
:102D70002E200FA99DF8202088549DF820000A904D
:102D80009DF82000401CC0B208909DF82C00401C0B
:102D9000C0B20B903EE09DF82000002813DD9DF8A6
:102DA0002000401EC0B2089020200FA99DF82020CE
:102DB00088549DF828009DF82010884224D10020D6
:102DC0000B900A9020E00FA89DF82010405C28B9D5
:102DD0002D200FA99DF82020885410E00FA89DF801
:102DE0002010405C2D2805D12B200FA99DF8202014
:102DF000885404E02D200FA99DF8202088549DF8C8
:102E00002000401CC0B2089004E000BF00BF00BF1B
:102E100000E000BF00BF9DF8300088B100200C909A
:102E20003E4908604FF6FF704860B288718830886C
:102E3000222302F031FB718830880FAA02F038F9A2
:102E40009DF8480000287FF459AE9DF820000D90B1
:102E500009E030200FA99DF8342088549DF83400F3
:102E6000401CC0B20D909DF83400A042F1DB002060
:102E70000D9039E09DF83C00302830DB9DF83C0097
:102E800039282CDC0FA89DF83410405C302826DB54
:102E90000FA89DF83410405C392820DC9DF82800EC
:102EA0009DF8341088420DDD029800EB8000400050
:102EB000029002990FA89DF83420805C30380844B5
:102EC00002900CE0029800EB800040000290029912
:102ED0000FA89DF83420805C3038084402909DF89B
:102EE0003400401CC0B20D909DF83400A042C1DBFC
:102EF0009DF8280003909DF80400287002986860EF
:102F00000398A8600498E8600598286106986861AD
:102F10000798A86113B0F0BD22000020180100201E
:102F200010B517484468282015494860022315A2A7
:102F3000A02190200BF03EFB022312A24FF48271DD
:102F400090200BF037FBFDF7C9FF00210F4806F07A
:102F50006BFA282428200A49486017235A2240F295
:102F60003B1140F2122002F097FA054844600849EC
:102F700091F841000749097800F028F810BD0000D9
:102F8000180100202D2D2D2D2D2D000000040140B5
:102F9000480E00202500002008B50A4837232822C3
:102FA000C62100904FF4F87002F0D8FE064837238F
:102FB00028224FF4957100904FF4F87002F0CEFE85
:102FC00008BD00009C240908212C090870B504469E
:102FD0000D46012C00DD0124062D00DD06252820EC
:102FE00009494860C4EBC40000EB4000074901EB0D
:102FF000800005EB450100EB81024FF4B8714FF4FE
:10300000DC7002F055F870BD1801002004150108AD
:1030100070B596B004460E4601F00CF80122314618
:1030200001A8FFF743FD01AD9DF804008DF83C00B9
:10303000029810900398119004981290059813909C
:1030400006981490079815900FA901A801F07CFB31
:103050009DF804008DF820000298099003980A90CA
:1030600004980B9005980C9006980D9007980E9078
:103070000C9818B900200A9009900B909DF8200038
:103080002070099860600A98A0600B98E0600C9826
:1030900020610D9860610E98A06116B070BD70B58A
:1030A00096B004460E4600F0DBFF0022314601A830
:1030B000FFF7FCFC01AD9DF804008DF83C00029880
:1030C0001090039811900498129005981390069808
:1030D0001490079815900FA901A808F00DFA9DF813
:1030E00004008DF820000298099003980A90049833
:1030F0000B9005980C9006980D9007980E900C98E0
:1031000018B900200A9009900B909DF820002070BB
:10311000099860600A98A0600B98E0600C982061A4
:103120000D9860610E98A06116B070BD70B500F08A
:1031300095F86FF07F401C4908601C4848601C48A7
:1031400090F8E80008B11B4E00E01B4E002306F18A
:10315000DC02042118460BF021FA184812490860D5
:1031600028204860124890F8E80008B1144D00E0AB
:10317000144D00240EE0C4EBC40000EB40004219E3
:103180002A2304FB03F0283081B2002318460BF0F9
:1031900005FA641C042CEED30B4A9E21962001F004
:1031A00087FFFFF797FA70BD180100200352F30064
:1031B000480E00205F0F01086D0E010800D7FF00C8
:1031C000B01401085C140108600F002070B500F015
:1031D00045F86FF07F401949086019484860194860
:1031E00090F8E80008B1184E00E0184E002306F1F0
:1031F000B002042118460BF0D1F915480F490860B8
:10320000282048600F4890F8E80008B1114D00E010
:10321000114D00240EE004EB440000EBC400421901
:103220002A2304FB03F0283081B2002318460BF058
:10323000B5F9641C082CEED370BD00001801002005
:103240000352F300480E00205F0F01086D0E0108C5
:10325000FFF59800AC1301085413010810B500F0F5
:1032600063FEFFF7EBFB10BD7FB50446F648F74958
:10327000086000208DF80700012C01D1012000E03A
:1032800000200290029820B14FF47F00EF4948607F
:1032900002E02820ED494860ED4890F8E80008B1C8
:1032A000EC4D00E0EC4D2223A0222821902002F0DA
:1032B000F3F8E74890F8E400C0EBC0004219282179
:1032C000902001F047FF022C01D1012000E00020F6
:1032D0000290029820B14FF47F00DC49486002E080
:1032E0002820DA4948602223A0224A21902002F0B7
:1032F000D3F8D74890F8E500C0EBC000D749421892
:103300004A21902001F0D4FE032C01D1012000E0DD
:1033100000200290029820B14FF47F00CB49486012
:1033200002E02820C9494860C94890F8E80008B17F
:10333000C84D00E0C84D2223A0227C21902002F03D
:10334000ABF8C34890F8E600C0EBC0004219002378
:103350007C2190200BF022F9042C01D1012000E007
:1033600000200290029820B14FF47F00B7494860D6
:1033700002E02820B5494860B54890F8E80008B157
:10338000B44D00E0B44D2223A022A621902002F0EB
:1033900083F8AF4890F8E700C0EBC0004219002363
:1033A000A62190200BF0FAF8052C01D1012000E0B5
:1033B00000200290029820B14FF47F00A34948609A
:1033C00002E02820A14948602223A022D021902099
:1033D00002F062F89E4890F8E800A14901EBC002B3
:1033E0000023D02190200BF0D9F801A9002003F090
:1033F00089FC6946002003F04BFC062C01D101201A
:1034000000E000200290029820B14FF47F008F4925
:10341000486002E028208D49486022232022F521BF
:10342000902002F039F89DF803208EA18F480BF010
:103430002FF98E4AF521902001F03AFE2820834989
:1034400048608BA2F521B02001F032FE072C01D19B
:10345000012000E000200290029820B14FF47F008C
:103460007A49486002E028207849486022232022D7
:10347000F521C02002F010F89DF8012079A17B48C9
:103480000BF006F9794AF521C02001F011FE282041
:103490006E49486076A2F521E02001F009FE082C73
:1034A00001D1012000E000200290029820B14FF4E9
:1034B0007F006649486002E0282064494860222372
:1034C0002022F521F02001F0E7FF9DF8022065A100
:1034D00066480BF0DDF8654AF521F02001F0E8FDC3
:1034E000092C01D1012000E000200290029820B1B7
:1034F0004FF47F005549486002E028205349486056
:103500002223202240F21F11902001F0C5FF9DF8D8
:10351000042054A155480BF0BBF8544A40F21F1147
:10352000902001F0C5FD28204849486051A240F292
:103530001F11B02001F0BCFD0A2C01D1012000E0D8
:1035400000200290029820B14FF47F003F4948606C
:1035500002E028203D4948602223202240F21F112A
:10356000C02001F099FF9DF805203EA13F480BF0D7
:103570008FF83E4A40F21F11C02001F099FD28202B
:10358000324948603BA240F21F11E02001F090FD5B
:103590000B2C01D1012000E000200290029820B104
:1035A0004FF47F002949486002E0282027494860FD
:1035B0002223202240F21F11F02001F06DFF9DF820
:1035C000062028A129480BF063F8284A40F21F1171
:1035D000F02001F06DFD0C2C01D1012000E0002055
:1035E0000290029820B14FF47F001849486002E031
:1035F0002820164948602223A0224FF4A77190206A
:1036000001F04AFF0023124AE9324FF4A7719020DB
:103610000AF0C4FFFFF712FA17480C4908600020AF
:1036200048600C2C7BD2DFE804F00609425B7B9AF1
:10363000AAABACADAEAFFFF74DF8BEE0044890F8D2
:10364000E800D8B1034D1AE000FFFF001801002088
:10365000480E00201B1201080D1201080414010875
:103660003C14010825303264000000008400002072
:103670002D0000003A0000009FFF5400504D002034
:10368000039010E00399C1EBC1014A19202303996B
:1036900003EBC11188B200234FF4D8710AF07EFF0A
:1036A0000398401C039003980228EBD385E0002088
:1036B000039011E00399C1EBC101424BCA181023DA
:1036C000039903EBC11188B200234FF4D8710AF0BB
:1036D00065FF0398401C039003980528EAD36CE02B
:1036E000394890F8E80008B1384D00E0344D00202A
:1036F000039010E00399C1EBC1014A1920230399FB
:1037000003EBC11188B200234FF4D8710AF046FFD1
:103710000398401C039003980228EBD34DE04BE044
:10372000294890F8E80008B1284D00E0244D002019
:10373000039010E00399C1EBC1014A1920230399BA
:1037400003EBC11188B200234FF4D8710AF026FFB1
:103750000398401C039003980228EBD32DE000232C
:103760001B4A4FF4D87110200AF018FF0023184AA2
:1037700008324FF4D87184200AF010FF1DE000BF1A
:1037800000BF00BF00BF00BF0020039010E0114940
:10379000039B01EBC3021946102303EBC11188B24E
:1037A00000234FF4D8710AF0F9FE0398401C0390EF
:1037B00003980228EBD300E000BF00BF7FBD0000EC
:1037C0000D12010804140108480E00201B12010804
:1037D0003C1401084C14010810B500F0A5FBFFF7DC
:1037E0002DF910BD10B500F09FFBFFF727F910BDB4
:1037F00070B5FFF7F1FF6FF07F402649086026485B
:103800004860264890F8E80008B1254E00E0254EB3
:1038100000233246052118460AF0C0FE4BF6FF7021
:103820001C490860282048601C4890F8E80008B14E
:103830001D4D00E01D4D002425E0032C10D204EBAB
:10384000840005EB400204EB440000EBC400282395
:1038500003EB80000A3081B2002001F07BFC11E014
:1038600004EB840005EB4002E01E00EB400303EB99
:10387000C000282303EB80000A3081B24FF4A87007
:1038800001F068FC641C062CD7D30020FEF728FF4B
:1038900070BD0000180100200352F300480E002004
:1038A0005F0F01086D0E0108310E0108F50D0108CA
:1038B00070B5FFF797FF6FF07F40254908602548F6
:1038C0004860254890F8E80008B1244E00E0244EF6
:1038D000002306F15802042118460AF05FFE214831
:1038E0001B490860282048601B4890F8E80008B190
:1038F0001D4D00E01D4D282015494860002420E0A2
:10390000092C0DD204EB840005EB400204EB0410FB
:103910004000283081B2002318460AF03FFE0FE035
:1039200004EB840005EB4002A4F1090000EB001059
:103930004000283081B200234FF4A8700AF02EFE18
:10394000641C122CDCD30020FEF7CAFE70BD000000
:10395000180100200352F300480E00205F0F0108F9
:103960006D0E0108FFF598000511010851100108BE
:103970007CB50446F84890F8E80008B1F74D00E03F
:10398000F74D012C01D1012000E0002000900098AB
:1039900020B14FF47F00F349486002E02820F1494C
:1039A00048601D23A0223221902001F075FDEE48D1
:1039B000EC490860E8480078C0EBC00042193221A9
:1039C000902001F0C7FB022C01D1012000E0002073
:1039D0000090009820B14FF47F00E249486002E077
:1039E0002820E0494860DC4A926ED1B2DA4A506E33
:1039F0000023052200F000FE2223A0225621902061
:103A000001F04AFDD94A5621902001F051FBD248DD
:103A1000C06ED74901EB80025C214FF4807001F049
:103A200099FB032C01D1012000E0002000900098B8
:103A300020B14FF47F00CB49486002E02820C949FB
:103A40004860C54AD268D1B2C34A906800230522B3
:103A500000F0D2FD2223A0228221902001F01CFD43
:103A6000C24A8221902001F023FBBB480069C04973
:103A700001EB800288214FF4807001F06BFB042C75
:103A800001D1012000E000200090009820B14FF407
:103A90007F00B449486002E02820B2494860AE483F
:103AA00090F8E80008B1B34E00E0B34E1D23922217
:103AB00032214FF4F07001F0EFFCA74890F841007C
:103AC00030B9324632214FF4F07001F043FB0DE083
:103AD000A14890F84000401C00EB400101EBC00001
:103AE000821932214FF4F07001F034FB052C01D122
:103AF000012000E000200090009820B14FF47F00EA
:103B00009849486002E0282096494860924AD2F8D5
:103B1000A020D1B2904AD2F89C000023062200F0E7
:103B20006BFD2223982256214FF4F07001F0B4FC73
:103B30008E4A56214FF4F07001F0BAFA8FA25C2140
:103B40004FF4187001F006FB062C01D1012000E0B3
:103B500000200090009820B14FF47F008149486018
:103B600002E028207F4948607B4AD26AD1B27A4A73
:103B7000906A0023062200F03FFD22239822822132
:103B80004FF4F07001F088FC784A82214FF4F07015
:103B900001F08EFA79A288214FF4187001F0DAFA58
:103BA000FEF74CFF072C72D2DFE804F004082B4E1E
:103BB0007290B3000020FEF793FDEAE07048694977
:103BC000086000204860644890F8E80008B1634D40
:103BD00000E0634D002001900FE00199C1EBC101AD
:103BE0004A192023019903EBC11188B24FF4D8710F
:103BF00001F0B0FA0198401C019001980228ECD322
:103C0000C7E05F485749086000204860524890F874
:103C1000E80008B15B4D00E05B4D002001900FE033
:103C20000199C1EBC1014A192023019903EBC1118C
:103C300088B24FF4D87101F08DFA0198401C0190C0
:103C400001980028ECD0A4E04D48464908600020C7
:103C50004860414890F8E80008B14A4D00E04A4DFC
:103C6000002001900FE00199C1EBC1014A19202306
:103C7000019903EBC11188B24FF4D87101F06AFACF
:103C80000198401C019001980028ECD081E07FE071
:103C90003B483449086000204860019012E00199D7
:103CA00001EB410303EBC101384BCA181023019902
:103CB00003EBC11188B24FF4D87101F04BFA0198AF
:103CC000401C019001980528E9D362E02C48254961
:103CD000086000204860204890F8E80008B1294DAD
:103CE00000E0294D002001900FE00199C1EBC101D6
:103CF0004A192023019903EBC11188B24FF4D871FE
:103D000001F028FA0198401C019001980028ECD09D
:103D10003FE01B4813490860002048600E4890F8B7
:103D2000E80008B1174D00E0174D002001900FE0AA
:103D30000199C1EBC1014A192023019903EBC1117B
:103D400088B24FF4D87101F005FA0198401C019037
:103D500001980028ECD01CE0480E0020C711010893
:103D6000B91101081801002000FFFF0084000020A5
:103D700011130108B9120108611201085600000070
:103D80009FFF54005A120108531201081D13010825
:103D900000BF00BF7CBD00007FB582B00A9E029DBF
:103DA0002820554948606FF07F400860002404E0F7
:103DB000002052490855601CC4B2092CF8DB48F6B3
:103DC000B800854209D9002404E02D204B4908554C
:103DD000601CC4B2062CF8DB06E09DF80C10002332
:103DE0000522284600F008FC454844490A68C0F806
:103DF00003200979C171434840490A684261097941
:103E0000017641484079414901EB80013D480A88EB
:103E1000A0F819208978C17609203A494877022309
:103E2000364AA02190200AF0C5FB394800780328C3
:103E300009DA384837232822C62100904FF4E07071
:103E400001F08CFF08E0344837232822C621009077
:103E50004FF4E07001F082FF9DF81410002305225A
:103E6000049800F0C9FB2648C01C24490A688260F7
:103E7000898881812348C01C20490A68C2618988D9
:103E800001845621C01E80F8261009201D4981F8A2
:103E90002700084621A10988A0F82D109DF81600DA
:103EA00038B102231EA24FF4827160200AF082FB17
:103EB00006E002231BA24FF4827160200AF07AFB15
:103EC00002230E4A4FF4827190200AF073FB9DF892
:103ED000160028B120200A4988720A49887704E030
:103EE0002D20074988720749887707484179044897
:103EF000417206B070BD000018010020840000204F
:103F0000F80200200D030020DC000020111301083E
:103F10002500002063210908C22609080D0A0000B7
:103F2000200000002D00000010B50548054948603C
:103F300021234FF482720021084601F0ADFA10BD32
:103F40000352F3001801002038B5044610480568F4
:103F500028200F494860012C03D14FF47F400860AE
:103F60000AE0022C04D14FF47F000949086003E005
:103F70004FF47F0006490860064820231A460421B2
:103F800000904FF4DC7001F0E9FE0148056038BD97
:103F900018010020B856090810B500F045F86FF078
:103FA0007F401C4908601C48486000231B4A0421CC
:103FB00018460AF0F3FA6FF07F401649086028208F
:103FC000486000240EE004EB840101EBC401144BB3
:103FD000CA1804EB84014905080C002328210AF0C3
:103FE000DDFA641C032CEED3002410E004EB840003
:103FF00000EBC4000B4BC218601CC0EB001040006B
:10400000283081B2002318460AF0C8FA641C062C36
:10401000ECD310BD180100200352F300DB0E0108A1
:10402000800D0108A70D010810B5FFF77DFFFEF711
:1040300005FD10BD10B5FEF701FD002005494860E3
:1040400005480860002305A24FF4D87130200AF01B
:10405000A5FA10BD180100209FFF54002056200033
:1040600010B5FEF7EBFC00200949486009480860DC
:10407000002309A24FF4D87120200AF08FFA002300
:1040800007A24FF4D871A0200AF088FA10BD0000F2
:10409000180100209FFF54006DA6B820000000000A
:1040A00020A6B8200000000000B58BB00AA90020AF
:1040B00002F028FE09A9002002F0EAFD9DF82A007E
:1040C00000909DF829309DF828200DA101A80AF044
:1040D000DFFA28200F49486001AA03214FF4F3704A
:1040E00000F0E6FF0C4801990160029941609DF8DB
:1040F0000C10017209200849C8740BB000BD000003
:104100002025302E32643A25302E32643A25302E66
:1041100032640000180100200D03002010B50820B3
:1041200000F03CF830B314480BF041FC0821134870
:1041300000F053FAD8B900201149087011480078EE
:1041400030B100200F4908700F200F49087005E0BA
:1041500001200C49087002200B4908700920012138
:1041600081400A4A430942F8231000BF00BF0820DB
:1041700000F00EF810BD0000A08601000010024003
:10418000770000202C0000202200002080E100E0C9
:104190000149086070470000143C014001460020BE
:1041A000034A12680A400AB1012000E0002070476B
:1041B000143C0140002123498279002A3AD00A4662
:1041C000126803689A430B461A600A1D1268036856
:1041D0009A430B1D1A60027911440A6803681A4356
:1041E0000A60184A0832126803689A43154B08336C
:1041F0001A601A1D126803689A43124B0C331A6036
:104200004279102A0ED11A1F126803681A430D4B07
:1042100008331A601A1D126803681A43094B0C33DD
:104220001A600DE00749427911440A6803681A438D
:104230000A6005E0027911440A6803689A430A603B
:1042400070470000003C014010B5024600200023EA
:10425000102A03D14FF02044636E0FE0B2F5807F47
:1042600002D10A4C236809E0B2F5805F03D1074C04
:104270002034236802E0054CD434236803EA0104A7
:104280008C4201D0002000E0012010BD840000A07D
:104290000021D0E900231A4383685B1E42EA4312DF
:1042A000C36842EA4321014A11607047500100A0EF
:1042B00070B500220021002300240568AD00A5F19F
:1042C000C045D5F840216FF30E02D0E901563543C1
:1042D000C6683543066935434669354386693543C3
:1042E000C6693543066A3543466A35432A4305683D
:1042F00035B90568AD00A5F1C045C5F8402111E00C
:104300003B4D2B686FF30E03D0E907563543466AE1
:1043100035432B43364D2B600568AD00A5F1C045F4
:10432000C5F84021056875BB314D0835066855F85C
:10433000261001F07041856A2D686D1E866A7668C8
:10434000761E45EA0616856AAD686D1E46EA0526A4
:10435000856AED686D1E46EA0536856A2D8A6D1EF2
:1043600046EA0546856AAD8A6D1E46EA0556856AA7
:104370002D7E6D1E46EA056529431D4D08350668EC
:1043800045F8261032E0FFE7194D0835066855F864
:10439000261001F07041856A2D686D1E866A766868
:1043A000761E45EA0616856AAD686D1E46EA052644
:1043B000856A2D8A6D1E46EA054529430C4D083550
:1043C0002C6804F07044856AED686D1E2E03856AC2
:1043D000AD8A6D1E46EA05552C434FF02045C5F8C1
:1043E0004841034D0835066845F8261070BD0000A9
:1043F000400100A00449096841EA40014FF0204211
:10440000C2F8541170470000540100A01CB50121EE
:1044100040F2A71002F0D4FA0E21364800F0E8F876
:10442000202000906946344800F06CF82021324882
:1044300000F0DCF801208DF8040000208DF8060063
:1044400001208DF8070003208DF805004020009022
:1044500069462A4800F056F84021284800F0C6F87E
:10446000102000906946244800F04CF810212248A2
:1044700000F0BEF80820009000208DF80400694686
:104480001F4800F03FF800208DF8070080200090C2
:1044900069461A4800F036F80820009000208DF890
:1044A00004008DF807006946154800F02BF810202D
:1044B000009001208DF8040000208DF806000120F6
:1044C0008DF807008DF8050069460B4800F01AF8D2
:1044D0001021094800F08CF801F0FBFDFCF726FCE8
:1044E0000AF010F801F088FF01F087FFFCF7A4FB49
:1044F0001CBD000000080240001C024000040240F5
:1045000000100240F0B50A4600210023002400BF3D
:104510003DE0012505FA01F3156805EA03049C4214
:1045200034D105684F000326BE40B54305601579B8
:104530004E00B5400668354305601579012D02D05F
:104540001579022D16D185684F000326BE40B5436C
:10455000856055794E00B54086683543856045686D
:1045600001268E40B5434560456896798E40B6B2C7
:1045700035434560C5684F000326BE40B543C5605E
:10458000D5794E00B540C6683543C560491C102931
:10459000BFD3F0BDF0B5002300244D07ED0E02FAA5
:1045A00005F3CE1000F1200555F826504E07F70E02
:1045B0000F26BE40B543CF1000F1200646F8275025
:1045C000CE1000F1200555F8265045EA0304CE1020
:1045D00000F1200545F82640F0BD02460020136991
:1045E0000B400BB1012000E0002070474183704771
:1045F0000183704700BFFEE7F0B504461D46082A58
:1046000000DD082202B90122072900DD07219142BD
:1046100000DD1146002004E02026274F3E54461CB2
:10462000F0B20828F8D310460FE00A26B4FBF6F7DC
:1046300006FB17463036471EDFF87CC00CF80760D3
:104640000A26B4FBF6F4461EF0B20028EDDC81B178
:104650001346084605E05E1E174FBE5DFE545E1E03
:10466000F3B2061EA0F10107F8B2F4D12E26124FC4
:10467000FE54A5B900200EE00F4E365C302E07D157
:104680000D4F461CBE5D2E2E02D020263E5400E06B
:1046900004E0461CF0B2561E8642EDDC00BF09B1B4
:1046A000561CF2B2104604E00026034F3E54461C4E
:1046B000F0B20828F8D3F0BD840000200648342169
:1046C00002E000220270401C0A1EA1F10103D9B2CF
:1046D000F7D1024B1A707047480E002021000020CD
:1046E00010B564200BF063F910211548FFF780FF27
:1046F00020211448FFF77CFF06200CF021F95520FB
:104700000CF034F90CF012F904460CF009F9AA2C5B
:1047100001D0FA2010BD15200CF012F906200CF083
:1047200025F914200BF007F90CF000F904460CF001
:10473000F7F8512C01D11420ECE7FA20EAE7000049
:1047400000000240001C024010B501224C6800EE3F
:10475000904AF8EE600A9FED291A60EE810AB0EEE9
:10476000600A002303E002EB820462005B1C8C6899
:10477000C4F107049C42F6D800EE902AF8EEE00A55
:104780009FED1F1AF4EEC10AF1EE10FA00DD1D4A8A
:1047900000EE902AF8EEE00A80EE201AB0EE410A10
:1047A000DFED190AB4EEE00AF1EE10FA0BDDDFEDF1
:1047B000160AB0EE600A03248C60FCEEC00A10EE0C
:1047C000904A4C6006E003248C60FCEEC00A10EEB8
:1047D000904A4C60FCEEC00A10EE904A8C610C7856
:1047E00004704C6844608C688460CC68C4600C6958
:1047F00004614C6944618C69846110BD0050C347F9
:10480000286BEE4E0094357700606A470FB402992A
:10481000032902D1039901B900200299022902D18A
:10482000039901B901200299042903D103990129AF
:1048300000D102200299032903D10399012900D153
:1048400003200299022903D10399012900D10420F0
:104850000299042903D10399022900D10520029964
:10486000032903D10399022900D1062004B070471F
:104870000FB40299032905D10199044A914201D943
:10488000012000E0002004B070470000C0D4010007
:1048900000E0401E0028FCD1704700001CB54FF41A
:1048A0000070009001208DF8040000208DF80600B3
:1048B00001208DF807008DF805006946FE48FFF7D6
:1048C00021FE4FF4806000906946FB48FFF71AFE16
:1048D000202000906946F948FFF714FE4FF400606D
:1048E00000906946F448FFF70DFE022000906946EB
:1048F000F348FFF707FE0820009000208DF8040021
:1049000002208DF807006946ED48FFF7FBFD4FF4E4
:104910000071E948FFF76CFE4FF48061E648FFF74D
:1049200067FE2021E548FFF763FE4FF40061E2488F
:10493000FFF75EFE0221E248FFF75AFE0821E04839
:10494000FFF74BFE00286ED04FF4806000900020EF
:104950008DF8040002208DF807006946D648FFF75D
:10496000D1FD202000906946D448FFF7CBFD4FF4DD
:10497000006000906946D048FFF7C4FD0220009017
:104980006946CF48FFF7BEFDFF20FFF781FF0821F2
:10499000CB48FFF722FE002847D04FF48061C6487D
:1049A000FFF71BFE48B14FF48061C348FFF715FEC7
:1049B00000283AD0162420461CBD2021BF48FFF70E
:1049C0000CFE38B12021BD48FFF707FE60B30C2470
:1049D0002046F1E74FF40061B748FFF7FEFD40B114
:1049E0004FF40061B448FFF7F8FDE8B11124204608
:1049F000E2E70221B248FFF7F0FD38B10221B048EA
:104A0000FFF7EBFD80B117242046D5E70821AC481D
:104A1000FFF7E3FD40B10821A948FFF7DEFD18B11B
:104A20000D242046C8E714E2FFE74FF480600090B1
:104A300001208DF8040000208DF8060001208DF87B
:104A4000070000208DF8050069469B48FFF75AFDD6
:104A50004FF480619848FFF7CBFD4FF40070009051
:104A600000208DF8040002208DF807006946924866
:104A7000FFF748FD2020009069469048FFF742FD6F
:104A80004FF40060009069468B48FFF73BFD022021
:104A9000009069468A48FFF735FDFF20FFF7F8FED2
:104AA00008218748FFF799FD002845D04FF4007191
:104AB0008148FFF792FD40B14FF400717E48FFF747
:104AC0008CFDC0B31424204676E720217B48FFF7F5
:104AD00084FD38B120217948FFF77FFD58B31924B0
:104AE000204669E74FF400617348FFF776FD40B157
:104AF0004FF400617048FFF770FDE0B130242046AC
:104B00005AE702216E48FFF768FD38B102216C4870
:104B1000FFF763FD78B10E2420464DE70821684871
:104B2000FFF75BFD38B108216548FFF756FD10B16E
:104B30000A24204640E7FFE72020009001208DF85E
:104B4000040000208DF8060001208DF807000020E9
:104B50008DF8050069465948FFF7D4FC20215748D5
:104B6000FFF746FD4FF40070009000208DF8040020
:104B700002208DF8070069464F48FFF7C3FC4FF449
:104B80008060009069464C48FFF7BCFC4FF4006021
:104B9000009069464848FFF7B5FC0220009069463E
:104BA0004748FFF7AFFCFF20FFF772FE082144489B
:104BB000FFF713FDC8B34FF400713F48FFF70DFD39
:104BC00040B14FF400713C48FFF707FD68B30B2478
:104BD0002046F1E64FF480613748FFF7FEFC40B114
:104BE0004FF480613448FFF7F8FCF0B132242046DE
:104BF000E2E64FF400613048FFF7EFFC40B14FF4BC
:104C000000612D48FFF7E9FC78B135242046D3E652
:104C100002212B48FFF7E1FC40B102212848FFF7B1
:104C2000DCFC10B138242046C6E60CE008212448FC
:104C3000FFF7D3FC38B108212148FFF7CEFC10B1B3
:104C40000F242046B8E64FF40060009001208DF854
:104C5000040000208DF8060001208DF807000020D8
:104C60008DF8050069461448FFF74CFC4FF40061CD
:104C70001148FFF7BDFC4FF40070009000208DF844
:104C8000040002208DF8070069460B48FFF73AFC44
:104C90004FF48060009069460748FFF733FC2020FE
:104CA000009069460548FFF72DFC022000906946F8
:104CB0000348FFF727FC05E0001C02400008024003
:104CC00000200240FF20FFF7E3FD08216E48FFF7B8
:104CD00084FCB8B34FF400716C48FFF77EFC40B120
:104CE0004FF400716948FFF778FC58B31024204650
:104CF00062E64FF480616548FFF76FFC40B14FF406
:104D000080616248FFF769FCE0B13324204653E636
:104D100020215F48FFF761FC38B120215C48FFF794
:104D20005CFC78B11224204646E602215648FFF783
:104D300054FC40B102215448FFF74FFC10B1392414
:104D4000204639E60CE008214F48FFF746FC38B111
:104D500008214D48FFF741FC10B1362420462BE6D0
:104D60000220009001208DF8040000208DF806003C
:104D700001208DF8070000208DF8050069464248A3
:104D8000FFF7C0FB02214048FFF732FC4FF40070F0
:104D9000009000208DF8040002208DF8070069467D
:104DA0003A48FFF7AFFB4FF4806000906946374800
:104DB000FFF7A8FB2020009069463548FFF7A2FBCB
:104DC0004FF40060009069463048FFF79BFBFF20DE
:104DD000FFF75EFD08212C48FFF7FFFBC8B34FF437
:104DE00000712A48FFF7F9FB40B14FF400712748E2
:104DF000FFF7F3FB68B315242046DDE54FF480612F
:104E00002248FFF7EAFB40B14FF480611F48FFF7EB
:104E1000E4FBF0B131242046CEE520211C48FFF709
:104E2000DCFB38B120211A48FFF7D7FB88B11724E3
:104E30002046C1E54FF400611448FFF7CEFB48B1AE
:104E40004FF400611148FFF7C8FB10B1342420462D
:104E5000B2E50CE008210C48FFF7BFFB38B1082190
:104E60000948FFF7BAFB10B137242046A4E50948EA
:104E700001780948007806F039FC0446FF2C01D07F
:104E8000204699E5FF2097E500200240001C0240E3
:104E9000000802401A0000202200002010B5064839
:104EA000407838B100200449487000F077F8024893
:104EB000007810BDFF20FCE73401002010B5044647
:104EC0002146002003F05CFAFFF7E8FF10BD000068
:104ED00010B5FFF7E3FC0446FF2C1AD12B480078ED
:104EE000FF280DD02A480078032809DD28480078DB
:104EF000642805DA254800782649087001204870A2
:104F0000FF2022490870002021490870214988703B
:104F10003AE01E480078A04231D11D48007865284B
:104F200004DA1B480078401C1949087018480078BA
:104F3000642809D10020184908701648047001201F
:104F40001449487088701FE01148007864281BDD00
:104F50001048047001200F4988700F480078401CE9
:104F60000D490870084600780E280DDD00200870F5
:104F70000848407840B901200649487004E00348D9
:104F8000047000200249087010BD000037010020A5
:104F900038010020340100203901002010B5FBF752
:104FA000E2FD4FF47A700AF002FDFBF7DBFD10BD65
:104FB00030B513460022224C246844B901EB810429
:104FC000E40104EB440400EB400562192AE01C4CA8
:104FD0002468012C0CD1C0F52074641EC1F5F07555
:104FE0006D1E05EB850504EBC51404EB440219E0C6
:104FF000134C2468022C09D1C0F5F074641E04EB34
:10500000840401EBC41404EB44020BE00C4C246850
:10501000032C07D1C0EB00144FF4F07505EB4414DA
:10502000641A621EB2F5612F09D2064D2D68AB528B
:1050300003F47F04240C034D2D681544AC7030BD7F
:10504000700000202C010020F0B58BB00446002534
:105050000026002704F47F00050C04F47F40060AB4
:10506000E7B2FCF7E4FC4FF44030019001200290DD
:105070000595049603970F2006900C48006807904A
:10508000002008904FF4F07009904FF420700A90BF
:1050900001A8FCF7E3FCFCF753FD00BF0220FCF77E
:1050A000D1FC0028FAD00BB0F0BD00002C0100208C
:1050B000F0B505460E46144644E020787E2824DCF0
:1050C000224800F0CBFD2248006880882844B0F5D3
:1050D000207F05DD00251E480068C088304486B268
:1050E0001B480068C0883044B0F5F07F01DD002522
:1050F000002622783146284600F05CF81448006803
:105100008088284485B2641C1CE005F12000B0F5BD
:10511000207F03DD002506F1200086B206F1200085
:10512000B0F5F07F01DD0025002620460AF050FC96
:1051300087B23A463146284600F0CAFD05F1200004
:1051400085B2A41C20780028B7D1F0BD5C010020F6
:1051500020010020F8B505460F46144623E02078CC
:105160008DF8000020787E2803DC00208DF80100F7
:1051700002E060788DF8010068460BF0DDFA86B237
:1051800032463946284600F035F820787E2806DC7D
:10519000074800688088284485B2641C03E005F154
:1051A000180085B2A41C20780028D8D1F8BD0000D2
:1051B00020010020F0B506460F461446A4F1200059
:1051C000C4B20B480068C0886043094909688988EF
:1051D00000FB01F5E81705EB5070C01004490968A1
:1051E000096801EB40023946304600F049F8F0BD4D
:1051F000200100202DE9F047044688469146A2464A
:105200000026002533E0032D00DA2EE009EB8900AB
:1052100000EB4910184901EB4000801C465D002757
:105220001FE006F0800030B1144841460268204675
:10523000FFF7BEFE05E01148414642682046FFF7F1
:10524000B7FE7006060E601C84B2A4EB0A00182894
:1052500005D1544608F101001FFA80F803E0781CDC
:10526000C7B2082FDDDB00BF00BF681CC5B2482DE8
:10527000C9DBBDE8F087000024AF08081801002052
:105280002DE9FC4304460F469046A146214840685C
:10529000019000980090002528E0002621E018F8F1
:1052A0001500B04000F0800030B11A48394602685D
:1052B0002046FFF77DFE05E0164839464268204645
:1052C000FFF776FE601C84B2A4EB0900124909685E
:1052D0008988884203D14C46781C87B203E0701C51
:1052E00086B2082EDBDB00BF681C85B20A4909685C
:1052F0008888C11700EB5171C910074A1268D2881B
:105300005143A942C9DC03490198486000980090C4
:10531000BDE8FC8318010020200100202DE9F043A6
:1053200003460C461546684200216F00C7F1020291
:1053300000BF574F3F88A3EB000C04EB01084FF46C
:10534000207909FB08CC0CEB4C0CDFF84881D8F82D
:10535000008028F80C704E4F3F6807F47F074FEA33
:10536000174C1F1A04EB010809FB087707EB4707E6
:10537000BF1CDFF82081D8F8008008F807C0444F30
:105380003F8803EB000C04EB010809FB08CC0CEB95
:105390004C0CDFF80081D8F8008028F80C703C4FE6
:1053A0003F6807F47F074FEA174C1F1804EB01080A
:1053B00009FB087707EB4707BF1CDFF8D880D8F850
:1053C000008008F807C0324F3F8803EB000CA4EBC5
:1053D000010809FB08CC0CEB4C0CDFF8B880D8F8BE
:1053E000008028F80C702A4F3F6807F47F074FEAC7
:1053F000174C1F18A4EB010809FB087707EB4707B8
:10540000BF1CDFF89080D8F8008008F807C0204F54
:105410003F88A3EB000CA4EB010809FB08CC0CEBC4
:105420004C0CDFF87080D8F8008028F80C70184F0A
:105430003F6807F47F074FEA174C1F1AA4EB0108D7
:1054400009FB087707EB4707BF1CDFF84880D8F84F
:10545000008008F807C016468E420BDC4F1C394608
:105460004FF0010C0CEB47073A44C84202D1864288
:1054700000DC0026864206DD471C38464FF0010C52
:105480000CEB47073A4400287FF753AFBDE8F083A1
:10549000240100202C0100202DE9F04F8DB006469C
:1054A0000F4614461D464FF0000A0020029001905E
:1054B00000908346814680464648406800F47F005D
:1054C000000C02904348007900904248808800F424
:1054D0007F40000A01904048006878B94FF420707E
:1054E00000FB07603D490968032202FB001AC4F56E
:1054F00020701FFA80FBA946A04642E036480068AB
:10550000012815D1C5F5F070C01B00EB8000C0016B
:1055100000F52070801B001B30490968032202FB44
:10552000001AC4F520701FFA80FBA946A04628E0A7
:1055300029480068022812D1C6F5F070001B4FF40C
:10554000207101FB007025490968032202FB001A43
:10555000C5F520701FFA80FBA146A84611E0C6EBF6
:105560000610400100F5F070401BC01B1B49096884
:10557000032202FB001AC5F5F0701FFA80FBA1465A
:10558000A846FCF754FA4FF44030039001200490F1
:10559000019806900098059002980790FF200890C7
:1055A000CDF824A0CDF828B0CDF82C90CDF83080DF
:1055B00003A8FCF753FAFCF7C3FA00BF0220FCF77C
:1055C00041FA0028FAD00648006800F063FB0DB0ED
:1055D000BDE8F08F18010020700000202C01002091
:1055E000240100202DE9F04F8BB004460D461646ED
:1055F0001F464FF00008C146C246C34638480068FF
:1056000048B905EB8500C00100EB400004EB440104
:1056100000EB01082AE03248006801280BD14FF462
:10562000207000FB05412F48006800F5612003222F
:1056300002FB11081AE02A480068022809D1C4F5C3
:10564000F070401E00EB800005EBC01000EB40083E
:105650000CE023480068032808D14FF4207000FBB9
:10566000054020490968032202FB00181E48006813
:1056700000F47F004FEA10491B4890F800B0008802
:1056800000F47F404FEA102AFCF7D1F94FF4403084
:10569000019001200290CDF810A0CDF80CB0CDF80B
:1056A00014900F200690CDF81C802FB90020089090
:1056B000012009900A9605E040F27F2008900996A3
:1056C00001200A9001A8FCF7C9F9FCF739FA00BFDC
:1056D0000220FCF7B7F90028FAD00BB0BDE8F08F34
:1056E000700000202C0100201801002030B5044675
:1056F0000D460348294602682046FFF759FC30BD95
:10570000540000202DE9F04F89B005460E46914621
:105710009A460027B846002008900790069005900A
:105720000490039000248346029001900090A9EB1E
:105730000500002802DDA9EB050001E0A5EB09004A
:1057400007B2AAEB0600002802DDAAEB060001E082
:10575000A6EB0A000FFA80F828B2089030B2079042
:10576000A94503DB01200690059003E04FF0FF30D0
:1057700006900590B24503DB01200490039003E0FE
:105780004FF0FF300490039047450DDB002006905A
:1057900003903C46384607EBD07149100FFA81FB65
:1057A000CDF8088001970CE0002005900490444655
:1057B000404608EBD07149100FFA81FB0297CDF8F3
:1057C00004800020009025E0DDE9071001F0D2F808
:1057D000029858440FFA80FBA3450DDBABEB0400A5
:1057E0000FFA80FB06990898084400B208900499C3
:1057F0000798084400B2079005990898084400B239
:10580000089003990798084400B207900098401C3C
:1058100000B20090DDE900018842D5DD09B0BDE8A5
:10582000F08F70B504460D461646C5F5F07291B27C
:10583000C4F5207290B23246FFF770FD70BD0000D3
:105840001CB5012140F2FB1001F0BAF804200090D1
:1058500003208DF8050002208DF8040000208DF84B
:1058600006008DF807006946A548FEF74BFE0E229C
:105870000221A348FEF78EFE082000906946A0484A
:10588000FEF740FE0E2203219D48FEF783FE4FF4F3
:105890008070009069469A48FEF734FE0E22082177
:1058A0009748FEF777FE0120009069469548FEF77D
:1058B00029FE092200219348FEF76CFE4FF4006098
:1058C000009069469048FEF71DFE0E220B218E487F
:1058D000FEF760FE4FF48050009069468A48FEF75C
:1058E00011FE0E220C218848FEF754FE2020009065
:1058F00069468648FEF706FE0E2205218348FEF71C
:1059000049FE4020009069468048FEF7FBFD0E22CC
:1059100006217E48FEF73EFE4FF400500090694697
:105920007748FEF7EFFD0E220D217548FEF732FE97
:105930004FF48060009069467548FEF7E3FD092248
:105940000A217348FEF726FE4FF400400090694696
:105950006B48FEF7D7FD0E220F216948FEF71AFEAD
:105960000120009069466B48FEF7CCFD0E22002115
:105970006848FEF70FFE1020009069466348FEF766
:10598000C1FD0E2204216148FEF704FE4FF4805051
:10599000009069465E48FEF7B5FD0E220C215C487A
:1059A000FEF7F8FD4020009069465B48FEF7AAFD2F
:1059B0000E2206215848FEF7EDFD4FF400600090DE
:1059C00069465348FEF79EFD0E220B215048FEF714
:1059D000E1FD1020009069464E48FEF793FD0E222F
:1059E00004214C48FEF7D6FD082000906946464841
:1059F000FEF788FD0E2203214348FEF7CBFD8020F1
:105A0000009069464248FEF77DFD0E22072140487E
:105A1000FEF7C0FD4FF48060009069463D48FEF7F8
:105A200071FD0E220A213B48FEF7B4FD4FF40070D1
:105A3000009069463748FEF765FD0E22092135487A
:105A4000FEF7A8FD4FF48060009069463348FEF7EA
:105A500059FD0E220A213148FEF79CFD10200090CE
:105A600002208DF8050001208DF8040000208DF83B
:105A7000060001208DF8070069462748FEF742FD21
:105A80008020009069462448FEF73CFD1021224802
:105A9000FEF7AEFD80212048FEF7AAFD4FF400601E
:105AA000009002208DF8050001208DF804000020F0
:105AB0008DF8060001208DF8070069461648FEF7AC
:105AC00021FD4FF40050009002208DF805000120C8
:105AD0008DF8040000208DF8060001208DF80700E5
