:020000040800F2
:10000000F07F0020C1010008F9680008A54B000836
:10001000F5680008010C000891E1000800000000EC
:10002000000000000000000000000000F58500084E
:10003000D11F0008000000003D6C000891930008EB
:10004000DB010008DB010008DB0100083577000850
:10005000DB010008DB010008DB010008DB01000810
:10006000DB010008CD440008DB010008DB010008CB
:10007000DB010008DB010008DB010008DB010008F0
:10008000DB010008DB010008DB010008DB010008E0
:10009000DB010008DB010008DB010008DB010008D0
:1000A000DB010008DB010008DB010008DB010008C0
:1000B000DB010008DB010008DB010008DB010008B0
:1000C000DB010008DB010008DB010008DB010008A0
:1000D000DB010008DB010008DB010008E5BE0008C9
:1000E000DB010008DB010008DB010008DB01000880
:1000F000DB010008DB010008DB010008DB01000870
:10010000DB010008197E0008DB010008DB010008A4
:10011000DB010008DB01000821960008DB01000874
:10012000DB010008DB010008DB010008F11E00080C
:10013000DB010008DB010008DB010008DB0100082F
:10014000DB010008DB010008DB010008A1690008F1
:10015000DB010008DB010008DB010008DB0100080F
:10016000DB010008DB010008C1690008B169000873
:10017000DB010008D1690008DB010008DB01000891
:10018000DB010008DB010008DB010008DB010008DF
:10019000DB010008DB010008DB010008DB010008CF
:1001A000DB010008DB010008DB010008DFF80CD0F0
:1001B00000F0A6FB00480047F9080108F07F002086
:1001C0000648804706480047FEE7FEE7FEE7FEE7F1
:1001D000FEE7FEE7FEE7FEE7FEE7FEE7A195000883
:1001E000AD01000840EA01039B0703D009E008C9FC
:1001F000121F08C0042AFAD203E011F8013B00F8EC
:10020000013B521EF9D27047D2B201E000F8012B37
:10021000491EFBD270470022F6E710B513460A4686
:1002200004461946FFF7F0FF204610BD421E12F8A3
:10023000013F002BFBD111F8013B02F8013B002BE1
:10024000F9D1704710B5002200E0521C835C8C5C31
:10025000A34201D1002BF8D1D8B2E1B2401A10BDAF
:100260002DE9FE4F81EA030404F0004421F000412F
:1002700000944FF0000B23F0004350EA01045ED0DD
:1002800052EA03045BD0C3F30A54C1F30A552C4469
:10029000A4F2F3340194A0FB0254C1F3130141F41E
:1002A0008011C3F3130343F4801301FB024400FBEA
:1002B000034E840A970A44EA815447EA8357A4FB11
:1002C000076802958D0A05FB07854FEA932C04FB0E
:1002D0000C542705029D4FEA065847EA1637B5EB3E
:1002E00008056EEB070C870E920E47EA811742EA6B
:1002F0008312A7FB0201B6EB0B0164EB00042B0D8C
:1003000043EA0C335E1844EB1C50DA465146E7FBD7
:100310000201C5F313044FEA0B3343EA14534FEAC7
:100320000432019C43EA0603A4F10C040294009CED
:10033000CDE900B400F087F903B0BDE8F08F0020EC
:100340000146F9E72DE9F04D81EA030404F0004B82
:1003500021F0004514464FF0000A23F0004150EA16
:10036000050220D054EA01021DD0C5F30A57024607
:10037000C5F31303C1F31300C1F30A5640F480150B
:1003800043F48013A7EB0608101BD64608F2FD388D
:1003900073EB050002D308F1010801E092185B41FC
:1003A000B8F1000F03DA00200146BDE8F08D00200F
:1003B0004FF48011064684460EE0171B73EB0507C9
:1003C00005D3121B63EB050306434CEA010C4908F5
:1003D0004FEA300092185B4150EA0107EDD152EA32
:1003E000030012D082EA040083EA0501084305D025
:1003F000101BAB4106D20122002306E000224FF081
:10040000004302E06FF0010253101AEB06004CEBC0
:10041000085110EB0A0041EB0B01BDE8F04D00F074
:1004200003B90EB5C10F80EAE0700844CA07002185
:1004300040F233438DE80E000A460B4600F003F904
:1004400003B000BD0EB540F2334102910021CDE969
:1004500000110A460B4600F0F6F803B000BDC1F3E8
:100460000A5210B5C1F3130140F2FF3341F4801179
:100470009A4201DA002010BD40F233439A42A2F2C0
:10048000334203DC524200F088F810BD904010BDAA
:1004900000F0004230F000400AD0C10D01F560715B
:1004A000C0F3160042EA0151C208400711437047E9
:1004B000002001467047000030B5041E71F10004B1
:1004C00004DB4FF00044404264EB0101141E73F161
:1004D000000405DB1C464FF00043524263EB04036B
:1004E0008B4208BF824230BD30B5041E71F100045A
:1004F00004DB4FF00044404264EB0101141E73F131
:10050000000405DB1C464FF00043524263EB04033A
:10051000994208BF904230BD01F0004330B421F051
:10052000004150EA010206D00A0DA2F56072C1F343
:100530001301002A02DC30BC00207047440F44EA5B
:10054000C104C100E01830BC00EBC25000F035B867
:1005500030B50B46014600202022012409E021FA93
:1005600002F59D4205D303FA02F5491B04FA02F590
:100570002844151EA2F10102F1DC30BD202A04DB63
:10058000203A00FA02F1002070479140C2F12003A6
:1005900020FA03F3194390407047202A04DB203AE5
:1005A00021FA02F00021704721FA02F3D040C2F193
:1005B000200291400843194670470029A8BF7047A0
:1005C000401C490008BF20F00100704710B4B0FA89
:1005D00080FC00FA0CF050EA010404BF10BC704724
:1005E00049B1CCF1200421FA04F411FA0CF118BF3E
:1005F000012121430843A3EB0C01CB1D4FEA00610D
:100600004FEA102042BF002010BC704700EBC350DF
:1006100010440029A4BF10BC7047401C490008BF0B
:1006200020F0010010BC704710B5141E73F10004D7
:1006300008DA401C41F1000192185B411A4301D1D4
:1006400020F0010010BD2DE9F04D92469B4611B1FE
:10065000B1FA81F202E0B0FA80F220329046FFF760
:100660008DFF04460F4640EA0A0041EA0B0153465B
:100670005A46084313D0114653EA010019D0C8F175
:1006800040025046FFF789FF05460E465046594640
:100690004246FFF773FF084305D0012004E02046DF
:1006A0003946BDE8F08D0020054346EAE0762C434C
:1006B00037430A986305E40AA0EB08000022FD0A0C
:1006C00044EA47540A3002D500200146E9E7010513
:1006D00010196941DDE9084500196941BDE8F04D8F
:1006E000A2E72DE9FE4F804681EA0300C00F0C46C9
:1006F000009021F0004123F00045B8EB0200A94131
:1007000005D24046214690461C460B46024623F041
:100710000040104347D0270DC7F30A00C3F30A5126
:100720000290401A019040286BDAC3F3130040F4A2
:10073000801B0098924620B10023D2EB030A63EBA2
:100740000B0B01985946C0F140025046FFF716FFC7
:1007500006460D4650465946019A00F0E3F810EB64
:1007600008006141002487EA115284EAE7731A43C2
:1007700040D0009A62B3019A012A4FEA075215DC71
:10078000001B61EB02014FF0004202EA0752CDE983
:100790000042001C41F5801132462B46FFF753FF03
:1007A00003B0BDE8F08F40462146F9E7001B61EB3E
:1007B0000201001C41F5801300185B412018A2F5CE
:1007C000001747EB030140EAD570B6196D4111E0FF
:1007D0006D084FEA360645EAC0754FEA0752001B1E
:1007E00061EB0201001C41F5801149084FEA30001D
:1007F0000019514132462B4603B0BDE8F04FFFF7D8
:1008000013BF0098012240000023D0EB020263EBEB
:10081000E073009821464FEAE074B8EB000061EB0A
:100820000401E9E783F000435BE781F0004158E70A
:1008300070B521F0004303430CD0C1F30A550024E6
:10084000D5EB040564EB0403D617AD1AB34102DB04
:100850000020014670BD201841EB025170BD2DE90A
:10086000F04D00231A461B1A8A4103DB0020014683
:10087000BDE8F08DC1F30A52C1F3130141F48015B4
:100880004FF0000BD10702D100186D41521E002716
:10089000044640F2FF11384601EB620A3E468046AC
:1008A000024600204FF48011FFF777FEC219714114
:1008B000BB1846EB0100B4EB030C75EB000C04D342
:1008C000E41A65EB000517460E46241908F10100ED
:1008D0006D4180463428E3DDF91946EB0600091B1B
:1008E000A84103D24FF0FF32134601E00022134625
:1008F0001BEB070046EB0A51BDE8F04DFFF794BE35
:10090000064C074D06E0E06840F0010394E807005C
:1009100098471034AC42F6D3FFF74CFCA0D009083E
:10092000C0D00908202A06DBCB17203A41FA02F092
:1009300043EAE07306E041FA02F3D040C2F120023C
:10094000914008431946704770B58C1810F8015B48
:1009500015F0070301D110F8013B2A1106D110F858
:10096000012B03E010F8016B01F8016B5B1EF9D15C
:100970002B0705D40023521E0DD401F8013BFAE7E2
:1009800010F8013BCB1A921C03E013F8015B01F84D
:10099000015B521EF9D5A142D8D3002070BD21B110
:1009A000826842F00102826003E0826822F0010264
:1009B000826070470021084A1168084A1140D0E956
:1009C00000231A4383681A43C3681A431143044A35
:1009D000C2F804137047000004230140E030FCFF1C
:1009E0000020014021B1826842F48072826003E0FD
:1009F000826822F480728260704721B1826842F47A
:100A00000072826003E0826822F4007282607047A4
:100A100030B50246002000235068104C20400D796C
:100A20000C6844EA05242043506090680C4C204038
:100A3000D1E903542C438D682C434D7944EA450495
:100A400020439060D06A20F470000C7D641EE4B2F4
:100A5000234340EA0350D06230BD0000FFFEFFFC9C
:100A6000FDF7FFC0F0B504460D4600200021092D1A
:100A700011DDE068A5F10A0606EB4607072606FA2F
:100A800007F18843A5F10A0606EB460603FA06F1CC
:100A90000843E0600CE0206905EB4507072606FAED
:100AA00007F1884305EB450603FA06F10843206188
:100AB000072A0FDA606B561E06EB86071F2606FA1A
:100AC00007F18843561E06EB860605FA06F1084331
:100AD000606322E00D2A0FDA206BD61F06EB860733
:100AE0001F2606FA07F18843D61F06EB860605FA8D
:100AF00006F10843206310E0E06AA2F10D0606EB60
:100B000086071F2606FA07F18843A2F10D0606EBB9
:100B1000860605FA06F10843E062F0BD816841F0FF
:100B200080418160704700001CB50121084606F035
:100B3000CBF9032000908DF8040000208DF8070009
:100B40006946024803F0B6FF1CBD000000000240E9
:100B500010B54021014804F021F810BD0004024006
:100B60007047014648780A7840EA02207047000042
:100B70001CB54FF48070009001208DF80400002017
:100B80008DF8060001208DF8070000208DF8050083
:100B90006946024803F08EFF1CBD000000000240C1
:100BA0007047704710B50446134890F8420020B9CA
:100BB0000021124808F0FEFD1DE074B90E4890F8BF
:100BC0004200012804D101210C4808F0F3FD12E095
:100BD00000210A4808F0EEFD0DE0074890F84200B9
:100BE000022804D10121054808F0E4FD03E00021BA
:100BF000024808F0DFFD10BD440E00200004014053
:100C000000BFFEE710B50121054808F0D3FD05201F
:100C10000FF066FB0021024808F0CCFD10BD00007B
:100C20000004014010B503F09FFDF32003F0F6FC33
:100C30000221802003F0F8FC0446204610BD10B5C8
:100C40000446392010F0F2F9E0B210F005FAC4F3CE
:100C5000072010F001FAC4F3074010F0FDF9200E50
:100C600010F0FAF910F0D2F90EF058F910BD2DE994
:100C7000F04107460E4614463C2010F0D7F9F0B27A
:100C800010F0EAF9301210F0E7F910F0BFF90CB1EA
:100C90000020208016E00EF041F905461E2D0ED1F1
:100CA000384600F055F905463D2010F0BFF910F028
:100CB000ADF92F4434B120882844208002E0284632
:100CC000BDE8F081E7E710B506F0F0F808B100F0F4
:100CD00082F8302000F0CDF810BD10B5312000F0C2
:100CE000C8F810BD10B504462146362000F0B3F810
:100CF00010BD10B5044614B1204600F0DBF83420D6
:100D000000F0B7F810BD70B50646304600F0BBF8ED
:100D1000054685B12946304600F024F80446412CAA
:100D200009D0142C01D1432070BD422C01D1B32035
:100D3000FAE72046F8E77019FFF7DBFFF4E710B594
:100D40000446204600F0B6F820785C2802D02078CF
:100D50002F2803D10021642000F011F9322000F087
:100D600088F810BD2DE9F04105460F460026012404
:100D700029E001E0601CC4B2285D5C2805D0285D34
:100D80002F2802D0285D0028F4D1285D10B1601C06
:100D9000C4B200E00024A819FFF7D1FF064684B1D1
:100DA000BC420ED0412E0AD0142E02D14320BDE801
:100DB000F081422E01D1B320F9E73046F7E726460D
:100DC00001E03046F3E7D4E710B50446FF212046A2
:100DD000FFF7C8FF10BD10B5222010F027F9322010
:100DE0000FF079FA10F018F9044610F00FF92046C8
:100DF00010BD2DE9F04110F00FF9044610F00CF988
:100E0000054610F009F9064610F006F9074610F0FD
:100E1000FDF844EA052040EA064040EA0760BDE8E4
:100E2000F08110B504460C2010F000F9204610F0B7
:100E300013F9FFF7DEFF10BD70B504460A2010F06D
:100E4000F5F8204610F008F910F0E6F8054610F025
:100E5000DDF8284670BD70B505460C46284610F0F2
:100E6000E5F8204610F0F8F810F0D0F80EF056F83B
:100E700070BD10B50446204610F0D8F810F0C6F842
:100E80000EF04CF810BD0246114600E0491C0878EF
:100E90000028FBD100E0491E08785C2804D00878BF
:100EA0002F2801D09142F6D1914200D0491C881AD6
:100EB000C0B270472DE9F0410646012010F0B6F8A7
:100EC00010F0AAF843282BDA2B20FFF7B5FF1028E3
:100ED00026DA2F2010F0AAF8002010F0BDF83220FA
:100EE000FFF7C7FF0446142C1AD1CF20FFF7A4FF49
:100EF0000446ACB14C20FFF794FF00EB04273946C1
:100F00004C2000F03CF85020FFF78BFF00EB04274B
:100F10003946502000F033F80021702000F02FF8FF
:100F20002F2010F083F83578284610F095F809E066
:100F3000761C35785C2D01D02F2D00D10025284658
:100F400010F08AF8002DF3D110F060F8BDE8F081C0
:100F500070B504462D2010F069F810F05DF80646D3
:100F6000054646B100BF207810F076F8641C701E6C
:100F7000C0B2061EF7D110F049F8284670BD70B512
:100F800005460C460D2010F051F8284610F064F884
:100F9000E0B210F061F8C4F3072010F05DF8C4F37C
:100FA000074010F059F8200E10F056F810F02EF807
:100FB00070BD000000B587B00121812005F084FFDD
:100FC0000121080305F0D0FF05221146334803F044
:100FD000B9FD05220621314803F0B4FD05220721A1
:100FE0002E4803F0AFFD2020059002208DF8190057
:100FF0008DF8180000208DF81A008DF81B0005A947
:10100000264803F057FD4020059005A9234803F02A
:1010100051FD8020059005A9204803F04BFD1020CC
:10102000059001208DF8180000208DF81A0005A900
:101030001A4803F03FFD2020059000208DF818008D
:1010400001208DF81B0005A9154803F033FD002091
:10105000ADF800004FF48270ADF802000020ADF84A
:1010600004000220ADF806000120ADF8080040029F
:10107000ADF80A003820ADF80C000020ADF80E00E5
:101080000720ADF810006946064807F055FA01211F
:10109000044807F0C8F907B000BD00000000024096
:1010A000001C0240003001401CB501214FF4A47027
:1010B00005F00AFF2020009002208DF80500012095
:1010C0008DF8040000208DF8060001208DF807003F
:1010D00069460C4803F0EEFC4FF4804000906946EE
:1010E000094803F0E7FC00208DF804008DF80600A5
:1010F00001208DF80700042000906946034803F0A2
:10110000D9FC1CBD000C0240001802400020024027
:1011100070B502460C46FF25FF2309E012F8010BCB
:1011200080EA05010648405C80EA03050548435C07
:10113000201EA4F10106B4B2F0D143EA052070BD2F
:101140002A2508082A2608081CB50121042005F0D4
:10115000BBFE02208DF8050001208DF80400002060
:101160008DF8060001208DF8070080200090694668
:10117000014803F09FFC1CBD000802402DE9F0412E
:1011800000240027374890F84060002006F00EFD4C
:101190004FF4FA500FF0DBF82146002002F0ECF893
:1011A00059E04FF4FA500FF0D2F8012007F024FA7A
:1011B0004FF4FA500FF0CBF80FF00AFD4FF4FA504D
:1011C0000FF0C5F8002007F017FA1CB900200DF049
:1011D00097FE02E001200DF093FE4FF4FA500FF05D
:1011E000B6F80FF071FD204890ED000A1D48D03090
:1011F00000EB840080ED000A022C18DA1B4800780E
:1012000058B91B4890ED000AB1EE400A1548E0308D
:1012100000EB840080ED000A08E0154890ED000A1C
:101220001048E03000EB840080ED000A2546611C88
:10123000C8B206F0BBFC2146002002F09DF8032C4A
:1012400007DB06200B490870064880F8406008F06C
:101250006FF8601CC4B2074800781128A1D0BDE81F
:10126000F0810000440E0020580000201D000020E6
:101270005C000020220000207047000030B587B0DD
:10128000044620785549087060784870A0788870C6
:10129000E11C684608F05EF86D469DF800004F4975
:1012A000087101994D4881600299C16003990161FB
:1012B0000499416105998161A969C161607A4749D1
:1012C00081F82000607A81F8200004F10A01684664
:1012D00008F040F89DF80000404981F82400019989
:1012E0003E4881620299C162039901630499416396
:1012F00005998163A969C163207C384981F8400060
:10130000607C81F8420004F11201684608F022F87E
:101310009DF80000314981F8440001992F4881640B
:101320000299C16403990165049941650599816534
:10133000A969C16504F11801684608F00BF89DF829
:101340000000264981F8600001992448416602990D
:1013500081660399C1660499016705994167A96986
:10136000816704F11E01684607F0F4FF9DF8000054
:101370001A4981F87C0001991848C0F88010029938
:10138000C0F884100399C0F888100499C0F88C1034
:101390000599C0F89010A969C0F8941004F12401CF
:1013A000684607F0D7FF9DF800000C4981F89800C7
:1013B00001990A48C0F89C100299C0F8A01003993E
:1013C000C0F8A4100499C0F8A8100599C0F8AC1092
:1013D000A969C0F8B01007B030BD0000440E00206D
:1013E00070B506460C4604F08000802808D104F051
:1013F0007F0000EB800106F58E7000EBC10507E071
:1014000004F07F0000EB800106F55D7000EBC10584
:1014100004F07F00287004F08000C009687029463D
:1014200030460CF005FB002070BD70B506460C463A
:1014300004F08000802808D104F07F0000EB8001D8
:1014400006F58E7000EBC10505E004EB840106F59E
:101450005D7000EBC1050020A87004F07F002870CB
:10146000C4F3C0106870294630460CF0B9FA002069
:1014700070BD70B505460C4604F08000802805D18B
:1014800004F07F0128460CF0E5FC02E028460CF051
:10149000BBFC002070BD2DE9F04106460D4690468C
:1014A0001F4605F08000802808D105F07F0000EB82
:1014B000800106F58E7000EBC10407E005F07F00A7
:1014C00000EB800106F55D7000EBC10405F07F00C4
:1014D000207005F08000C0096070C4F80880E770D3
:1014E000607808B12078E080022F01D100202071BF
:1014F000214630460CF01CFA0020BDE8F0812DE9B1
:10150000F04105460E461746984606F07F0000EB70
:10151000800105F55D7000EBC104E760C4F814803C
:101520000020A061607006F07F002070E87801283C
:1015300000D12761207820B9214628460CF01CF9FB
:1015400003E0214628460CF0E0FA0020BDE8F081D7
:1015500008B500220092009A61F30A120092026913
:101560001268009B1A4303691A6008BD70B50646ED
:101570000C4604F08000802808D104F07F0000EBC6
:10158000800106F58E7000EBC10505E004EB8401D7
:1015900006F55D7000EBC1050120A87004F07F0026
:1015A0002870C4F3C0106870294630460CF07BFAEE
:1015B000002070BD2DE9F04107460D4616469846BD
:1015C00005F07F0000EB800107F58E7000EBC10491
:1015D0000120607005F07F002070E6602661002029
:1015E000A061C4F81480207820B9214638460CF058
:1015F000C3F803E0214638460CF087FA0020BDE826
:10160000F0811CB5044620460CF081F8E068C06803
:10161000009020460CF048FC03280BD10020A0705D
:101620004FF40070A080009820F4705000F5105026
:10163000009009E00120A0704020A080009820F4D4
:10164000705000F5A05000900098E168C86000203C
:101650000190019820F4005000F50050019001988D
:10166000E168486101201CBDF8B505460024002052
:10167000009028460CF057FC064690E006F001006A
:1016800000287DD0E1B2284600F01EFB00900098B3
:1016900000F0010030B3012000FA04F72869406B24
:1016A000B8432969486300200090009820F00100A9
:1016B000401C009005F1180050F82400009981604A
:1016C000E1B239480068426828469047E878012826
:1016D00008D13CB940F21110405D042802D12846DF
:1016E0000CF0F5F80098C0F3C00060B10020009045
:1016F000009820F008000830009005F1180050F81C
:101700002400009981600098C0F3001060B10020AF
:101710000090009820F010001030009005F11800A3
:1017200050F82400009981600098C0F3801060B1E7
:1017300000200090009820F040004030009005F11B
:10174000180050F82400009981600098C0F3400010
:1017500060B100200090009820F00200801C0090F2
:1017600005F1180050F82400009981600098C0F33A
:10177000C01028B12146284600F0D0FA002000E031
:101780000BE00090009820F080008030009005F180
:10179000180050F8240000998160641C7608002E1F
:1017A0007FF46CAF0120F8BDF80100207CB5044641
:1017B00000250020019020460CF0BDFB06466FE09E
:1017C00006F00100002869D0E9B220460CF0BBFB0E
:1017D0000190019800F00100C8B300200190019829
:1017E00020F00100401C019004F1540050F8250045
:1017F00001998160E078012817D104F1540050F874
:1018000025000069009005EB850104F55D7000EB93
:10181000C10080680099C1F31201411A05EB8502ED
:1018200004F55D7000EBC2008161E9B21E480068FA
:10183000026820469047E078012808D13DB940F27F
:101840001110005D052802D120460CF040F80198E7
:10185000C0F3400060B100200190019820F0020028
:10186000801C019004F1540050F82500019981601A
:101870000198C0F3C00088B10B4800688168204619
:10188000884700200190019820F00800083001905E
:1018900004F1540050F82500019981606D1C760810
:1018A000002E8DD101207CBDF80100203EB50446FC
:1018B000A07A70B1D4F80C010090009820F00200DA
:1018C0000090009820F0010000900099D4F80C01DD
:1018D000016000200190019820F00100401C01905F
:1018E0002069406801998843216948600848006878
:1018F00081692046884700200290029820F000402D
:1019000000F1004002900298E168486101203EBD6C
:10191000F80100207CB5044600200190019820F0D9
:10192000100010300190E068806901998843E168F7
:101930008861E068006A0090009800F00F0000EBFA
:10194000800104F55D7000EBC1050098C0F34340D1
:1019500007282DD2DFE800F02C04051D1E2C1F00E7
:1019600027E00098C0F30A1090B10098C0F30A1263
:101970002046E9680CF0F1FAE8680099C1F30A1111
:101980000844E860A8690099C1F30A110844A861F5
:101990000FE00EE00DE0082204F2CC5120460CF0DE
:1019A000DCFAA8690099C1F30A110844A86100E0B3
:1019B00000BF00BFE068806901990843E168886161
:1019C00001207CBD38B5044608480068C16820463F
:1019D000884700200090009820F008000830009010
:1019E0000098E1684861012038BD0000F80100203E
:1019F0001FB50446002000904FF48970005D0090F0
:101A00002348006841692046884720698068019022
:101A100000200390039820F4006000F5006003901C
:101A20000398E1684861A07A70B3019800F0010062
:101A300050B340F21510005D012825D19DF800003B
:101A4000032821D100200290029820F00100401CC0
:101A50000290D4F80C01006802990843D4F80C11E4
:101A60000860029820F00200801C0290D4F80C015B
:101A7000006802990843D4F80C1108600548006812
:101A800040F0060003490860012004B010BD0000CA
:101A9000F801002010ED00E030B587B004460020CA
:101AA000029006900590049003900190029820F017
:101AB0000100401C02902069406802998843216916
:101AC0004860002120460CF0C5F900250BE0FF21FD
:101AD00004F1180050F82500816004F1540050F81A
:101AE000250081606D1C6078A842F0D84FF0FF316E
:101AF0002069816106986FF30F00401C06900698DC
:101B000080B200F58030069006992069C161059881
:101B100020F0080008300590059820F00100401CD6
:101B20000590059820F00200801C05900599206919
:101B3000416105992069C0F88410049820F00100E3
:101B4000401C0490049820F0080008300490049889
:101B500020F00200801C049004992069016104991E
:101B600020694164206900680390039820F4FE60B6
:101B7000039003992069016020460BF0A8FE002025
:101B80000190019820F4805000F580500190019858
:101B9000E1684861034800680169204688470120E0
:101BA00007B030BDF80100202DE9F04106460F4690
:101BB000394630460CF0E6F901214FF48970815521
:101BC0000021801C8155002511E005EB850106F5FB
:101BD0008E7000EBC104012060702570E58000204C
:101BE000E0704020A0600020E06060616D1C7078B3
:101BF000A842EAD8002510E005EB850106F55D70E6
:101C000000EBC104002060702570E580E07040208A
:101C1000A0600020E06060616D1C7078A842EBD885
:101C200030460BF063FD30460BF070FB0021304670
:101C30000CF012FA30460BF0F6FB30460CF0D2F8FE
:101C4000BDE8F08138B504460020009007480068E0
:101C5000C16920468847009820F4801000F5801064
:101C600000900098E1684861012038BDF80100202B
:101C700038B504460020009007480068016A2046F5
:101C80008847009820F4001000F50010009000989C
:101C9000E1684861012038BDF801002038B50446EC
:101CA000E068406800900098C0F3800020B10548CB
:101CB0000068816A204688470098E16848600120F2
:101CC00038BD0000F801002030B5024615692B69C7
:101CD00015696C6B24FA01F505F0010543EAC5139B
:101CE00002F1180555F82150AD6805EA030030BD32
:101CF00038B5044608480068416A204688470020F5
:101D00000090009820F0804000F180400090009802
:101D1000E1684861012038BDF80100202DE9F84351
:101D200006460F4600250020009007EB870106F5C8
:101D30008E7000EBC104D4E90501451AA068A842E1
:101D400000D2A568E81C4FEA900806F1180050F888
:101D500027008069009029E0D4E90501451AA068B0
:101D6000A84200D2A568E81C4FEA9008ABB2FAB2CC
:101D70003046E1680CF097F9E0682844E060A0691B
:101D80002844A061D4E90510884209D322780121B2
:101D900001FA02F03169496B81433269516310E005
:101DA00006F1180050F8270080690090009880B272
:101DB000404506D9D4E90510884202D2606900285E
:101DC000CAD100BF0120BDE8F88310B50121C805C4
:101DD00005F08AF800214FF4000005F085F810BDE9
:101DE00001460020034A52680A400AB1012000E07F
:101DF0000020704700B0024070B50021002200238F
:101E00000024344D2D68344E3540324E3560354611
:101E10002D68066835432F4E356035466D6B25F0CD
:101E20000705756335466D6B46683543294E756306
:101E3000456835B9C5682902058A2A04057D2B063F
:101E400021E04568012D05D1C5682902058A2A04CB
:101E5000002318E04568022D05D1C56869010569B0
:101E6000EA0200230FE04568032D06D1C568690129
:101E70000569AA024569EB0305E0C5682901056902
:101E80002A0245692B0341EA0205866835431D4352
:101E9000104EB66B35430F4EB5638569F563354615
:101EA0002D6C6FF30D05356435462D6CC6693543D1
:101EB000084E3564858C2C0435466D6C05F0404524
:101EC000756435466D6C066A26433543014E75646C
:101ED00070BD000000B00240FCE0FCFF0348006859
:101EE00040F00100014908607047000000B0024066
:101EF00010B506F021FA10BD0246094B9A4201D2F4
:101F0000084801E00648103801F000531BB1064BA9
:101F10000B40C36002E0044B0B408360704700003D
:101F200010640240006002407D0F7D0F21B1026805
:101F300042F00102026003E0026822F00102026046
:101F40007047000010B500220268134B1A40CC689D
:101F50000B6823434C6923438C692343CC69234397
:101F60000C6A23434C6A23438C6A23434C6B234300
:101F70008C6B23431A430260426922F00702D1E9C5
:101F80000B3423431A4342610B6943604B688360FF
:101F90008B68C36010BD00003F801CF01CB5094B6E
:101FA0001B788DF806300091074B9B5C8DF8043050
:101FB000064B9B5C8DF80530DDE90034C0E9003448
:101FC0001CBD00001E000020FC1C0108071D0108AC
:101FD000704730B58FB0054602F004FA0122294659
:101FE000684600F029FF6C469DF800008DF820003F
:101FF0000198099002980A9003980B9004980C900D
:1020000005980D9006980E9008A800F033F80790F8
:1020100007980FB030BD30B58FB0054602F0F8F923
:1020200000222946684600F007FF6C469DF8000034
:102030008DF820000198099002980A9003980B905F
:1020400004980C9005980D9006980E9008A800F042
:1020500004F8079007980FB030BD0146486842F277
:102060001072904204D948680A22B0FBF2F048602E
:1020700048687047014648687047000010B528213D
:102080006FF07F4004F00CF91E234FF4BA720A215E
:10209000104603F063FE0A234FF4CE7219464FF444
:1020A000BA7003F05BFE1E234FF4CE7219464FF454
:1020B000BA7003F053FE0F234FF4CE720A2110467C
:1020C00003F04CFE0F2340F2A1121946501F03F0FB
:1020D00045FE192340F2A1120F21104603F03EFEE7
:1020E000192340F2A1121946501F03F037FE1E2398
:1020F0004FF4CE721921104603F030FE04212B4814
:1021000002F043FD28B14FF47F4029490860486040
:1021100003E02820264908604860112307220C218B
:1021200040F2771003F0E4FC0821204802F02DFD76
:1021300028B14FF47F401E490860486003E0282022
:102140001B4908604860112307220C21480103F055
:10215000CFFC4021174802F018FD28B14FF47F4012
:1021600013490860486003E028201149086048606E
:10217000112307220C2140F2891003F0B9FC402101
:102180000A4802F002FD28B14FF47F400849086078
:10219000486003E0282006490860486011230722B0
:1021A0000C214FF4C97003F0A3FC10BD00180240CD
:1021B00018010020000802407CB50546F948FA499C
:1021C0000860012D01D1012000E00020009000985E
:1021D00020B14FF47F00F449486002E02820F24922
:1021E0004860F24890F8B80008B1F14C00E0F14CBA
:1021F0002223A0222821902003F07AFCEB480078CB
:10220000C0EBC000021900232821A0200CF098FE8A
:10221000022D01D1012000E000200090009820B1A3
:102220004FF47F00E049486002E02820DE49486022
:10223000DE4890F8B80008B1DF4C00E0DF4C222304
:10224000A0224A21902003F053FCD8484078C0EBEC
:10225000C000021900234A21A0200CF071FE032DBA
:1022600001D1012000E000200090009820B14FF43F
:102270007F00CD49486002E02820CB494860CB4828
:1022800090F8B80008B1CE4C00E0CE4C2223A0223A
:102290008E21902003F02CFCC4488078C0EBC00055
:1022A000021900238E2190200CF04AFE042D01D14A
:1022B000012000E000200090009820B14FF47F0042
:1022C000B949486002E02820B7494860B74AD26857
:1022D000D1B2B64A90680023062202F065FC2223A0
:1022E000A022AA21902003F003FCB74AAA21902043
:1022F00003F00AFAAD480069B44901EB80020023FB
:10230000B2214FF480700CF01BFE052D01D101208D
:1023100000E000200090009820B14FF47F00A24917
:10232000486002E02820A0494860A04890F8B80022
:1023300008B1A34C00E0A34C22239022F4211046C4
:1023400003F0D6FB994890F82000C0EBC0000219BA
:102350000023F42190200CF0F3FD062D01D1012083
:1023600000E000200090009820B14FF47F008E49DB
:10237000486002E028208C4948608C4AD26AD1B279
:102380008A4A906A0023062202F00EFC2223A02231
:10239000D900902003F0ACFB8B4A4FF48871902059
:1023A00003F0B2F900238AA24FF48C714FF48870C5
:1023B0000CF0C6FD072D01D1012000E000200090A7
:1023C000009820B14FF47F007749486002E0282050
:1023D00075494860754890F8B80008B17D4E00E036
:1023E0007D4E2223A02228214FF4F07003F080FBC1
:1023F0006E4890F8410038B90023324628214FF446
:10240000F8700CF09DFD0EE0684890F84000401C0C
:1024100000EB400101EBC0008219002328214FF49A
:10242000F8700CF08DFD082D01D1012000E0002096
:102430000090009820B14FF47F005B49486002E0B3
:10244000282059494860594890F8B80008B1634CB1
:1024500000E0634C2223A0224A214FF4F07003F0E5
:1024600047FB524890F84200C0EBC000021900231D
:102470004A214FF4F8700CF063FD092D01D10120C1
:1024800000E000200090009820B14FF47F00464902
:10249000486002E0282044494860444AD26CD1B2E6
:1024A000424A906C0023062202F07EFB2223A022E7
:1024B00086214FF4F07003F01BFB434A88214FF450
:1024C000F07003F021F93948006D404901EB8002BA
:1024D000002390214FF414700CF032FD0A2D01D12D
:1024E000012000E000200090009820B14FF47F0010
:1024F0002D49486002E028202B4948602B4A926E03
:10250000D1B22A4A506E0023062202F04DFB22234C
:10251000A022AA214FF4F07003F0EAFA2A4AAA2175
:102520004FF4F07003F0F0F82048C06E274901EB3B
:1025300080020023B2214FF414700CF001FD0B2D2A
:1025400001D1012000E000200090009820B14FF45C
:102550007F001549486002E0282013494860134A6B
:10256000D2F88420D1B2114AD2F88000002306228A
:1025700002F01AFB2223A022EE214FF4F07003F0A8
:10258000B7FA114AEE214FF4F07003F0BDF80023C2
:102590000FA2F6214FF418700CF0D2FC0C2D21D1B3
:1025A000012020E000FFFF0018010020440E002061
:1025B000B3180108A5180108DD180108C1180108A1
:1025C00007190108F918010884000020FD19010805
:1025D00056000000A51901084D1901082A19010823
:1025E0001519010800200090009820B14FF47F00D9
:1025F000EF49486002E02820ED494860ED4AD2F8F2
:10260000A020D1B2EB4AD2F89C000023062202F0AF
:10261000CBFA2223A022D9004FF4F07003F068FA1D
:10262000E54A4FF488714FF4F07003F06DF8002321
:10263000AFF264024FF48C714FF418700CF080FC10
:1026400000F0C2FBDD48DA4908600D2D72D2DFE8E8
:1026500005F0070B2D4F7294B6D8FDFCFBFAF9007C
:10266000002000F0C9F9A1E10020D1494860D1481B
:1026700090F8B80008B1D24C00E0D24C0020019094
:1026800010E00199C1EBC1010A191923019903EB6B
:10269000C11188B200234FF4D8710CF051FC01989D
:1026A000401C019001980228EBD37FE10020C04933
:1026B0004860C04890F8B80008B1C34C00E0C34C73
:1026C0000020019010E00199C1EBC1010A19192302
:1026D000019903EBC11188B200234FF4D8710CF0BB
:1026E0002FFC0198401C019001980428EBD35DE178
:1026F0000020AF494860AF4890F8B80008B1B44C2A
:1027000000E0B44C0020019010E00199C1EBC10140
:102710000A191923019903EBC11188B200234FF460
:10272000D8710CF00DFC0198401C01900198022812
:10273000EBD33BE139E100209D4948609D4890F88A
:10274000B80008B1A44C00E0A44C0020019010E0B7
:102750000199C1EBC1010A191923019903EBC111B8
:1027600088B200234FF4D8710CF0EAFB0198401CAA
:10277000019001980028EBD018E100208C494860B6
:102780008C4890F8B80008B1914C00E0914C0020C2
:10279000019010E00199C1EBC1010A1919230199B7
:1027A00003EBC11188B200234FF4D8710CF0C8FBC1
:1027B0000198401C019001980228EBD3F6E000201C
:1027C0007B4948607B4890F8B80008B1824C00E033
:1027D000824C0020019010E00199C1EBC1010A195F
:1027E0001923019903EBC11188B200234FF4D8716A
:1027F0000CF0A6FB0198401C019001980028EBD03A
:10280000D4E000206A4948606A4890F8B80008B1EE
:10281000734E00E0724E0020019012E0019901EB2E
:10282000410303EBC1018A190823019903EBC1118C
:1028300088B200234FF4D8710CF082FB0198401C41
:10284000019004E08FE06CE049E026E003E00198AD
:102850000528E3D3AAE0002055494860554890F880
:10286000B80008B15F4C00E05F4C0020019010E020
:102870000199C1EBC1010A191023019903EBC111A0
:1028800088B200234FF4D8710CF05AFB0198401C19
:10289000019001980328EBD388E000204449486068
:1028A000444890F8B80008B14B4C00E04B4C002075
:1028B000019010E00199C1EBC1010A191923019996
:1028C00003EBC11188B200234FF4D8710CF038FB30
:1028D0000198401C019001980028EBD066E0002090
:1028E00033494860334890F8B80008B13A4C00E0EA
:1028F0003A4C0020019010E00199C1EBC1010A1986
:102900001923019903EBC11188B200234FF4D87148
:102910000CF016FB0198401C019001980028EBD0A8
:1029200044E0002022494860224890F8B80008B1ED
:10293000294C00E0294C0020019010E00199C1EBE6
:10294000C1010A191923019903EBC11188B20023AF
:102950004FF4D8710CF0F4FA0198401C01900198E2
:102960000028EBD022E0002011494860114890F87F
:10297000B80008B1184C00E0184C0020019010E09D
:102980000199C1EBC1010A191923019903EBC11186
:1029900088B200234FF4D8710CF0D2FA0198401C91
:1029A000019001980028EBD000E000BF00BF7CBD83
:1029B00018010020440E0020840000209FFF5400D6
:1029C000B3180108A5180108DD180108C11801088D
:1029D00007190108F9180108461901083F190108EB
:1029E000091A01082A1901081519010810B5002053
:1029F00000F002F810BD000010B5044600F0E4F944
:102A0000002C6FD1824883490860002048608248CA
:102A100090F8B800002866D0002380A240F2A511EB
:102A200019200CF08DFA00237EA24FF4E0711920DA
:102A30000CF086FA002379A240F2A51199200CF03F
:102A40007FFA002379A24FF4E07199200CF078FA14
:102A5000002378A240F2A51140F219100CF070FA90
:102A6000002372A24FF4E07140F219100CF068FAE2
:102A7000002372A240F2A51140F299100CF060FA06
:102A800000236FA24FF4E07140F299100CF058FA55
:102A90006D480078062810D100236CA240F2A511E1
:102AA00040F219200CF04CFA00236AA24FF4E071B6
:102AB00040F219200CF044FAA9E06348007812288B
:102AC000FAD100235BA240F2A51140F219200CF0CC
:102AD00037FA002361A24FF4E07140F20A200CF0B3
:102AE0002FFA94E065E000235EA240F2A5111820C1
:102AF0000CF026FA00235DA24FF4E07118200CF0D0
:102B00001FFA002357A240F2A51198200CF018FAE2
:102B1000002358A24FF4E07198200CF011FA002322
:102B200056A240F2A5114FF48C700CF009FA002364
:102B300050A24FF4E0714FF48C700CF001FA0023B6
:102B40004EA240F2A5114FF4CC700CF0F9F900231D
:102B50004CA24FF4E0714FF4CC700CF0F1F93A480C
:102B60000078062810D1002348A240F2A5114FF4A6
:102B700006700CF0E5F9002346A24FF4E0714FF423
:102B800006700CF0DDF942E02F48007812283ED1A3
:102B9000002342A240F2A51140F219200CF0D0F916
:102BA000002340A24FF4E07140F219200CF0C8F964
:102BB0002DE0012C2BD16FF07F40164908600020DA
:102BC0004860002339A2EC2154200CF0B9F900230D
:102BD00038A2FB2154200CF0B3F9002337A2EC21DA
:102BE000A4200CF0ADF9002336A2FB21A4200CF0A8
:102BF000A7F9002335A2EC214FF4CA700CF0A0F91C
:102C0000002334A2FB214FF4CA700CF099F910BDD7
:102C10009FFF540018010020440E00204D454153F1
:102C20000000000044495350000000005345545533
:102C30005000000020535953000000005359530026
:102C4000494E464F0000000022000020434C454101
:102C50005200000056414C5545000000555044417B
:102C600054450000B2E220C1BF000000CFD420CA0A
:102C7000BE000000C9E820D6C3000000CFB520CDBB
:102C8000B3000000D0C520CFA2000000B6CC20C207
:102C9000B7000000C7E520C1E3000000B9CC20BCAC
:102CA000FE000000C9FD20BCB6000000CEC4BCFE82
:102CB00000000000B9DCC0ED00000000B1A3B4E6E4
:102CC00000000000CAFDBEDD00000000B8FCB6E058
:102CD0000000000020322F32000000000FB410B5B9
:102CE0009DF8080090B19DF80800042807DD9DF8C4
:102CF000101000230622039801F056FF06E09DF80D
:102D0000181000230722059801F04EFF9DF80800D7
:102D1000C0EBC00202EB001000F128010123044ABD
:102D20004FF4A0700CF00CF910BC5DF814FB00001F
:102D30008400002001B582B00020019034E09DF8AD
:102D400008100198401C814204D14FF47F001A49B9
:102D5000486002E02820184948600198401CC0EBF8
:102D6000C00202EB0010283081B217235A22A020A3
:102D700002F0BEFE114A019BD15C114A52F83300A9
:102D80000023062201F010FF0198401CC0EBC00296
:102D900002EB0010283081B201230A4AA0200CF077
:102DA000CFF80198401C019001980628C7D328202D
:102DB000014948600EBD000018010020FB00002002
:102DC000480F00208400002010B500242CE00020D3
:102DD00017494860A100C4EB441201EB820188B29C
:102DE00042237C224FF4CF7102F082FE1148104939
:102DF0004860C4EB44118900042202FB041188B22C
:102E000002237C224FF4CF7102F072FEC4EB441116
:102E10008900042202FB041188B2422302224FF4EB
:102E2000CF7102F065FE641C052CD0D310BD0000EC
:102E30001801002030303000F0B593B006460F4640
:102E40001546012012900C9000200B900A900990DA
:102E500008900390029004900D9009E020200FA9A3
:102E60009DF8342088549DF83400401CC0B20D9069
:102E70009DF834000728F1DB00208DF843000DB1E8
:102E8000062400E00624ACE10A2002F043FB0E9089
:102E90009DF83800FF286FD0FDF7B4FE01200C909C
:102EA0009DF838000A38362867D2DFE800F0F23E95
:102EB0007764F178626E7566631B6776667966661D
:102EC00066666666666666666666666666666666A2
:102ED00066666666F07A8A9AAABACADAF3EE666617
:102EE000EDECEBEA0020049012909DF82000A04247
:102EF00018DA9DF82C00A8B99DF8200000280CDDF8
:102F00002E200FA99DF8202088549DF820000A90BB
:102F10009DF82000401CC0B208909DF82C00401C79
:102F2000C0B20B900120059045E1012004900020E3
:102F300012909DF82000A04218DA9DF82C00A8B944
:102F40009DF8200000280CDD2E200FA99DF82020E0
:102F500088549DF820000A909DF82000401CC0B2C3
:102F600008909DF82C00401CC0B20B9001200590E9
:102F700021E100BF00BF1EE11EE11BE10620CF4999
:102F8000087000201290059015E100201290059025
:102F90001220CA4908700EE100BF00BF00BF00BF89
:102FA00009E1601B9DF82010884209DD31200FA93E
:102FB0009DF8202088549DF82000401CC0B2089045
:102FC000F9E0601B9DF82010884209DD32200FA92E
:102FD0009DF8202088549DF82000401CC0B2089025
:102FE000E9E0601B9DF82010884209DD33200FA91D
:102FF0009DF8202088549DF82000401CC0B2089005
:10300000D9E0601B9DF82010884209DD34200FA90B
:103010009DF8202088549DF82000401CC0B20890E4
:10302000C9E0601B9DF82010884209DD35200FA9FA
:103030009DF8202088549DF82000401CC0B20890C4
:10304000B9E0601B9DF82010884209DD36200FA9E9
:103050009DF8202088549DF82000401CC0B20890A4
:10306000A9E0601B9DF82010884209DD37200FA9D8
:103070009DF8202088549DF82000401CC0B2089084
:1030800099E096E094E092E090E013E002E021E025
:1030900030E051E0601B9DF82010884209DD3820A7
:1030A0000FA99DF8202088549DF82000401CC0B234
:1030B000089080E0601B9DF82010884209DD3920CF
:1030C0000FA99DF8202088549DF82000401CC0B214
:1030D000089070E0601B9DF82010884209DD3020C8
:1030E0000FA99DF8202088549DF82000401CC0B2F4
:1030F000089060E09DF82000A0421CDA9DF82000B6
:10310000002818DD9DF82C00A8B99DF820000028A3
:103110000CDD2E200FA99DF8202088549DF820005A
:103120000A909DF82000401CC0B208909DF82C0029
:10313000401CC0B20B903EE09DF82000002813DD3B
:103140009DF82000401EC0B2089020200FA99DF8D5
:10315000202088549DF828009DF82010884224D112
:1031600000200B900A9020E00FA89DF82010405CF2
:1031700028B92D200FA99DF82020885410E00FA811
:103180009DF82010405C2D2805D12B200FA99DF81B
:103190002020885404E02D200FA99DF82020885479
:1031A0009DF82000401CC0B2089004E000BF00BFA2
:1031B00000BF00E000BF00BF9DF8300088B10020D4
:1031C0000C903F4908604FF6FF704860BA887988D4
:1031D0003888222302F08CFC798838880FAA02F004
:1031E00093FA9DF8480000287FF44EAE9DF8200029
:1031F0000D9009E030200FA99DF8342088549DF8E7
:103200003400401CC0B20D909DF83400A042F1DBA8
:1032100000200D9039E09DF83C00302830DB9DF80F
:103220003C0039282CDC0FA89DF83410405C302875
:1032300026DB0FA89DF83410405C392820DC9DF86F
:1032400028009DF8341088420DDD029800EB8000C4
:103250004000029002990FA89DF83420805C30381D
:10326000084402900CE0029800EB800040000290BD
:1032700002990FA89DF83420805C303808440290F1
:103280009DF83400401CC0B20D909DF83400A0425F
:10329000C1DB9DF8280003909DF80400307002986F
:1032A00070600398B0600498F060059830610698EB
:1032B00070610798B06113B0F0BD000022000020DB
:1032C0001801002010B517484468282015494860A7
:1032D000022315A2AB2190200BF03EFE022314A284
:1032E00040F20F1160200BF037FEFDF7C5FF002103
:1032F000114806F05FFA282428200A49486017235D
:10330000642240F23B1140F2122002F0F1FB05482A
:1033100044600A4991F841000949097800F02CF805
:1033200010BD0000180100202D2D2D2D2D2D000089
:10333000202D2D2D2D2D2D0000040140440E0020A8
:103340002500002008B50A4837232822C62100900E
:103350004FF4F87002F0E8FF0648372328224FF4B4
:10336000957100904FF4F87002F0DEFF08BD000088
:10337000C02C09084534090870B504460D46012CD7
:1033800000DD0124062D00DD0625282009494860BE
:10339000C4EBC40000EB4000074901EB800005EBE3
:1033A000450100EB81024FF4B8714FF4DC7002F07C
:1033B000FDF970BD18010020001C010870B596B021
:1033C00004460E4601F00EF80022314601A8FFF730
:1033D00033FD01AD9DF804008DF83C00029810907B
:1033E00003981190049812900598139006981490E1
:1033F000079815900FA901A801F06CFC9DF8040036
:103400008DF820000298099003980A9004980B9078
:1034100005980C9006980D9007980E900C9818B986
:1034200000200A9009900B909DF8200020700998C8
:1034300060600A98A0600B98E0600C9820610D987D
:1034400060610E98A06116B070BD70B596B004466C
:103450000E4600F0DDFF0022314601A8FFF7ECFC2C
:1034600001AD9DF804008DF83C000298109003987F
:10347000119004981290059813900698149007984C
:1034800015900FA901A808F039FC9DF804008DF8EB
:1034900020000298099003980A9004980B900598D0
:1034A0000C9006980D9007980E900C9818B9002073
:1034B0000A9009900B909DF8200020700998606098
:1034C0000A98A0600B98E0600C9820610D986061EC
:1034D0000E98A06116B070BD70B500F095F86FF051
:1034E0007F401E4908601E4848601E4890F8B8009A
:1034F00008B11D4E00E01D4E002306F1DC02042140
:1035000018460BF01DFD4FF47F4014490860282039
:103510004860144890F8B80008B1154D00E0154D0A
:1035200000240FE0C4EBC40000EB40004219C4EBE0
:10353000C40000EB8000283081B2002318460BF055
:10354000FFFC641C042CEDD3064AE8328921D62006
:1035500002F0DAF8FFF74AFA70BD00001801002007
:103560000352F300440E00204B16010859150108C0
:10357000AC1B0108581B010870B500F045F86FF04E
:103580007F401949086019484860194890F8B80008
:1035900008B1184E00E0184E002306F1B0020421D5
:1035A00018460BF0CDFC15480F49086028204860EC
:1035B0000F4890F8B80008B1114D00E0114D0024FB
:1035C0000EE004EB440000EBC40042192A2304FB84
:1035D00003F0283081B2002318460BF0B1FC641CC4
:1035E000082CEED370BD0000180100200352F30038
:1035F000440E00204B16010859150108FFF59800EC
:10360000981A0108401A010810B500F063FEFFF790
:10361000DBFB10BD7FB50446F648F7490860002083
:103620008DF80700012C01D1012000E0002002905C
:10363000029820B14FF47F00EF49486002E0282053
:10364000ED494860ED4890F8B80008B1EC4D00E055
:10365000EC4D2223A02228219A2002F049FAE748C3
:1036600090F8B400C0EBC000421928219A2002F063
:103670009DF8022C01D1012000E000200290029868
:1036800020B14FF47F00DC49486002E02820DA498D
:1036900048602223A0224A219A2002F029FAD74822
:1036A00090F8B500C0EBC000D74942184A219A20D3
:1036B00002F02AF8032C01D1012000E00020029042
:1036C000029820B14FF47F00CB49486002E02820E7
:1036D000C9494860C94890F8B80008B1C84D00E031
:1036E000C84D2223A0227C219A2002F001FAC3486F
:1036F00090F8B600C0EBC000421900237C219A204C
:103700000BF01EFC042C01D1012000E000200290EF
:10371000029820B14FF47F00B749486002E02820AA
:10372000B5494860B54890F8B80008B1B44D00E01C
:10373000B44D2223A022A6219A2002F0D9F9AF4845
:1037400090F8B700C0EBC00042190023A6219A20D0
:103750000BF0F6FB052C01D1012000E000200290C7
:10376000029820B14FF47F00A349486002E028206E
:10377000A14948602223A022D0219A2002F0B8F962
:103780009E4890F8B800A14901EBC0020023D02167
:103790009A200BF0D5FB01A9002003F0F3FD694648
:1037A000002003F0B5FD062C01D1012000E000202F
:1037B0000290029820B14FF47F008F49486002E0E8
:1037C00028208D49486022232022F5219A2002F0EA
:1037D0008FF99DF803208EA18F480BF02BFC8E4AA9
:1037E000F5219A2001F090FF2820834948608BA2A0
:1037F000F521BA2001F088FF072C01D1012000E05B
:1038000000200290029820B14FF47F007A4948606E
:1038100002E028207849486022232022F521CA208E
:1038200002F066F99DF8012079A17B480BF002FCBB
:10383000794AF521CA2001F067FF28206E494860C7
:1038400076A2F521EA2001F05FFF082C01D10120CA
:1038500000E000200290029820B14FF47F006649FA
:10386000486002E028206449486022232022F52194
:10387000FA2002F03DF99DF8022065A166480BF0A0
:10388000D9FB654AF521FA2001F03EFF092C01D150
:10389000012000E000200290029820B14FF47F0048
:1038A0005549486002E028205349486022232022DD
:1038B00040F21F119A2002F01BF99DF8042054A138
:1038C00055480BF0B7FB544A40F21F119A2001F003
:1038D0001BFF28204849486051A240F21F11BA201E
:1038E00001F012FF0A2C01D1012000E0002002901B
:1038F000029820B14FF47F003F49486002E0282041
:103900003D4948602223202240F21F11CA2002F0C4
:10391000EFF89DF805203EA13F480BF08BFB3E4A97
:1039200040F21F11CA2001F0EFFE28203249486002
:103930003BA240F21F11EA2001F0E6FE0B2C01D160
:10394000012000E000200290029820B14FF47F0097
:103950002949486002E02820274948602223202284
:1039600040F21F11FA2002F0C3F89DF8062028A1AA
:1039700029480BF05FFB284A40F21F11FA2001F0A2
:10398000C3FE0C2C01D1012000E00020029002981F
:1039900020B14FF47F001849486002E02820164902
:1039A00048602223A0224FF4A7719A2002F0A0F8C9
:1039B0000023124AB9324FF4A7719A200BF0C0FAD3
:1039C000FFF702FA17480C490860002048600C2CE9
:1039D0007BD2DFE804F00609425B7B9AAAABACAD70
:1039E000AEAFFFF703F8BEE0044890F8B800D8B1D6
:1039F000034D1AE000FFFF0018010020440E0020D4
:103A000007190108F9180108F01A0108281B010814
:103A10002530326400000000840000202D000000EA
:103A20003A0000009FFF5400504D0020039010E02A
:103A30000399C1EBC1014A191923039903EBC11181
:103A400088B200234FF4D8710BF07AFA0398401C27
:103A5000039003980228EBD385E00020039011E047
:103A60000399C1EBC101424BCA181023039903EB20
:103A7000C11188B200234FF4D8710BF061FA03989A
:103A8000401C039003980528EAD36CE0394890F86D
:103A9000B80008B1384D00E0344D0020039010E02C
:103AA0000399C1EBC1014A191923039903EBC11111
:103AB00088B200234FF4D8710BF042FA0398401CEF
:103AC000039003980228EBD34DE04BE0294890F88F
:103AD000B80008B1284D00E0244D0020039010E00C
:103AE0000399C1EBC1014A191923039903EBC111D1
:103AF00088B200234FF4D8710BF022FA0398401CCF
:103B0000039003980228EBD32DE000231B4A4FF4C7
:103B1000D87110200BF014FA0023184A08324FF421
:103B2000D87184200BF00CFA1DE000BF00BF00BF6D
:103B300000BF00BF0020039010E01149039B01EB80
:103B4000C3021946082303EBC11188B200234FF4C6
:103B5000D8710BF0F5F90398401C039003980228E4
:103B6000EBD300E000BF00BF7FBD0000F9180108E3
:103B7000F01A0108440E002007190108381B01083B
:103B8000481B010810B500F0A5FBFFF71DF910BD9B
:103B900010B500F09FFBFFF717F910BD70B5FFF7E8
:103BA000F1FF6FF07F4026490860264848602648AC
:103BB00090F8B80008B1254E00E0254E00233246AB
:103BC000052118460BF0BCF94BF6FF701C49086044
:103BD000282048601C4890F8B80008B11D4D00E04E
:103BE0001D4D002425E0032C10D204EB840005EBCE
:103BF000400204EB440000EBC400282303EB8000E8
:103C00000A3081B2002001F0D1FD11E004EB840004
:103C100005EB4002E01E00EB400303EBC00028234D
:103C200003EB80000A3081B24FF4A87001F0BEFDB2
:103C3000641C062CD7D30020FEF7DEFE70BD00000A
:103C4000180100200352F300440E00204B16010817
:103C5000591501081D150108E114010870B5FFF799
:103C600097FF6FF07F402549086025484860254848
:103C700090F8B80008B1244E00E0244E002306F16D
:103C80005802042118460BF05BF921481B490860D3
:103C9000282048601B4890F8B80008B11D4D00E08E
:103CA0001D4D282015494860002420E0092C0DD224
:103CB00004EB840005EB400204EB041040002830C4
:103CC00081B2002318460BF03BF90FE004EB8400AF
:103CD00005EB4002A4F1090000EB00104000283081
:103CE00081B200234FF4A8700BF02AF9641C122C47
:103CF000DCD30020FEF780FE70BD0000180100201C
:103D00000352F300440E00204B1601085915010818
:103D1000FFF59800F11701083D1701087CB504462E
:103D2000F84890F8B80008B1F74D00E0F74D012CC5
:103D300001D1012000E000200090009820B14FF454
:103D40007F00F349486002E02820F14948601D23C4
:103D5000A0223421902001F0CBFEEE48EC4908600F
:103D6000E8480078C0EBC00042193421902001F0EF
:103D70001DFD022C01D1012000E0002000900098E0
:103D800020B14FF47F00E249486002E02820E0497A
:103D90004860DC4A926ED1B2DA4A506E00230622A5
:103DA00000F002FF2223A0225921902001F0A0FE62
:103DB000D94A5921902001F0A7FCD248C06ED749BA
:103DC00001EB80025C214FF4807001F0EFFC032CCA
:103DD00001D1012000E000200090009820B14FF4B4
:103DE0007F00CB49486002E02820C9494860C54AA5
:103DF000D268D1B2C34A90680023062200F0D4FEF4
:103E00002223A0228521902001F072FEC24A852142
:103E1000902001F079FCBB480069C04901EB8002A9
:103E200088214FF4807001F0C1FC042C01D10120E5
:103E300000E000200090009820B14FF47F00B449CA
:103E4000486002E02820B2494860AE4890F8B800C7
:103E500008B1B34E00E0B34E1D23922234214FF43B
:103E6000F07001F045FEA74890F8410030B93246A5
:103E700034214FF4F07001F099FC0DE0A14890F866
:103E80004000401C00EB400101EBC00082193421CE
:103E90004FF4F07001F08AFC052C01D1012000E004
:103EA00000200090009820B14FF47F0098494860AE
:103EB00002E0282096494860924AD2F8A020D1B268
:103EC000904AD2F89C000023062200F06DFE2223C7
:103ED000A82259214FF4E87001F00AFE8E4A5921B8
:103EE0004FF4E87001F010FC8FA25C214FF41870C1
:103EF00001F05CFC062C01D1012000E000200090C4
:103F0000009820B14FF47F008149486002E02820EA
:103F10007F4948607B4AD26AD1B27A4A906A0023CC
:103F2000062200F041FE2223A82285214FF4E870EA
:103F300001F0DEFD784A85214FF4E87001F0E4FBE2
:103F400079A288214FF4187001F030FCFEF73CFF95
:103F5000072C72D2DFE804F004082B4E7290B300F5
:103F60000020FEF749FDEAE070486949086000203A
:103F70004860644890F8B80008B1634D00E0634DB4
:103F8000002001900FE00199C1EBC1014A191923EA
:103F9000019903EBC11188B24FF4D87101F006FC0E
:103FA0000198401C019001980228ECD3C7E05F48BB
:103FB0005749086000204860524890F8B80008B19E
:103FC0005B4D00E05B4D002001900FE00199C1EBDB
:103FD000C1014A191923019903EBC11188B24FF4A9
:103FE000D87101F0E3FB0198401C01900198002872
:103FF000ECD0A4E04D4846490860002048604148A4
:1040000090F8B80008B14A4D00E04A4D00200190F8
:104010000FE00199C1EBC1014A191923019903EB82
:10402000C11188B24FF4D87101F0C0FB0198401C57
:10403000019001980028ECD081E07FE03B483449B2
:10404000086000204860019012E0019901EB4103F3
:1040500003EBC101384BCA180823019903EBC111C6
:1040600088B24FF4D87101F0A1FB0198401C019077
:1040700001980528E9D362E02C4825490860002012
:104080004860204890F8B80008B1294D00E0294D5B
:10409000002001900FE00199C1EBC1014A191923D9
:1040A000019903EBC11188B24FF4D87101F07EFB86
:1040B0000198401C019001980028ECD03FE01B487B
:1040C00013490860002048600E4890F8B80008B115
:1040D000174D00E0174D002001900FE00199C1EB52
:1040E000C1014A191923019903EBC11188B24FF498
:1040F000D87101F05BFB0198401C019001980028E9
:10410000ECD01CE0440E0020B3180108A5180108EB
:104110001801002000FFFF0084000020FD190108A5
:10412000A51901084D190108560000009FFF540011
:10413000461901083F190108091A010800BF00BF0C
:104140007CBD00007FB582B00A9E029D28205549A3
:1041500048606FF07F400860002404E0002052496E
:104160000855601CC4B2092CF8DB48F6B80085423B
:1041700009D9002404E02D204B490855601CC4B225
:10418000062CF8DB06E09DF80C10002305222846DB
:1041900000F00AFD454844490A68C0F8032009793F
:1041A000C171434840490A68426109790176414832
:1041B0004079414901EB80013D480A88A0F8192067
:1041C0008978C17609203A4948770223364AB421D2
:1041D00090200AF0C1FE39480078032809DA3848EF
:1041E00037232822C62100904FF4E07002F09CF89B
:1041F00008E0344837232822C62100904FF4E070AD
:1042000002F092F89DF8141000230522049800F0A3
:10421000CBFC2648C01C24490A68826089888181B9
:104220002348C01C20490A68C2618988018456213C
:10423000C01E80F8261009201D4981F82700084675
:1042400021A10988A0F82D109DF8160038B102238D
:104250001EA24FF48C7160200AF07EFE06E002235D
:104260001BA24FF48C7160200AF076FE02230E4AE6
:104270004FF48C7190200AF06FFE9DF8160028B163
:1042800020200A4988720A49887704E02D200749CE
:10429000887207498877074841790448417206B017
:1042A00070BD00001801002084000020F4020020EE
:1042B00009030020DC000020FD1901082500002072
:1042C00087290908E62E09080D0A000020000000D1
:1042D0002D00000010B505480549486021234FF422
:1042E00082720021084601F003FC10BD0352F30066
:1042F0001801002038B504461048056828200F49E9
:104300004860012C03D14FF47F4008600AE0022C82
:1043100004D14FF47F000949086003E04FF47F00A7
:1043200006490860064820231A46042100904FF4ED
:10433000DC7001F0F9FF0148056038BD180100206C
:10434000DC5E090810B500F047F86FF07F401D49AA
:1043500008601D48486000231C4A042118460AF0E2
:10436000EFFD6FF07F401749086028204860002467
:104370000EE004EB840101EBC401154BCA1804EBF9
:1043800084014905080C002328210AF0D9FD641C8A
:10439000032CEED3002411E004EB840000EBC400F6
:1043A0000C4BC218601CC0EBC00303EB001028309C
:1043B00081B2002318460AF0C3FD641C062CEBD31F
:1043C00010BD0000180100200352F300C7150108BA
:1043D0006C1401089314010810B5FFF77BFFFEF77A
:1043E000F3FC10BD10B5FEF7EFFC00200549486056
:1043F00005480860002305A24FF4D87130200AF068
:104400009FFD10BD180100209FFF54002056200082
:1044100010B5FEF7D9FC002009494860094808603A
:10442000002309A24FF4D87120200AF089FD00234F
:1044300007A24FF4D871A0200AF082FD10BD000041
:10444000180100209FFF54006DA6B8200000000056
:1044500020A6B8200000000000B58BB00AA90020FB
:1044600002F090FF09A9002002F052FF9DF82A00F7
:1044700000909DF829309DF828200DA101A80AF090
:10448000D9FD28200F49486001AA03214FF4F37099
:1044900001F03AF90C4801990160029941609DF8D8
:1044A0000C10017209200849C8740BB000BD00004F
:1044B0002025302E32643A25302E32643A25302EB3
:1044C00032640000180100200903002010B5082004
:1044D00000F04EF830B314480BF039FF08211348B0
:1044E00000F053FBD8B9002011490870114800783A
:1044F00030B100200F4908700F200F49087005E007
:1045000001200C49087002200B4908700920012184
:1045100081400A4A430942F8231000BF00BF082027
:1045200000F00EF810BD0000A0860100001002404F
:10453000770000202C0000202200002080E100E015
:104540000149086070470000143C01400020064902
:104550000860091D0860091D0860091D08600348FE
:104560000149143108607047003C0140FFFF7F00A3
:1045700001460020034A12680A400AB1012000E007
:1045800000207047143C0140002123498279002A11
:104590003AD00A46126803689A430B461A600A1D0D
:1045A000126803689A430B1D1A60027911440A6865
:1045B00003681A430A60184A0832126803689A436B
:1045C000154B08331A601A1D126803689A43124B80
:1045D0000C331A604279102A0ED11A1F1268036830
:1045E0001A430D4B08331A601A1D126803681A43E8
:1045F000094B0C331A600DE00749427911440A68EF
:1046000003681A430A6005E0027911440A680368E6
:104610009A430A6070470000003C0140014908606D
:10462000704700000C3C024070B504460A46002664
:10463000092502B909E0012A01D1160205E0022A82
:1046400001D1160201E04FF4407600F09FF80546D4
:10465000092D28D11548006820F4407013490860DE
:1046600008460068304308600846006820F0F800FB
:1046700008600846006844F0020108430B490860DE
:104680000846006840F48030086000F07FF8054676
:104690000648006820F002000449086008460068E7
:1046A00020F0F8000860284670BD0000103C024071
:1046B00009201349096801F48031B1F5803F01D127
:1046C00001201CE00E49096801F0100109B1062023
:1046D00015E00B49096801F4807109B102200EE070
:1046E0000749096801F0E00109B1072007E0044922
:1046F000096801F0020109B1082000E009207047B3
:104700000C3C02400348006840F00040014908604A
:1047100070470000103C024030B502460C460925A7
:1047200000F034F80546092D19D10E48006820F430
:1047300040700C4908600846006840F4007008604A
:104740000846006840F001000860146000F01EF8A0
:1047500005460448006820F0010002490860284628
:1047600030BD0000103C02400548006800F00040E9
:1047700028B1044802490C390860034808607047B2
:10478000103C024023016745AB89EFCD08B50920F5
:104790000090FFF78DFF009002E0FFF789FF009087
:1047A0009DF800000128F8D09DF8000008BD000029
:1047B00010B5024600200023102A03D14FF02044F8
:1047C000636E0FE0B2F5807F02D10A4C236809E0E6
:1047D000B2F5805F03D1074C2034236802E0054C1A
:1047E000D434236803EA01048C4201D0002000E0A5
:1047F000012010BD840000A00021D0E900231A434D
:1048000083685B1E42EA4312C36842EA4321014ABD
:1048100011607047500100A070B5002200210023F4
:1048200000240568AD00A5F1C045D5F840216FF31F
:104830000E02D0E901563543C66835430669354353
:104840004669354386693543C6693543066A35434B
:10485000466A35432A43056835B90568AD00A5F1B8
:10486000C045C5F8402111E03B4D2B686FF30E03A6
:10487000D0E907563543466A35432B43364D2B6006
:104880000568AD00A5F1C045C5F84021056875BBB8
:10489000314D0835066855F8261001F07041856ADB
:1048A0002D686D1E866A7668761E45EA0616856A4C
:1048B000AD686D1E46EA0526856AED686D1E46EAFE
:1048C0000536856A2D8A6D1E46EA0546856AAD8ADB
:1048D0006D1E46EA0556856A2D7E6D1E46EA056503
:1048E00029431D4D0835066845F8261032E0FFE7DC
:1048F000194D0835066855F8261001F07041856A93
:104900002D686D1E866A7668761E45EA0616856AEB
:10491000AD686D1E46EA0526856A2D8A6D1E46EA3B
:10492000054529430C4D08352C6804F07044856A10
:10493000ED686D1E2E03856AAD8A6D1E46EA05552B
:104940002C434FF02045C5F84841034D0835066813
:1049500045F8261070BD0000400100A00449096818
:1049600041EA40014FF02042C2F854117047000064
:10497000540100A02DE9F04105460E461746FFF709
:10498000F3FE002407E055F8241006EB8400FFF73F
:10499000C3FE601C84B2BC42F5DBFFF7B3FEBDE88A
:1049A000F08110B50B46002105E0046842F8214073
:1049B000001D4C1CA1B29942F7DB10BD1CB50121B2
:1049C00040F2A71002F080FA0E21364800F0E8F815
:1049D000202000906946344800F06CF820213248CD
:1049E00000F0DCF801208DF8040000208DF80600AE
:1049F00001208DF8070003208DF80500402000906D
:104A000069462A4800F056F84021284800F0C6F8C8
:104A1000102000906946244800F04CF810212248EC
:104A200000F0BEF80820009000208DF804006946D0
:104A30001F4800F03FF800208DF80700802000900C
:104A400069461A4800F036F80820009000208DF8DA
:104A500004008DF807006946154800F02BF8102077
:104A6000009001208DF8040000208DF80600012040
:104A70008DF807008DF8050069460B4800F01AF81C
:104A80001021094800F08CF801F009FEFCF70CFB3E
:104A90000AF00AFA01F0A4FF01F0A3FFFCF78AFA7A
:104AA0001CBD000000080240001C0240000402403F
:104AB00000100240F0B50A4600210023002400BF88
:104AC0003DE0012505FA01F3156805EA03049C425F
:104AD00034D105684F000326BE40B5430560157903
:104AE0004E00B5400668354305601579012D02D0AA
:104AF0001579022D16D185684F000326BE40B543B7
:104B0000856055794E00B5408668354385604568B7
:104B100001268E40B5434560456896798E40B6B211
:104B200035434560C5684F000326BE40B543C560A8
:104B3000D5794E00B540C6683543C560491C10297B
:104B4000BFD3F0BDF0B5002300244D07ED0E02FAEF
:104B500005F3CE1000F1200555F826504E07F70E4C
:104B60000F26BE40B543CF1000F1200646F827506F
:104B7000CE1000F1200555F8265045EA0304CE106A
:104B800000F1200545F82640F0BD024600201369DB
:104B90000B400BB1012000E00020704741837047BB
:104BA0000183704700BFFEE7F0B504461D46082AA2
:104BB00000DD082202B90122072900DD0721914208
:104BC00000DD1146002004E02026274F3E54461CFD
:104BD000F0B20828F8D310460FE00A26B4FBF6F727
:104BE00006FB17463036471EDFF87CC00CF807601E
:104BF0000A26B4FBF6F4461EF0B20028EDDC81B1C3
:104C00001346084605E05E1E174FBE5DFE545E1E4D
:104C1000F3B2061EA0F10107F8B2F4D12E26124F0E
:104C2000FE54A5B900200EE00F4E365C302E07D1A1
:104C30000D4F461CBE5D2E2E02D020263E5400E0B5
:104C400004E0461CF0B2561E8642EDDC00BF09B1FE
:104C5000561CF2B2104604E00026034F3E54461C98
:104C6000F0B20828F8D3F0BD8400002010B564200D
:104C70000BF06DFB10211548FFF792FF202114481F
:104C8000FFF78EFF06200CF0D1F955200CF0E4F967
:104C90000CF0C2F904460CF0B9F9AA2C01D0FA20A4
:104CA00010BD15200CF0C2F906200CF0D5F9142027
:104CB0000BF011FB0CF0B0F904460CF0A7F9512CE5
:104CC00001D11420ECE7FA20EAE7000000000240DE
:104CD000001C024010B501224C6800EE904AF8EE2C
:104CE000600A9FED291A60EE810AB0EE600A002387
:104CF00003E002EB820462005B1C8C68C4F10704D1
:104D00009C42F6D800EE902AF8EEE00A9FED1F1ABA
:104D1000F4EEC10AF1EE10FA00DD1D4A00EE902A11
:104D2000F8EEE00A80EE201AB0EE410ADFED190A33
:104D3000B4EEE00AF1EE10FA0BDDDFED160AB0EE8C
:104D4000600A03248C60FCEEC00A10EE904A4C60AE
:104D500006E003248C60FCEEC00A10EE904A4C6022
:104D6000FCEEC00A10EE904A8C610C7804704C681E
:104D700044608C688460CC68C4600C6904614C69D0
:104D800044618C69846110BD0050C347286BEE4EAE
:104D90000094357700606A470FB40299032902D165
:104DA000039901B900200299022902D1039901B99E
:104DB00001200299042903D10399012900D102207D
:104DC0000299032903D10399012900D103200299F3
:104DD000022903D10399012900D104200299042951
:104DE00003D10399022900D105200299032903D197
:104DF0000399022900D1062004B070470FB402992C
:104E0000032905D10199044A914201D9012000E00A
:104E1000002004B070470000C0D4010070B5064601
:104E2000372E5AD172B62D4845682C4600212C48A1
:104E300004F0B4FC4FF0804004F0CCFC00214FF0B3
:104E4000804004F0ABFC264804F0C4FC00220121A1
:104E5000234804F098FD0021214804F09FFC2148DC
:104E600007F0B4F8002240F225511E4807F033F94C
:104E700000211C4807F09DF802F096F8002002F08F
:104E800019F9FFF763FB00204FF0E021086102F001
:104E9000A3F900214FF4804002F09CFA002002F0B8
:104EA000A5FC72B6432001F029FD2A2001F026FD61
:104EB0004D2001F023FD4C2001F020FD72B6074982
:104EC000086880F3098800BF002080F3148800BFC1
:104ED000086880F3088800BFA04770BD00000C0878
:104EE000001000400048004000E0401E0028FCD1B7
:104EF000704700001CB54FF40070009001208DF841
:104F0000040000208DF8060001208DF807008DF8C0
:104F100005006946FE48FFF7CDFD4FF48060009024
:104F20006946FB48FFF7C6FD202000906946F94816
:104F3000FFF7C0FD4FF4006000906946F448FFF7AA
:104F4000B9FD022000906946F348FFF7B3FD082041
:104F5000009000208DF8040002208DF807006946BB
:104F6000ED48FFF7A7FD4FF40071E948FFF718FE81
:104F70004FF48061E648FFF713FE2021E548FFF774
:104F80000FFE4FF40061E248FFF70AFE0221E248FB
:104F9000FFF706FE0821E048FFF7F7FD00286ED076
:104FA0004FF48060009000208DF8040002208DF8FE
:104FB00007006946D648FFF77DFD2020009069462E
:104FC000D448FFF777FD4FF4006000906946D04861
:104FD000FFF770FD022000906946CF48FFF76AFD99
:104FE000FF20FFF781FF0821CB48FFF7CEFD002807
:104FF00047D04FF48061C648FFF7C7FD48B14FF472
:105000008061C348FFF7C1FD00283AD0162420462E
:105010001CBD2021BF48FFF7B8FD38B12021BD4895
:10502000FFF7B3FD60B30C242046F1E74FF40061B5
:10503000B748FFF7AAFD40B14FF40061B448FFF74D
:10504000A4FDE8B111242046E2E70221B248FFF7AF
:105050009CFD38B10221B048FFF797FD80B11724BD
:105060002046D5E70821AC48FFF78FFD40B1082165
:10507000A948FFF78AFD18B10D242046C8E714E2BD
:10508000FFE74FF48060009001208DF804000020BD
:105090008DF8060001208DF8070000208DF805002E
:1050A00069469B48FFF706FD4FF480619848FFF77B
:1050B00077FD4FF40070009000208DF8040002206E
:1050C0008DF8070069469248FFF7F4FC2020009015
:1050D00069469048FFF7EEFC4FF400600090694687
:1050E0008B48FFF7E7FC0220009069468A48FFF7EB
:1050F000E1FCFF20FFF7F8FE08218748FFF745FD98
:10510000002845D04FF400718148FFF73EFD40B1C3
:105110004FF400717E48FFF738FDC0B314242046D9
:1051200076E720217B48FFF730FD38B12021794810
:10513000FFF72BFD58B31924204669E74FF40061AF
:105140007348FFF722FD40B14FF400617048FFF74C
:105150001CFDE0B1302420465AE702216E48FFF7DB
:1051600014FD38B102216C48FFF70FFD78B10E2411
:1051700020464DE708216848FFF707FD38B10821B0
:105180006548FFF702FD10B10A24204640E7FFE71B
:105190002020009001208DF8040000208DF80600EA
:1051A00001208DF8070000208DF805006946594858
:1051B000FFF780FC20215748FFF7F2FC4FF4007006
:1051C000009000208DF8040002208DF80700694649
:1051D0004F48FFF76FFC4FF48060009069464C48E1
:1051E000FFF768FC4FF40060009069464848FFF7FD
:1051F00061FC0220009069464748FFF75BFCFF20F6
:10520000FFF772FE08214448FFF7BFFCC8B34FF414
:1052100000713F48FFF7B9FC40B14FF400713C48C2
:10522000FFF7B3FC68B30B242046F1E64FF480612E
:105230003748FFF7AAFC40B14FF480613448FFF7CC
:10524000A4FCF0B132242046E2E64FF4006130487D
:10525000FFF79BFC40B14FF400612D48FFF795FC30
:1052600078B135242046D3E602212B48FFF78DFC88
:1052700040B102212848FFF788FC10B138242046AD
:10528000C6E60CE008212448FFF77FFC38B108216E
:105290002148FFF77AFC10B10F242046B8E64FF4FE
:1052A0000060009001208DF8040000208DF80600B9
:1052B00001208DF8070000208DF80500694614488C
:1052C000FFF7F8FB4FF400611148FFF769FC4FF45A
:1052D0000070009000208DF8040002208DF8070077
:1052E00069460B48FFF7E6FB4FF480600090694683
:1052F0000748FFF7DFFB2020009069460548FFF7CD
:10530000D9FB0220009069460348FFF7D3FB05E074
:10531000001C02400008024000200240FF20FFF76E
:10532000E3FD08216E48FFF730FCB8B34FF400717D
:105330006C48FFF72AFC40B14FF400716948FFF751
:1053400024FC58B31024204662E64FF4806165487F
:10535000FFF71BFC40B14FF480616248FFF715FC7A
:10536000E0B13324204653E620215F48FFF70DFCCF
:1053700038B120215C48FFF708FC78B112242046A0
:1053800046E602215648FFF700FC40B1022154488E
:10539000FFF7FBFB10B13924204639E60CE0082169
:1053A0004F48FFF7F2FB38B108214D48FFF7EDFBFE
:1053B00010B1362420462BE60220009001208DF803
:1053C000040000208DF8060001208DF80700002061
:1053D0008DF8050069464248FFF76CFB0221404802
:1053E000FFF7DEFB4FF40070009000208DF8040002
:1053F00002208DF8070069463A48FFF75BFB4FF43F
:105400008060009069463748FFF754FB20200090E9
:1054100069463548FFF74EFB4FF40060009069463F
:105420003048FFF747FBFF20FFF75EFD08212C48BF
:10543000FFF7ABFBC8B34FF400712A48FFF7A5FB99
:1054400040B14FF400712748FFF79FFB68B3152464
:105450002046DDE54FF480612248FFF796FB40B11E
:105460004FF480611F48FFF790FBF0B131242046D4
:10547000CEE520211C48FFF788FB38B120211A48CF
:10548000FFF783FB88B117242046C1E54FF4006184
:105490001448FFF77AFB48B14FF400611148FFF759
:1054A00074FB10B134242046B2E50CE008210C480E
:1054B000FFF76BFB38B108210948FFF766FB10B115
:1054C00037242046A4E5094801780948007806F009
:1054D00001FD0446FF2C01D0204699E5FF2097E509
:1054E00000200240001C0240000802401A00002078
:1054F0002200002010B50648407838B10020044949
:10550000487000F077F80248007810BDFF20FCE7F3
:105510003401002010B504462146002003F0CAF8EB
:10552000FFF7E8FF10BD000010B5FFF7E3FC0446ED
:10553000FF2C1AD12B480078FF280DD02A4800787C
:10554000032809DD28480078642805DA2548007812
:105550002649087001204870FF2022490870002069
:1055600021490870214988703AE01E480078A0421D
:1055700031D11D480078652804DA1B480078401CAA
:105580001949087018480078642809D10020184982
:1055900008701648047001201449487088701FE094
:1055A0001148007864281BDD1048047001200F4961
:1055B00088700F480078401C0D4908700846007834
:1055C0000E280DDD002008700848407840B9012001
:1055D0000649487004E0034804700020024908703E
:1055E00010BD0000370100203801002034010020E8
:1055F0003901002010B5FBF7D4FA4FF47A700AF0A5
:10560000A6FEFBF7CDFA10BD30B513460022224CA2
:10561000246844B901EB8104E40104EB440400EB89
:10562000400562192AE01C4C2468012C0CD1C0F5FD
:105630002074641EC1F5F0756D1E05EB850504EB45
:10564000C51404EB440219E0134C2468022C09D160
:10565000C0F5F074641E04EB840401EBC41404EB85
:1056600044020BE00C4C2468032C07D1C0EB00145F
:105670004FF4F07505EB4414641A621EB2F5612F05
:1056800009D2064D2D68AB5203F47F04240C034D60
:105690002D681544AC7030BD700000202C01002036
:1056A000F0B58BB0044600250026002704F47F00E7
:1056B000050C04F47F40060AE7B2FCF786FB4FF4C2
:1056C00040300190012002900595049603970F2029
:1056D00006900C4800680790002008904FF4F07086
:1056E00009904FF420700A9001A8FCF785FBFCF7A5
:1056F000F5FB00BF0220FCF773FB0028FAD00BB0CB
:10570000F0BD00002C010020F0B505460E46144601
:1057100044E020787E2824DC224800F0CBFD22489B
:10572000006880882844B0F5207F05DD00251E48EC
:105730000068C088304486B21B480068C088304486
:10574000B0F5F07F01DD002500262278314628469D
:1057500000F05CF8144800688088284485B2641C16
:105760001CE005F11800B0F5207F03DD002506F1EF
:10577000180086B206F11800B0F5F07F01DD0025B3
:10578000002620460BF04EFB87B23A4631462846AB
:1057900000F05CF805F1180085B2A41C2078002800
:1057A000B7D1F0BD5C01002020010020F8B505460E
:1057B0000F46144624E020788DF8000020787E28DB
:1057C00003DC00208DF8010002E060788DF8010014
:1057D00068460BF027FB86B232463946284600F071
:1057E00035F820787E2807DC074800688088801C10
:1057F000284485B2641C03E005F1180085B2A41C9E
:1058000020780028D7D1F8BD20010020F0B5064649
:105810000F461446A4F12000C4B20B480068C088AB
:10582000604309490968898800FB01F5E81705EB21
:105830005070C01004490968096801EB40023946FC
:10584000304600F049F8F0BD200100202DE9F04776
:10585000044688469146A2460026002533E0032DE3
:1058600000DA2EE009EB890000EB4910184901EB42
:105870004000801C465D00271FE006F0800030B12C
:105880001448414602682046FFF7BEFE05E0114875
:10589000414642682046FFF7B7FE7006060E601CC0
:1058A00084B2A4EB0A00182805D1544608F101007F
:1058B0001FFA80F803E0781CC7B2082FDDDB00BFB9
:1058C00000BF681CC5B2482DC9DBBDE8F0870000E9
:1058D00020B60808180100202DE9FC4304460F46B5
:1058E0009046A1462148406801900098009000250C
:1058F00028E0002621E018F81500B04000F08000F4
:1059000030B11A48394602682046FFF77DFE05E0AF
:105910001648394642682046FFF776FE601C84B27E
:10592000A4EB0900124909688988884203D14C46D2
:10593000781C87B203E0701C86B2082EDBDB00BF48
:10594000681C85B20A4909688888C11700EB517143
:10595000C910074A1268D2885143A942C9DC0349D9
:105960000198486000980090BDE8FC831801002071
:10597000200100202DE9F04303460C4615466842FD
:1059800000216F00C7F1020200BF574F3F88A3EB11
:10599000000C04EB01084FF4207909FB08CC0CEB58
:1059A0004C0CDFF84881D8F8008028F80C704E4F76
:1059B0003F6807F47F074FEA174C1F1A04EB0108F2
:1059C00009FB087707EB4707BF1CDFF82081D8F8F1
:1059D000008008F807C0444F3F8803EB000C04EB3D
:1059E000010809FB08CC0CEB4C0CDFF80081D8F85F
:1059F000008028F80C703C4F3F6807F47F074FEA9F
:105A0000174C1F1804EB010809FB087707EB470741
:105A1000BF1CDFF8D880D8F8008008F807C0324FE4
:105A20003F8803EB000CA4EB010809FB08CC0CEB4E
:105A30004C0CDFF8B880D8F8008028F80C702A4F9A
:105A40003F6807F47F074FEA174C1F18A4EB0108C3
:105A500009FB087707EB4707BF1CDFF89080D8F8F1
:105A6000008008F807C0204F3F88A3EB000CA4EB90
:105A7000010809FB08CC0CEB4C0CDFF87080D8F85F
:105A8000008028F80C70184F3F6807F47F074FEA32
:105A9000174C1F1AA4EB010809FB087707EB47070F
:105AA000BF1CDFF84880D8F8008008F807C0164609
:105AB0008E420BDC4F1C39464FF0010C0CEB4707B4
:105AC0003A44C84202D1864200DC0026864206DD06
:105AD000471C38464FF0010C0CEB47073A440028AE
